:100000000C94B5030C94DD030C94DD030C94060CE6
:100010000C94060C0C94060C0C94DD030C94DD037C
:100020000C94DD030C94DD030C94DD030C94DD03D0
:100030000C94DD030C94DD030C94DD030C94DD03C0
:100040000C94640B0C94DD030C94D40B0C94AE0B49
:100050000C94DD030C94DD030C94DD030C94DD03A0
:100060000C94DD030C94DD0348616E647368616B6E
:100070006520656E766961646F20616C20726563CE
:100080006570746F722E204573706572616E646F57
:100090002041434B20646520636F6E6669726D6119
:1000A00063696F6E2E2E2E004572726F7220616C26
:1000B00020636F6469666963617220656C206861A2
:1000C0006E647368616B652E204E6F2073652065CA
:1000D0006E76696F2E005B48414E445348414B4554
:1000E0005D205469656D706F20656E76696F3A208A
:1000F000005B4552524F525D204441544120636F92
:100100006E7469656E652068657820696E76616CCD
:1001100069646F2E002F005B4552524F525D205490
:10012000696D656F75742044415441206865782E6F
:1001300020526563696269646F733A20005B4552BF
:10014000524F525D2044415441206E6F20636F69CD
:100150006E6369646520636F6E205245512E005BAB
:100160004552524F525D20444154412073696E20E4
:100170006C6F6E67697475642E005B4552524F5206
:100180005D20444154412073696E206F666673653B
:10019000742E005B4552524F525D2052657370754C
:1001A00065737461204441544120657370657261C8
:1001B00064612E0020005B5245515D20005B494E7A
:1001C000464F5D205265696E696369616E646F2E8A
:1001D0002E2E005B4F4B5D20426175647261746529
:1001E0002063616D626961646F206120005B45522C
:1001F000524F525D20426175647261746520696E70
:1002000076C3A16C69646F005B4552524F525D200A
:10021000466F726D61746F20696E76C3A16C6964FC
:100220006F2E205573653A20534554424155443A48
:100230006261756472617465002052656369626908
:10024000646F3A20005B4552524F525D2054616DFD
:1002500061C3B16F20726563696269646F206E6FFC
:1002600020636F696E636964652E204573706572E3
:1002700061646F3A20005B4170705D2054616D6174
:10028000C3B16F20636F72726563746F2E204C6907
:1002900073746F2070617261207472616E736D6926
:1002A0007469722E005B4170705D20454E4420726F
:1002B0006563696269646F202D20417263686976A5
:1002C0006F20636F6D706C65746F2E00207C2056FC
:1002D000656E74616E613A200020627974657320E6
:1002E0007C204368756E6B3A20005B4170705D2026
:1002F0004172636869766F207265676973747261B1
:10030000646F3A2000207C204D6178696D6F3A203F
:10031000005B4552524F525D204361726761207508
:1003200074696C20706F72207472616D61206E6FE1
:1003300020736F706F72746164612E20536F6C69EB
:100340006369746164613A20005B4552524F525DAB
:1003500020535441525420696E76616C69646F2E4B
:100360002055736F3A205354415254203C617263BC
:100370006869766F3E203C74616D3E203C63687511
:100380006E6B3E203C76656E74616E613E005B4133
:1003900070705D20535441525420726563696269E4
:1003A000646F206465206170702E00206672616D3C
:1003B000657300206279746573207C20005B545261
:1003C000414E534D495349C3934E5D20417263687A
:1003D00069766F206C6973746F202D200048616E00
:1003E000647368616B6520636F6D706C65746164C4
:1003F0006F20636F6E20656C207265636570746F2B
:10040000722E20507265706172616E646F2074721A
:10041000616D61732070617261207472616E736DC1
:10042000697369C3B36E2E2E2E005B4E414E4F5D35
:100430002048616E647368616B6520636F6D706CDA
:10044000657461646F21005B4E414E4F5D205072B8
:100450006F636573616E646F2041434B2064652058
:100460006461746F73005B4E414E4F2041434B5D9E
:1004700020526563696269646F2061636B3D00208F
:1004800041636B3A2000204374726C3A203078004C
:100490005B4E414E4F205452414D415D20446972A4
:1004A0003A203078005B4E414E4F2052585D20423A
:1004B0007974653A203078005B4E414E4F204552AA
:1004C000524F525D204572726F722048616D6D69A6
:1004D0006E67206E6F20636F7272656769626C650C
:1004E000005B4E414E4F5D20486179206279746512
:1004F0007320646973706F6E69626C6573207061DC
:100500007261206C656572005B54494D454F5554CE
:100510005D204E6F207365207265636962696F208C
:1005200041434B0020617661696C61626C653D00FE
:100530002070756564654C656572427974653D002F
:100540005B4E414E4F20524543565D205469656DC8
:10055000706F3A20005472616D612046494E2065EB
:100560006E766961646120616C2072656365707488
:100570006F722E0045737461646F20646520636F31
:1005800064696669636163696F6E3A2000457272DF
:100590006F7220616C20636F6469666963617220A9
:1005A0006C61207472616D612046494E2E204E6F41
:1005B00020736520656E76696F2E005B4552524F41
:1005C000525D205472616E73666572656E63696117
:1005D0002061626F72746164612E2053656E646580
:1005E0007220656E20657370657261206465206E8F
:1005F0007565766F2053544152542E005B494E4628
:100600004F5D205472616E73666572656E636961D9
:100610002066696E616C697A6164612E2053656E33
:10062000646572206C6973746F2070617261206EF2
:100630007565766F206172636869766F2E005B491D
:100640004E464F5D204172636869766F206C697316
:10065000746F3A20496E696369616E646F207472C9
:10066000616E736D697369C3B36E2068616369619C
:1006700020526563656976657220284172647569E8
:100680006E6F20556E6F2900000000080002010007
:100690000003040700000000000000004572726FB4
:1006A000723A204C61206361726761207574696CD5
:1006B0002065732064656D61736961646F20677282
:1006C000616E64652070617261206C61207472617A
:1006D0006D612E0056656E74616E612064652074D4
:1006E00072616E736D6973696F6E206C6C656E619B
:1006F0002E204E6F20736520707565646520656ED1
:1007000076696172206C61207472616D6120656E22
:100710002065737465206D6F6D656E746F2E0000BB
:10072000000000230026002900000000002400270C
:10073000002A0000000000250028002B000404040B
:10074000040404040402020202020203030303037A
:100750000301020408102040800102040810200157
:10076000020408102000CA0C7E1511241FBECFEF12
:10077000D8E0DEBFCDBF11E0A0E0B1E0E8ECFFE2E1
:1007800002C005900D92A235B107D9F727E0A2E586
:10079000B1E001C01D92A135B207E1F713E0C4EB4F
:1007A000D3E004C02197FE010E94AF17C33BD107DD
:1007B000C9F70E94C30D0C94D7170C940000109237
:1007C000EC061092ED061092EE061092EF061092D3
:1007D000F0061092F2061092F1061092F4061092B2
:1007E000F30610920107E5EFF6E0119287E0E130A1
:1007F000F807D9F78FEF9FEF9093030780930207D5
:10080000109205071092040710920607089510929F
:100810004907E7E0F7E01082118212821382148206
:100820001682158217821086118612861386148608
:100830003D9687E0E834F80771F708953FB7F894DC
:1008400080912D0290912E02A0912F02B091300242
:1008500026B5A89B05C02F3F19F00196A11DB11D1B
:100860003FBFBA2FA92F982F8827BC01CD01620F57
:10087000711D811D911D42E0660F771F881F991F12
:100880004A95D1F708958F929F92AF92BF92CF92DF
:10089000DF92EF92FF924B015C010E941E046B01FC
:1008A0007C010E941E046C197D098E099F09683E17
:1008B000734081059105A8F321E0821A9108A108EF
:1008C000B10888EEC80E83E0D81EE11CF11C81142B
:1008D0009104A104B10429F7FF90EF90DF90CF902D
:1008E000BF90AF909F908F9008952FB7F89460912C
:1008F000290270912A0280912B0290912C022FBF25
:100900000895AF92BF92CF92DF92EF92FF920F9332
:100910001F93CF93DF936C017B018B01040F151F95
:10092000EB015E01AE18BF08C017D10759F06991FD
:10093000D601ED91FC910190F081E02DC601099561
:10094000892B79F7C501DF91CF911F910F91FF900E
:10095000EF90DF90CF90BF90AF900895FC01538D42
:10096000448D252F30E0842F90E0821B930B541789
:1009700010F0CF96089501970895FC01918D828D16
:10098000981761F0A28DAE0FBF2FB11D5D968C91AF
:10099000928D9F5F9F73928F90E008958FEF9FEFEE
:1009A0000895FC01918D828D981731F0828DE80FAA
:1009B000F11D858D90E008958FEF9FEF0895FC0164
:1009C000918D228D892F90E0805C9F4F821B910931
:1009D0008F7399270895BF92CF92DF92EF92FF9283
:1009E0000F931F93CF93DF93EC016A017B0180E3A8
:1009F00096E00E94DF04892BF1F40E9475046C19C3
:100A00007D098E099F0961327E448105910560F060
:100A1000188280E0DF91CF911F910F91FF90EF90AE
:100A2000DF90CF90BF90089561E070E080E090E0AB
:100A30000E944304DCCF80E396E00E94BD04803234
:100A4000B1F28D30A1F297EF980F923080F28E01C3
:100A5000BB24B394F80181938F0180E396E00E9458
:100A6000DF04892BB9F40E9475046C197D098E0985
:100A70009F0961327E448105910528F0CB0DD11D7F
:100A8000188281E0C7CF61E070E080E090E00E94D2
:100A90004304E3CF80E396E00E94BD04803271F30B
:100AA0008D3061F397EF980F923040F39EE09B15E5
:100AB000A0F2B394CFCF80E396E00E94DF0421E060
:100AC000892B09F420E0822F089580E090E0892BA3
:100AD00029F00E945B0581110C9400000895FC012F
:100AE000A48DA80FB92FB11DA35ABF4F2C91848D8F
:100AF00090E001968F739927848FA689B7892C93EC
:100B0000A089B1898C91837080648C93938D848D3E
:100B1000981306C00288F389E02D80818F7D808341
:100B20000895EF92FF920F931F93CF93DF93EC0101
:100B300081E0888F9B8D8C8D98131AC0E889F98984
:100B4000808185FF15C09FB7F894EE89FF89608387
:100B5000E889F98980818370806480839FBF81E008
:100B600090E0DF91CF911F910F91FF90EF9008954A
:100B7000F62E0B8D10E00F5F1F4F0F731127E02E25
:100B80008C8D8E110CC00FB607FCFACFE889F9895D
:100B9000808185FFF5CFCE010E946F05F1CFEB8DEF
:100BA000EC0FFD2FF11DE35AFF4FF0829FB7F89431
:100BB0000B8FEA89FB8980818062CFCF0F931F93CF
:100BC000CF93DF938C01D0E0C0E0F801EC0FFD1F64
:100BD0006491662341F080E396E00E949105892BA1
:100BE00011F02196F2CFCE01DF91CF911F910F919D
:100BF0000895CF93DF93EC01888D8823B9F0AA89FB
:100C0000BB89E889F9898C9185FD03C0808186FDC7
:100C10000DC00FB607FCF7CF8C9185FFF2CF808116
:100C200085FFEDCFCE010E946F05E9CFDF91CF9117
:100C3000089520919401309195012817390771F496
:100C40009091920180919301981741F0E091920167
:100C5000F0E0EE5AFE4F808190E008958FEF9FEF15
:100C600008950895EF92FF920F931F93CF93DF9310
:100C7000DC015C96ED90FC905D97E114F10479F451
:100C800081E090E013969C938E93129790E080E021
:100C9000DF91CF911F910F91FF90EF9008955196A2
:100CA000ED91FC91529750968C915097982F90957A
:100CB0000FB75E962C915E97122F127021FD6095F2
:100CC000F8942081112319F1282B2083E701219723
:100CD000F1F728E0462F50E0308160FF1AC0382B32
:100CE0003083E7012197F1F7BA0175956795215097
:100CF00089F7112381F08081892380830FBF5C965F
:100D00008D919C910197F1F781E090E0C1CF29236B
:100D1000DCCF3923E5CF9081892BEFCF209194014F
:100D2000309195012817390761F480919301209142
:100D3000920190E0805C9F4F821B91098F739927ED
:100D4000089590E080E008952091940130919501FC
:100D500028173907B9F4909192018091930198175F
:100D600089F0E0919201F0E0EE5AFE4F80812091EF
:100D7000920130E02F5F3F4F2F7333272093920172
:100D800090E008958FEF9FEF089590E080E0089540
:100D90003F924F925F926F927F928F929F92AF920B
:100DA000BF92CF92DF92EF92FF920F931F93CF9358
:100DB000DF93782EE89477F802E010E0612C81E070
:100DC00090E0272D30E0E901D595C795D595C795D9
:100DD000DC2FA901E4E055954795EA95E1F7342E1B
:100DE0005901F5E0B594A794FA95E1F75A2DD90188
:100DF000E6E0B595A795EA95E1F7F901F595E79550
:100E0000EC27EA25EA27E0FBEE24E0F8F12CF701D5
:100E1000EE0FFF1FF3E035952795FA95E1F72427AC
:100E2000A226AA26A0FACC24C0F8D12C9601220F23
:100E3000331F220F331F2E2B4C2747254A27417083
:100E4000422B61F5FB01608283E0AA0FBB1F8A95EC
:100E5000E1F7D170AD2B50FB882480F8912C880CE1
:100E6000991C880C991C8A2A30FA442440F8512C89
:100E7000C201880F991F8829DF91CF911F910F918F
:100E8000FF90EF90DF90CF90BF90AF909F908F90AA
:100E90007F906F905F904F903F90089501301105C3
:100EA00021F482E0FB018083CFCF41509C0101C03F
:100EB000220F4A95EAF772266624639401E010E057
:100EC00080CF0F931F93CF93DF93682F70E0EB01D8
:100ED000D595C795AB01559547955595479533E001
:100EE000759567953A95E1F7282F217030E0220F2C
:100EF000331F220F331F8B0176E0000F111F7A95ED
:100F0000E1F7202B9C2F982791709627292BAC2F47
:100F1000A170B0E0E4E0AA0FBB1FEA95E1F7922FC1
:100F20009A2BE42FE170F0E09F01F5E0220F331FD0
:100F3000FA95E1F7292B982F942791709627990F0E
:100F4000922B4C274170462788E0489FA00111242E
:100F5000892F842BDF91CF911F910F9108958DECF4
:100F600096E00E948E0621E002970CF420E0822F8A
:100F70000895CF93DF93C82F82958F700E946107E9
:100F8000D82F8C2F8F700E946107C82F6D2F8DEC8A
:100F900096E00E943206019741F46C2F8DEC96E0AA
:100FA0000E94320621E0019709F020E0822FDF91B4
:100FB000CF9108950C94B907962728E0AC01880FCB
:100FC000991F57FF04C031E2832730E19327215056
:100FD000A9F708957F928F929F92AF92BF92CF927E
:100FE000DF92EF92FF920F931F93CF93DF9300D086
:100FF00000D000D0CDB7DEB7D82EE62EF42E722E5C
:10100000C32E58018EE70E94B907811115C082E0F6
:1010100026960FB6F894DEBF0FBECDBFDF91CF91FD
:101020001F910F91FF90EF90DF90CF90BF90AF9006
:101030009F908F907F900895D982EA82FB821C82D4
:10104000BD820E83CE0101967C014E0197E0890E90
:10105000911C1FEFDD24DA94F70101917F01602FCD
:10106000812F9D2D0E94DC07182FD92E802F0E94E2
:10107000B907882361F28E149F0471F7E72CFC2CCA
:10108000AE0CBF1CAE14BF0481F0F70101917F01CB
:10109000602F812F9D2D0E94DC07182FD92E802FC5
:1010A0000E94B9078111EECFB2CF8D2D0E94B907F2
:1010B000882309F4ACCF812F0E94B907882309F453
:1010C000A6CF8EE70E94B907882309F4A0CF80E05D
:1010D0009FCFCF93DF93CCEED6E0682F8E899F8988
:1010E0000E94DC079F8B8E8BDF91CF91089582E168
:1010F000EDE1F6E0DF011D928A95E9F71092170203
:101100001092190610921A0610921B0610921C06D5
:1011100081E08093070110921C021092220210922B
:101120002302109224021092250210921D02EAE47A
:10113000F7E0108211820E9407040E94DF031092E0
:10114000260208956AE070E00E949B176115710500
:1011500011F461E070E09B0150E040E060E577EB66
:1011600082E090E00E940917DA01C90188519C4F82
:10117000AF4FBF4F883B2BE09207A105B10520F48C
:1011800088EB9BE0A0E0B0E0809303019093040122
:10119000A0930501B09306010895FC010190002081
:1011A000E9F73197AF01481B590BBC0180E396E08A
:1011B0000C948104CF93DF930E94DE05EC018CE256
:1011C00091E00E94CD088C0F9D1FDF91CF91089573
:1011D0000F931F93CF93C42F442391F090914B070B
:1011E00020914A07921B20914C07921748F084EDFA
:1011F00096E00E94DA0880E0CF911F910F91089548
:10120000693E93E0790740F08CE996E00E94DA08A5
:1012100085E080931D06EFCF8B0121E332E0482F5C
:1012200061E080912F060E94EA07813069F3811105
:10123000EFCFCC2329F080914B078F5F80934B0732
:101240000E9475046093190670931A0680931B061A
:1012500090931C0682E080931D0681E0CDCF8F9293
:101260009F92AF92BF920F931F93CF93DF93CDB70F
:10127000DEB7A1970FB6F894DEBF0FBECDBF19A29F
:10128000423008F44AE08E010F5D1F4F842E912CEE
:10129000B12CA12CA50194010E940917E62FB901D8
:1012A000CA01EA30F4F4E05DD801EE938D01232BFE
:1012B000242B252B79F790E080E0109719F0CD01D1
:1012C0000E94CD08A1960FB6F894DEBF0FBECDBF29
:1012D000DF91CF911F910F91BF90AF909F908F9012
:1012E0000895E95CE1CFCF92DF92EF92FF92CF9326
:1012F000DF936B017C016DE280E396E00E94910533
:10130000EC0166277727CB016C197D098E099F09AF
:101310004AE00E942F098C0F9D1FDF91CF91FF9013
:10132000EF90DF90CF900895CF93DF93BC0190E0D2
:1013300080E04AE00E942F09EC018CE291E00E94DB
:10134000CD088C0F9D1FDF91CF910895CF93DF9330
:10135000462F682F70E090E080E00E942F09EC019A
:101360008CE291E00E94CD088C0F9D1FDF91CF9100
:1013700008950F931F93CF93DF93CDB7DEB72A97CE
:101380000FB6F894DEBF0FBECDBF86ED90E00E9491
:10139000DE050E9475044AE00E942F098CE291E06C
:1013A0000E94CD0880911E0290911F022091200280
:1013B0003091210239832A839B838C83809120067C
:1013C000909121069D838E8380910101909102016D
:1013D0009F8388878091000189871A860AE010E040
:1013E0009E012F5F3F4F40E064E080912F060E94F6
:1013F000EA0781111CC082E080931D060E947504DB
:101400006093190670931A0680931B0690931C062E
:1014100088E690E00E94DA082A960FB6F894DEBFBC
:101420000FBECDBFDF91CF911F910F91089588EA34
:1014300090E0F0CF3F924F925F926F927F928F92A7
:101440009F92AF92BF92CF92DF92EF92FF920F9353
:101450001F93CF93DF93CDB7DEB760970FB6F894A5
:10146000DEBF0FBECDBF4B015C018A0186EB91E070
:101470000E94DE054AE0C501B4010E942F0984EBF9
:1014800091E00E94DE05C8010E94940980E396E085
:101490000E94F9050E9475046B017C01BC01A60144
:1014A000CE0101960E94EB04882371F16FE271E096
:1014B000CE0101960E94C017892B31F5B701A60114
:1014C000CE0101960E94EB04382E811122C08AE7DA
:1014D00091E00E94DA08832D60960FB6F894DEBF83
:1014E0000FBECDBFDF91CF911F910F91FF90EF9075
:1014F000DF90CF90BF90AF909F908F907F906F9034
:101500005F904F903F90089583E991E00E94DA0840
:101510006CC04AE050E070E060E0CE0101960E94AD
:101520009A152B013C01B701A601CE0101960E943C
:10153000EB04382E811103C08FE591E0CACFCE01B4
:1015400001960E94851684149504A604B70419F424
:101550000817190719F08DE391E0D8CF99249A94D0
:10156000B12CA12C1CC061E070E080E090E00E94F2
:10157000430419C080E396E00E94BD04803279F0F4
:101580008D3069F097EF980F923048F090ED980FFA
:101590009A3068F5892F9FEF991238C0982EA016BF
:1015A000B10608F098CF80E396E00E94DF04892B13
:1015B00009F70E9475046C197D098E099F09613233
:1015C0007E448105910578F287E191E00E94DE0575
:1015D000B50190E080E04AE00E942F0985E191E0AA
:1015E0000E94DE05C8010E949409312C74CF9FEB44
:1015F000980F963010F48753CECF9FE9980F96300E
:1016000010F48755C8CF81EF90E080CFF501EF5CF3
:10161000FD4F492D90E1490290011124822B8083D6
:10162000C50101965C0199249A94B9CF0F931F9339
:10163000CF93DF93C7E0D7E08C858823F1F10E9438
:101640007504088519852A853B85601B710B820B03
:10165000930B009103011091040120910501309139
:101660000601061717072807390738F58F818530D7
:1016700040F085E080931D06DF91CF911F910F917F
:1016800008958F5F8F830E947504688779878A87A2
:101690009B874D815E81493E83E0580750F7698101
:1016A0007A818B819C810E941A0A882311F36D81B3
:1016B0007E8140E088810E94E8082D9687E0C8344A
:1016C000D80709F0B9CFD8CF1F920F920FB60F925B
:1016D00011242F933F938F939F93AF93BF93809148
:1016E000290290912A02A0912B02B0912C023091F4
:1016F000280223E0230F2D3758F50196A11DB11DB7
:10170000209328028093290290932A02A0932B020F
:10171000B0932C0280912D0290912E02A0912F0265
:10172000B09130020196A11DB11D80932D029093BE
:101730002E02A0932F02B0933002BF91AF919F91E0
:101740008F913F912F910F900FBE0F901F90189582
:1017500026E8230F0296A11DB11DD2CF1F920F9232
:101760000FB60F9211242F933F934F935F936F9374
:101770007F938F939F93AF93BF93EF93FF9380E3F8
:1017800096E00E946F05FF91EF91BF91AF919F91FD
:101790008F917F916F915F914F913F912F910F901A
:1017A0000FBE0F901F9018951F920F920FB60F92B9
:1017B00011242F938F939F93EF93FF93E091400613
:1017C000F09141068081E0914606F091470682FD46
:1017D0001BC09081809149068F5F8F7320914A06CC
:1017E000821741F0E0914906F0E0E05DF94F958FF6
:1017F00080934906FF91EF919F918F912F910F90C8
:101800000FBE0F901F9018958081F4CF1F920F92FA
:101810000FB60F9211242F933F934F935F936F93C3
:101820007F938F939F93AF93BF93EF93FF93E09139
:101830009401F0919501309749F0A685B78585858B
:10184000968D91FF14C09C918923A1F4FF91EF9193
:10185000BF91AF919F918F917F916F915F914F91C8
:101860003F912F910F900FBE0F901F9018959C9154
:10187000892361F7A389B4899C91858980958923FF
:101880008C93868997890197F1F7608D718DA68574
:10189000B785558538E020E0CB010197F1F7822F1D
:1018A00090E095958795282F4C91452309F0206865
:1018B000315091F7868D81FD20958091930190E0C4
:1018C00001968F73992730919201381799F0A09162
:1018D0009301B0E0AE5ABE4F2C9380939301828D5A
:1018E000938D0197F1F7A389B4898C919589892B00
:1018F0008C93ACCF868D8160868FF1CF90E0FC0118
:10190000E857F94F2491FC01EF5AF84F3491FC014C
:10191000E35CF84FE491EE23C9F0222339F0233041
:1019200001F1A8F4213019F1223029F1F0E0EE0F95
:10193000FF1FED5CF84FA591B4918FB7F894EC912F
:10194000611126C030953E233C938FBF0895273008
:10195000A9F02830C9F0243049F7809180008F7DAC
:1019600003C0809180008F7780938000DFCF84B5A3
:101970008F7784BDDBCF84B58F7DFBCF8091B000A6
:101980008F778093B000D2CF8091B0008F7DF9CF58
:101990003E2BDACF0F931F93CF93DF931092330632
:1019A0001092320688EE93E0A0E0B0E08093340617
:1019B00090933506A0933606B09337062CE031E0BD
:1019C000309331062093300625EC30E030933D060D
:1019D00020933C0624EC30E030933F0620933E06F3
:1019E00020EC30E0309341062093400621EC30E0BB
:1019F000309343062093420622EC30E030934506B4
:101A00002093440626EC30E03093470620934606A8
:101A10001092490610924A0610924B0610924C06FC
:101A20001092D0061092CF068093D1069093D206E2
:101A3000A093D306B093D4068EE191E09093CE06A6
:101A40008093CD061092E4061092E3061092E6060B
:101A50001092E5061092E8061092E7061092EA0648
:101A60001092E9066091EB066E7F6D7F6093EB0646
:101A70006695617081E068278AE00E947E0C4BE5E4
:101A800057E0FA01649187E497E0FC012491222356
:101A900099F030E0220F331FF901E75DF84FA5916F
:101AA000B491F901ED5CF84F259134912FB7F8947A
:101AB0003C91632B6C932FBFFA0144914093DD0658
:101AC000FC018491E82FF0E0EE0FFF1FED5CF84F72
:101AD000859194919093DF068093DE060CE517E0E4
:101AE000F8012491C8E4D7E0FE0184918823C9F06D
:101AF00090E0880F991FFC01E75DF84FA591B49124
:101B0000FC01ED5CF84F459154913FB7F8949C91DE
:101B1000822F809598239C93FA019081892380835A
:101B20003FBF8091EB0681FD04C061E08BE00E9425
:101B30007E0C8BE08093D906F80104910093DA06BD
:101B4000FE01C491EC2FF0E0EE0FFF1FE15EF84FB5
:101B5000859194919093DC068093DB0610924A075E
:101B600010924B07C3E0C0934C07C09348071092F4
:101B700049070E940704C0934807DF91CF911F9146
:101B80000F910C94DF03CF93DF9300D0CDB7DEB776
:101B9000789484B5826084BD84B5816084BD85B548
:101BA000826085BD85B5816085BD80916E00816054
:101BB00080936E00109281008091810082608093FA
:101BC00081008091810081608093810080918000FC
:101BD0008160809380008091B10084608093B10027
:101BE0008091B00081608093B00080917A00846021
:101BF00080937A0080917A00826080937A0080914D
:101C00007A00816080937A0080917A008068809366
:101C10007A001092C10090E080E00E94E316082F45
:101C200081E090E00E94E316102F082F0F3F10076D
:101C300011F400EC12E1C80101978E3F9F4F10F0A4
:101C400000EC12E16801F12CE12C60E079E08DE319
:101C500090E0A70198010E9409172150310941091C
:101C600051095695479537952795E0914006F09193
:101C7000410682E08083011581EE180721F02115CD
:101C800090E13907A8F0E0914006F09141061082FA
:101C900060E874E88EE190E0A70196010E940917C0
:101CA0002150310941095109569547953795279596
:101CB000E0913C06F0913D063083E0913E06F091C4
:101CC0003F06208310924806E0914406F0914506B5
:101CD00086E08083E0914206F09143068081806136
:101CE0008083E0914206F091430680818860808382
:101CF000E0914206F0914306808180688083E09104
:101D00004206F091430680818F7D80831092E80621
:101D10001092E7061092E6061092E5061092E4068D
:101D20001092E30660E079E08DE390E0A701960170
:101D30000E942B176901A901C601039724303105C0
:101D400010F481E090E09093EA068093E906909188
:101D5000D906963108F061C0960136952795243151
:101D6000310508F4DCC0235131093093E406209397
:101D7000E3069601255031094630510510F421E063
:101D800030E03093E6062093E5069601220F331FDC
:101D90002C0D3D1D36952795369527952D3031050F
:101DA00008F4C0C02C5031093093E8062093E706B0
:101DB0002091680084E0983048F031E09E3008F4CB
:101DC00030E081E001C0880F3A95EAF7822B8093DA
:101DD00068002DE630E0983050F02BE630E09E3081
:101DE00030F02CE630E0963110F030E020E0309317
:101DF000E1062093E006292F30E0983008F095C0E6
:101E000081E001C0880F9A95EAF78093E2068091FD
:101E1000E9069091EA060197F1F78091E706909123
:101E2000E806892B49F1E0919401F091950126E0B3
:101E3000ED3CF20709F1309739F0A389B4899C9100
:101E40008589809589238C938091EB068E7F809382
:101E5000EB0610929301109292018DEC96E0909314
:101E6000950180939401E091E006F091E106808174
:101E70009091E206892B8083C8010E94A20868EE37
:101E800073E080E090E00E94430482E080932F069C
:101E900068E4E62E67E0F62ECC24CA94DC2C992464
:101EA0009394BB24B39455E0A52E80E396E00E9462
:101EB000DF04892B09F4DEC080E396E00E94DF0492
:101EC000892B09F4D7C080E396E00E94BD04E0911D
:101ED00016028A3019F08D3009F08BC2EE2309F416
:101EE000C9C0F0E0EA56FE4F108247E050E06BE3D5
:101EF00071E086E991E00E94C917892B09F057C06B
:101F00006AE370E086E991E00E94B5170097D1F48A
:101F100088E092E00E94DA0810921602CDCF21E00C
:101F200030E023CF21E030E03FCF9E3040F4285016
:101F3000310981E001C0880F2A95EAF766CF2E505B
:101F40003109F7CF01960E948516882E082F192F88
:101F50000115110519F48DEE91E0DCCF692F90E0A9
:101F600080E00E94EB16682D81E090E00E94EB1665
:101F7000C8010E94A20883ED91E00E94DE05C8011D
:101F80000E9494098DEB91E00E94DA0864E670E00B
:101F900080E090E00E94430488E198E00FB6F89456
:101FA000A895809360000FBE90936000FFCF45E03E
:101FB00050E063E471E086E991E00E94C9178C016A
:101FC000892B09F0CEC18EE893E00E94DA0869E41B
:101FD00071E086E991E00E94AC16009769F1053046
:101FE000110569F10F5F1F4F0330110599F44AE0A5
:101FF00050E070E060E00E949A15609318027093C0
:10200000190280931A0290931B0269E471E090E038
:1020100080E0E1CF0430110539F40E9485169093D9
:10202000020180930101F1CF0530110571F70E9483
:10203000851680930001E9CF05301105A9F4409081
:1020400018025090190260901A0270901B024114FD
:1020500051046104710441F00091010110910201E9
:102060000115110509F029C189E493E00E94DA08FD
:102070001092160280912702882309F48AC0809169
:102080002602882309F485C080911D06811181C034
:1020900080910001863008F4B8C185E010924A07AB
:1020A00010924B0780934C078093480710921F06AD
:1020B00010921E06109222061092230610922406F9
:1020C0001092250640901E0250901F026090200240
:1020D00070902102409226065092270660922806B0
:1020E00070922906209101013091020121153105DC
:1020F00071F050E040E0C301B20161507109810903
:102100009109620F731F841F951F0E940917309356
:1021100021062093200610922A060E9475046093DF
:102120002B0670932C0680932D0690932E0610920A
:102130002202109223021092240210922502109281
:102140001702B0921C0210921D028DEB93E00E94C8
:10215000DE050E9407044AE0C301B2010E942F0974
:1021600083EB93E00E94DE056091200670912106CA
:1021700090E080E04AE00E942F098BEA93E00E9401
:10218000DA08B0920701109227028EE396E00E94CF
:10219000DA0880911D06823009F4E4C108F039C1E3
:1021A000882309F44BC1813009F03BC19091490764
:1021B00080914807981708F0B3C1409022025090D0
:1021C0002302609024027090250280911E0290915B
:1021D0001F02A0912002B0912102481659066A06FA
:1021E0007B0608F09DC10091010110910201093E9A
:1021F000E3E01E0710F008EE13E08419950980173C
:10220000910708F48C0180901702A801C301B20164
:102210000E941A0A882309F483C10E947504209041
:102220002202309023024090240250902502A09177
:10223000490720914807A21708F072C1E7E0F7E0CC
:1022400030E020E04485411164C1EDE0E29FA0014F
:10225000E39F500D1124FA01E95FF84F808221823B
:102260003282438254821683058317826087718786
:10227000828793879486AF5FA093490741E0B801B6
:10228000882D0E94E8088091220290912302A0915B
:102290002402B0912502800F911FA11DB11D8093D2
:1022A000220290932302A0932402B09325028091EE
:1022B00017028F5F8093170279CF809100018111FF
:1022C00002C0B092000180910001863010F0A0920F
:1022D0000001093E83E0180798F081E193E00E9435
:1022E000DE05B80190E080E04AE00E942F0985E019
:1022F00093E00E94DE0588EE93E00E949409B8CE38
:1023000040921E0250921F0260922002709221029F
:10231000B0922702B0922602B092070110921D02DD
:102320008AEE92E00E94DE054AE0C301B2010E94FB
:102330002F0989ED92E00E94DE0560910101709104
:10234000020190E080E04AE00E942F098CEC92E0CC
:102350000E94DE056AE070E0809100010E94A609FB
:10236000DBCD45E050E06BE471E086E991E00E944E
:10237000C917892B09F0D0CD85EA92E00E94DA08CE
:10238000409018025090190260901A0270901B023F
:1023900080911E0290911F02A0912002B091210213
:1023A00084159505A605B70539F486E792E00E94E5
:1023B000DA08B0922702B0CD85E492E00E94DE05F3
:1023C0004AE0C301B2010E942F0989E392E00E9412
:1023D000DE0560911E0270911F0280912002909193
:1023E00021024AE00E942F098CE291E00E94CD0870
:1023F00093CDEF3708F060CD91E09E0F90931602D9
:10240000F0E0EA56FE4F808357CD811147CE81E040
:1024100045CE843009F4EBC208F4DFC2853009F4FC
:1024200038C380E090E0892B09F43FCD0E945B0522
:10243000882309F434CD0E94000031CD809126021A
:10244000882379F380910701882369F00E94B909F4
:102450000E9475046093190670931A0680931B06F8
:1024600090931C06DECF80911C0281114FC0109208
:102470001F0610921E06209101013091020140902A
:102480001E0250901F0260902002709021022115C0
:10249000310571F050E040E0C301B20161507109B3
:1024A00081099109620F731F841F951F0E940917EC
:1024B00030932106209320061092220610922306C4
:1024C0001092240610922506409226065092270666
:1024D000609228067092290610922A060E947504BE
:1024E00060932B0670932C0680932D0690932E06F6
:1024F00010922202109223021092240210922502BE
:1025000010921702B0921C0210921D02B0921D068A
:1025100088CF2F5F3F4F3D962530310509F092CE91
:1025200080914907882321F082E080931D0679CFAE
:102530004091220250912302609124027091250261
:1025400080911E0290911F02A0912002B091210261
:10255000481759076A077B0710F084E0E6CFA0927E
:102560001D065FCF80E495E00E94DE050E947504A1
:102570004AE00E942F0980E395E00E94DE050E9458
:10258000AF07682F70E090E080E04AE00E942F09DA
:1025900084E295E00E94DE050E94AF078111A6C289
:1025A00084E391E00E94CD088CE291E00E94CD0886
:1025B0000E94AF07882309F464C081EE94E00E9472
:1025C000DA0802E08AE0782E99E0692E28E0522E9F
:1025D00036E0432E44E0842E0E94AF07882309F49E
:1025E00075C00E94AF07882309F470C01A8219824F
:1025F0008DEC96E00E94A406BE016E5F7F4F0E94A4
:10260000C806382E8DEC96E00E94A406BE016F5FCE
:102610007F4F0E94C8069A81923009F46AC299815C
:10262000923009F466C290E1399E90011124182F6E
:10263000122B85EA94E00E94DE0560E170E0812FB4
:102640000E94A6090E9475046093190670931A06E9
:1026500080931B0690931C06E091EC06EB3008F08B
:1026600091C0F0E0EA5CFC4E0C94AF178D13B613EA
:10267000BE13CE13D613DE13E813021425142A1446
:10268000351480911D06823009F50E947504009171
:10269000190610911A0620911B0630911C06601B2A
:1026A000710B820B930B0091030110910401209197
:1026B000050130910601061717072807390730F47E
:1026C00088E095E00E94DA080E94160B0E94160B23
:1026D00080911D06823009F0A4CE809149078111B6
:1026E000A0CE8091070181119CCE40912202509191
:1026F0002302609124027091250280911E02909124
:102700001F02A0912002B0912102481759076A07C1
:102710007B0708F022CF81E008CF1E3709F05CCF9D
:102720001092ED061092EE061092EF061092F0064F
:102730001092F2061092F1061092F4061092F3062F
:1027400010920107E5EFF6E0119227E0E130F20781
:10275000D9F7D0920307C092020710920507109292
:10276000040710920607B092EC0636CF1093ED06E0
:10277000812F0E9469080093EC062ECF8FEF810F06
:10278000863018F00E94DF0327CF1093EE06812FCA
:102790000E94690883E08093EC061ECF1093EF0639
:1027A000812F0E9469088092EC0616CF1093F006E4
:1027B000812F0E946908A092EC060ECF1092F106BC
:1027C0001093F206812F0E9469084092EC0604CF14
:1027D0008091F1069091F206812B9093F2068093FE
:1027E000F106812F0E9469088091F1069091F2060E
:1027F000893EE3E09E0730F6892B11F488E0CBCFC9
:1028000087E0C9CFE0910107EC3040F481E08E0F02
:1028100080930107F0E0E451F94F1187812F0E9466
:102820006908809104079091050701969093050728
:10283000809304072091F1063091F20682179307E6
:1028400008F4CACE5092EC06C7CE109306076092E9
:10285000EC06C2CE80910607982F812F9093F40644
:102860008093F3067092EC06B7CE1E3709F08ACF3C
:102870002091F3063091F4068091020790910307AE
:102880002817390709F07ECF2090ED063090EE062C
:102890001091F0060E94DF0380E994E00E94DE05BB
:1028A000622D70E090E080E040E10E942F0986E810
:1028B00094E00E94DE05632D70E090E080E040E14E
:1028C0000E942F098FE794E00E94DE056AE070E025
:1028D000812F0E94A60921E022120BC092E0391636
:1028E00061F0E3E03E1278CE0E94160B00931D06C5
:1028F00073CE8FEF281270CEF1CF86E694E00E945F
:10290000DE056AE070E0812F0E94A6098091070130
:10291000882379F011110DC08AE294E00E94DA0850
:102920001092070110921D068DED93E00E94DA08C7
:1029300053CE80911D06823009F04ECE87E494E09C
:102940000E94DA0890914907E7E0F7E080E030E084
:1029500020E04485442359F040814F5F141738F03C
:1029600045815681240F351F8F5F148691503D9607
:10297000EE16FF0671F790934907882309F42CCED1
:1029800040911E0650911F06840F952F911D909324
:102990001F0680931E068091220690912306A09127
:1029A0002406B0912506820F931FA11DB11D8093AF
:1029B000220690932306A0932406B09325068091C7
:1029C0004C078F5F90914A07212F291B281710F47D
:1029D00010934A07B0921D06FFCD8091070188230E
:1029E00019F00E94B9091DCD0E94160B1ACD8091D5
:1029F0001D02811116CD10E000E030E020E040E043
:102A000065E080912F060E94EA07182F81112DC0E2
:102A100085E595E00E94DA08B0921D021092260228
:102A20001092070110921C0210921E0210921F02B7
:102A30001092200210922102109218021092190294
:102A400010921A0210921B0210922202109223027C
:102A5000109224021092250210921D060E947708FF
:102A60008CEF95E00E94DA08DCCC8DE895E00E94BE
:102A7000DA0884E795E00E94DE05612F70E090E0BF
:102A800080E04AE00E942F098CE291E00E94CD088C
:102A9000C3CF80912602882331F110922602109232
:102AA000070110921C021092270210921E0210922F
:102AB0001F0210922002109221021092180210920E
:102AC000190210921A0210921B0210922202109206
:102AD000230210922402109225020E9477088BEBA9
:102AE00095E00E94DA0810921D069BCC88E391E0E5
:102AF00059CD88EB94E00E94DA08E8CD8EE191E0B0
:102B00009093CE068093CD0680919401909195018B
:102B10008D5C964071F4E091E006F091E1069081C1
:102B20008091E2068095892380831092950110920E
:102B300094010895B0E0A0E0E0EAF5E10C945617A6
:102B40005C016B017A016115710519F0FB0191833C
:102B50008083E114F10449F0C7010297839728F0BC
:102B600060E070E0CB019CC05E01E5012196F501BB
:102B70001081812F90E00E94A316892BA9F71D32A6
:102B800009F056C02196F501118101E0E114F1042C
:102B900009F4AEC0F0E1EF16F10409F08EC0103375
:102BA00041F488818F7D883509F083C01981229690
:102BB0000260E0E1EE2EF12C88248A94982CA82C57
:102BC000FFE0BF2E20E060E070E0CB0127010F2C7A
:102BD000000C66087708FE0150ED352E310E39E005
:102BE000331538F43FEB310F3A31A0F549EC342E70
:102BF000310E3E141F04BCF52F3FB9F08616970620
:102C0000A806B90670F1A30192010E94F916232DBE
:102C100030E050E040E0620F731F841F951F621781
:102C2000730784079507E8F021E021961081D3CF40
:102C30001B3221F4E5012296F501118100E0A6CFB7
:102C400078E0E72EF12C88248A94982CA82C6FE148
:102C5000B62EB8CF3FE9310F3A3128F439EA332E96
:102C6000C7CF2FEFE2CFC114D10431F02223E9F016
:102C70002197F601D183C08300FF07C0909580950E
:102C8000709561957F4F8F4F9F4F2F3F49F482E2A0
:102C900090E09093500780934F076FEF7FEFCB0149
:102CA000CDB7DEB7E1E10C94721701FFE5CF2297B3
:102CB000E0CF10E3E114F10419F23AE0E316F10475
:102CC000E9F080E1E816F10409F473CFE8E0EE16CC
:102CD000F10409F4B8CF6FEF7FEFCB0197010F2C10
:102CE000000C440B550B0E94091749015A016ACF89
:102CF000103309F456CF9AE0E92EF12C89E9882E99
:102D0000982CA82C89E1B82E5DCFFC018827992743
:102D1000E89421912032E9F3293010F02E30C8F3E5
:102D20002B3241F02D3239F4689404C00E94D81639
:102D3000820F911D219120532A30C0F31EF49095EB
:102D400081959F4F089591110C94E016803219F0EF
:102D500089508550C8F708954DE457E00E94B11698
:102D60000895FA01A191B081009719F41097E1F04C
:102D7000CD01DC01CD010D90002011F4C00113C084
:102D8000FB012191222319F02015D9F7F3CFFB0184
:102D90002191201519F41E92119606C02223C1F725
:102DA0000D900020A1F7D001FA01A193B0830895FE
:102DB0007AE0979F902D879F802D910D1124089583
:102DC000992788270895F999FECF92BD81BDF89A79
:102DD000992780B50895262FF999FECF1FBA92BD85
:102DE00081BD20BD0FB6F894FA9AF99A0FBE0196EC
:102DF0000895DB018F939F930E944A17BF91AF9173
:102E0000A29F800D911DA39F900DB29F900D112444
:102E10000895A1E21A2EAA1BBB1BFD010DC0AA1F1B
:102E2000BB1FEE1FFF1FA217B307E407F50720F033
:102E3000A21BB30BE40BF50B661F771F881F991FAE
:102E40001A9469F760957095809590959B01AC01F7
:102E5000BD01CF010895052E97FB1EF400940E943A
:102E6000421757FD07D00E94091707FC03D04EF404
:102E70000C94421750954095309521953F4F4F4FF8
:102E80005F4F089590958095709561957F4F8F4F16
:102E90009F4F08950E948C17A59F900DB49F900D91
:102EA000A49F800D911D112408952F923F924F925F
:102EB0005F926F927F928F929F92AF92BF92CF92CA
:102EC000DF92EF92FF920F931F93CF93DF93CDB7D3
:102ED000DEB7CA1BDB0B0FB6F894DEBF0FBECDBF4B
:102EE00009942A88398848885F846E847D848C841C
:102EF0009B84AA84B984C884DF80EE80FD800C8125
:102F00001B81AA81B981CE0FD11D0FB6F894DEBF07
:102F10000FBECDBFED010895A29FB001B39FC001C8
:102F2000A39F700D811D1124911DB29F700D811DF5
:102F30001124911D0895AA1BBB1B51E107C0AA1FB4
:102F4000BB1FA617B70710F0A61BB70B881F991F4A
:102F50005A95A9F780959095BC01CD010895EE0F83
:102F6000FF1F0590F491E02D0994FC0181918617D3
:102F700021F08823D9F7992708953197CF01089533
:102F8000FB01DC018D91019080190110D9F3990B9F
:102F90000895FB01DC014150504030F08D910190CB
:102FA000801919F40020B9F7881B990B089513E0D4
:102FB000C4EBD3E004C0FE010E94AF172196C53BCD
:082FC000D107C9F7F894FFCF17
:102FC800039001D007000001000000009105810472
:102FD800AE04F905DF04BD04D10400000000320688
:102FE8008104C50631068E06A40619060D0A00449A
:102FF80041544100302D3100322B00534554424199
:1030080055440053544152540020005B454E445DE2
:023018000000B6
:00000001FF
