:020000040000FA
:100000000C9461020C9489020C9489020C9451099D
:100010000C9451090C9451090C9489020C94890296
:100020000C9489020C9489020C9489020C94890224
:100030000C9489020C9489020C9489020C94890214
:100040000C94AF080C9489020C941F090C94F908C5
:100050000C9489020C9489020C9489020C948902F4
:100060000C9489020C9489025B554E4F2041434BFE
:10007000204552524F5220434F4449465D2045731C
:100080007461646F3A005B554E4F2041434B2045ED
:100090004E564941444F5D005B554E4F2041434B06
:1000A000204552524F52204649534943415D204E0C
:1000B0006F20736520656E76696F005B554E4F202B
:1000C00041434B20434F444946494341444F5D20FF
:1000D0004C6F6E673A005B554E4F2041434B2053A7
:1000E000454E445D2061636B3D005B4552524F526B
:1000F0005D204E6F207365207075646F20656E768D
:10010000696172204E41434B20706F7220636170B1
:1001100061206669736963612E005B4552524F52DC
:100120005D204E6F207365207075646F20636F646F
:10013000696669636172204E41434B2E005B4E41FC
:10014000434B5D20456E766961646F206E61636B21
:100150003D005B554E4F2054585D204573637269D6
:100160007475726120636F6D706C65746164610099
:100170005B554E4F205458204552524F525D2046F9
:10018000616C6C6F20656E2062797465200020625E
:1001900079746573005B554E4F2054585D2045734C
:1001A0006372696269656E646F20003D3D3D3D3D4F
:1001B0003D3D3D3D3D3D3D3D3D3D3D3D3D3D3D3D6F
:1001C0003D3D3D3D3D3D3D3D3D0A005B535441526B
:1001D0005455505D204573706572616E646F206880
:1001E000616E647368616B652064656C204E616E3E
:1001F0006F2E2E2E005B535441525455505D2053A8
:100200006F66747761726553657269616C206261B3
:100210007564726174653A2034383030202866691C
:100220006A6F29005B535441525455505D20536509
:100230007269616C2028555342292062617564728D
:100240006174653A20000A0A3D3D3D204152445503
:10025000494E4F20554E4F20494E494349414E4447
:100260004F203D3D3D005B494E464F5D2052656944
:100270006E696369616E646F2E2E2E005B4F4B5D5D
:100280002042617564726174652063616D626961A9
:10029000646F206120005B4552524F525D204261E5
:1002A00075647261746520696E76C3A16C69646F50
:1002B000005B4552524F525D20466F726D61746F04
:1002C00020696E76C3A16C69646F2E205573653A00
:1002D00020534554424155443A62617564726174D9
:1002E00065005B5452414E534D495349C3934E20D0
:1002F00046494E414C495A4144415D005D20005BF6
:1003000046494C453A0020726563696269646F2C06
:100310002062797465733D005B4441544F535D2006
:100320004672616D6520005B554E4F204853205248
:10033000454348415A41444F5D2045737461646FA1
:100340003A005B554E4F20485320454E56494F20AA
:1003500041434B5D2061636B3D3000204672616D0F
:1003600065733A005B554E4F204853204D4554412C
:100370005D20427974657320746F74616C65733AA3
:10038000005B554E4F204853204F4B5D2050726FFD
:10039000636573616E646F2068616E647368616B1E
:1003A000652E2E2E002045737461646F3A00204C38
:1003B0006F6E673A005B554E4F20485320524543BD
:1003C000494249444F5D204469723A3078005B529B
:1003D000454348415A4F5D2044697265636369C370
:1003E000B36E206E6F20636F696E63696465005B36
:1003F0004552524F525D205472616D6120696E7694
:10040000C3A16C696461005B4552524F525D204547
:1004100072726F7220697272656375706572616263
:100420006C652048616D6D696E6700207C204279A3
:1004300074657320726563696269646F733A000A58
:100440005B45535441444F20554E4F5D204C6F6FD8
:10045000702061637469766F207C204573746164D9
:100460006F3A0000000008000201000003040700CA
:10047000000000000000000000000023002600290A
:100480000000000000240027002A000000000025D2
:100490000028002B000404040404040404020202E3
:1004A00002020203030303030301020408102040B5
:1004B0008001020408102001020408102000150A1F
:1004C0007A1111241FBECFEFD8E0DEBFCDBF11E0FF
:1004D000A0E0B1E0E8EBF8E202C005900D92A6338F
:1004E000B107D9F726E0A6E3B1E001C01D92A1361D
:1004F000B207E1F712E0C0E6D2E004C02197FE01A6
:100500000E943712CF35D107C9F70E94040B0C9413
:100510004F140C940000E1E6F2E010821182128286
:1005200013821482168215821086178283E792E066
:1005300092878187148613868FEF9FEF9687858732
:10054000108A1786118A089520916E0230916F02E9
:10055000A9015827CA0128E0AC01880F991F57FF4D
:1005600004C051E2852750E195272150A9F79093C7
:100570006F0280936E0208953FB7F8948091A101B5
:100580009091A201A091A301B091A40126B5A89BCE
:1005900005C02F3F19F00196A11DB11D3FBFBA2F15
:1005A000A92F982F8827BC01CD01620F711D811DD5
:1005B000911D42E0660F771F881F991F4A95D1F75A
:1005C00008958F929F92AF92BF92CF92DF92EF9257
:1005D000FF924B015C010E94BC026B017C010E94F6
:1005E000BC026C197D098E099F09683E7340810524
:1005F0009105A8F321E0821A9108A108B10888EEBC
:10060000C80E83E0D81EE11CF11C81149104A104E2
:10061000B10429F7FF90EF90DF90CF90BF90AF909B
:100620009F908F9008952FB7F89460919D017091DD
:100630009E0180919F019091A0012FBF0895AF92DC
:10064000BF92CF92DF92EF92FF920F931F93CF93BF
:10065000DF936C017B018B01040F151FEB015E0121
:10066000AE18BF08C017D10759F06991D601ED91B6
:10067000FC910190F081E02DC6010995892B79F755
:10068000C501DF91CF911F910F91FF90EF90DF9007
:10069000CF90BF90AF900895FC01538D448D252FCE
:1006A00030E0842F90E0821B930B541710F0CF960C
:1006B000089501970895FC01918D828D981761F03E
:1006C000A28DAE0FBF2FB11D5D968C91928D9F5F55
:1006D0009F73928F90E008958FEF9FEF08950F938F
:1006E0001F930E9413036093AD017093AE0180933A
:1006F000AF019093B00185EA91E00E945B0397FF00
:100700001DC00E9413030091AD011091AE01209114
:10071000AF013091B001601B710B820B930B009104
:10072000A9011091AA012091AB013091AC01601791
:10073000710782079307F8F28FEF9FEF1F910F91D8
:100740000895FC01918D828D981731F0828DE80F0C
:10075000F11D858D90E008958FEF9FEF0895FC01C6
:10076000918D228D892F90E0805C9F4F821B910993
:100770008F739927089585EA91E00E94AF0321E0E5
:10078000892B09F420E0822F089580E090E0892BE6
:1007900029F00E94BB0381110C9400000895FC0114
:1007A000A48DA80FB92FB11DA35ABF4F2C91848DD2
:1007B00090E001968F739927848FA689B7892C932F
:1007C000A089B1898C91837080648C93938D848D82
:1007D000981306C00288F389E02D80818F7D808385
:1007E0000895EF92FF920F931F93CF93DF93EC0145
:1007F00081E0888F9B8D8C8D98131AC0E889F989C8
:10080000808185FF15C09FB7F894EE89FF896083CA
:10081000E889F98980818370806480839FBF81E04B
:1008200090E0DF91CF911F910F91FF90EF9008958D
:10083000F62E0B8D10E00F5F1F4F0F731127E02E68
:100840008C8D8E110CC00FB607FCFACFE889F989A0
:10085000808185FFF5CFCE010E94CF03F1CFEB8DD4
:10086000EC0FFD2FF11DE35AFF4FF0829FB7F89474
:100870000B8FEA89FB8980818062CFCF0F931F9312
:10088000CF93DF938C01D0E0C0E0F801EC0FFD1FA7
:100890006491662341F085EA91E00E94F103892B7F
:1008A00011F02196F2CFCE01DF91CF911F910F91E0
:1008B0000895682F85EA91E00C94F103CF93DF93BC
:1008C000EC01888D8823B9F0AA89BB89E889F98968
:1008D0008C9185FD03C0808186FD0DC00FB607FC9D
:1008E000F7CF8C9185FFF2CF808185FFEDCFCE01D0
:1008F0000E94CF03E9CFDF91CF9108952091780135
:10090000309179012817390771F49091760180911F
:100910007701981741F0E0917601F0E0EA5CFE4F34
:10092000808190E008958FEF9FEF08950895EF92F2
:10093000FF920F931F93CF93DF93DC015C96ED90B2
:10094000FC905D97E114F10479F481E090E0139656
:100950009C938E93129790E080E0DF91CF911F914E
:100960000F91FF90EF9008955196ED91FC91529761
:1009700050968C915097982F90950FB75E962C912A
:100980005E97122F127021FD6095F894208111233B
:1009900019F1282B2083E7012197F1F728E0462F52
:1009A00050E0308160FF1AC0382B3083E701219777
:1009B000F1F7BA0175956795215089F7112381F0F8
:1009C0008081892380830FBF5C968D919C910197D4
:1009D000F1F781E090E0C1CF2923DCCF3923E5CFC7
:1009E0009081892BEFCF20917801309179012817E0
:1009F000390761F4809177012091760190E0805C65
:100A00009F4F821B91098F739927089590E080E092
:100A10000895209178013091790128173907B9F4A8
:100A20009091760180917701981789F0E091760195
:100A3000F0E0EA5CFE4F80812091760130E02F5F8C
:100A40003F4F2F7333272093760190E008958FEF67
:100A50009FEF089590E080E008953F924F925F925B
:100A60006F927F928F929F92AF92BF92CF92DF92BE
:100A7000EF92FF920F931F93CF93DF93782EE8941A
:100A800077F802E010E0612C81E090E0272D30E063
:100A9000E901D595C795D595C795DC2FA901E4E067
:100AA00055954795EA95E1F7342E5901F5E0B5944F
:100AB000A794FA95E1F75A2DD901E6E0B595A795E7
:100AC000EA95E1F7F901F595E795EC27EA25EA279C
:100AD000E0FBEE24E0F8F12CF701EE0FFF1FF3E04E
:100AE00035952795FA95E1F72427A226AA26A0FA9C
:100AF000CC24C0F8D12C9601220F331F220F331FB4
:100B00002E2B4C2747254A274170422B61F5FB01CC
:100B1000608283E0AA0FBB1F8A95E1F7D170AD2BED
:100B200050FB882480F8912C880C991C880C991C07
:100B30008A2A30FA442440F8512CC201880F991FA8
:100B40008829DF91CF911F910F91FF90EF90DF9057
:100B5000CF90BF90AF909F908F907F906F905F905D
:100B60004F903F9008950130110521F482E0FB0180
:100B70008083CFCF41509C0101C0220F4A95EAF7F4
:100B800072266624639401E010E080CF0F931F93D8
:100B9000CF93DF93682F70E0EB01D595C795AB013C
:100BA000559547955595479533E0759567953A95D1
:100BB000E1F7282F217030E0220F331F220F331F5F
:100BC0008B0176E0000F111F7A95E1F7202B9C2F07
:100BD000982791709627292BAC2FA170B0E0E4E004
:100BE000AA0FBB1FEA95E1F7922F9A2BE42FE17031
:100BF000F0E09F01F5E0220F331FFA95E1F7292B72
:100C0000982F942791709627990F922B4C2741701B
:100C1000462788E0489FA0011124892F842BDF916B
:100C2000CF911F910F91089582E492E00E94F30406
:100C300021E002970CF420E0822F0895EF92FF92BA
:100C40000F931F93CF93DF93DC01FA0181E090E0D3
:100C5000918380838EE7EB018883808191819C0161
:100C60002F5F3F4F318320832C91860F971FEC011C
:100C70002883808191819C012F5F3F4F31832083A6
:100C800011962C911197860F971FEC012883808174
:100C900091819C012F5F3F4F3183208312962C91CD
:100CA0001297860F971FEC012883808191819C0108
:100CB0002F5F3F4F3183208313962C911397860F1C
:100CC000971FEC01288315962C91159780819181AF
:100CD000AC014F5F5F4F51834083860F971FEC013C
:100CE000288314962C91149780819181AC014F5FD9
:100CF0005F4F51834083860F971FEC012883CD01FE
:100D00009C012A1B3B0BC081D181AE014F5F5F4F1D
:100D10007E01E60EF71E019614960D911C91159713
:100D20002017310738F451834083EC012D81E7010E
:100D30002883E6CFDB0111968FEF9FEFAE15BF053D
:100D400079F02D91922728E08C01880F991F17FFC9
:100D500004C0D1E28D27D0E19D272150A9F7EECF25
:100D6000518340839C9320813181A9014F5F5F4F64
:100D700051834083260F371FD9018C938081918145
:100D80009C012F5F3F4F31832083680F791F8EE7CF
:100D9000EB01888380E0DF91CF911F910F91FF904D
:100DA000EF9008958F929F92AF92BF920F931F93EF
:100DB000CF93DF93CDB7DEB7A1970FB6F894DEBF20
:100DC0000FBECDBF19A2423008F44AE08E010F5D7C
:100DD0001F4F842E912CB12CA12CA50194010E94AF
:100DE0001512E62FB901CA01EA3044F5E05DD801D9
:100DF000EE938D01232B242B252B79F790E080E0B7
:100E0000109769F0FD0101900020E9F73197AF01DB
:100E10004A1B5B0BBD0185EA91E00E941F03A1966E
:100E20000FB6F894DEBF0FBECDBFDF91CF911F91FB
:100E30000F91BF90AF909F908F900895E95CD7CFAE
:100E400042E050E06AE271E085EA91E00C941F0311
:100E5000CF93DF930E943E04EC010E9420078C0F89
:100E60009D1FDF91CF910895CF93DF93BC0190E058
:100E700080E04AE00E94D206EC010E9420078C0F1D
:100E80009D1FDF91CF910895CF92DF92EF92FF9255
:100E90000F931F93CF93DF93D82FC92F7B0185E941
:100EA00091E00E943E04B70190E080E04AE00E9499
:100EB000D2068EE891E00E9428070D2F1C2FD0E06B
:100EC000C0E0CE15DF0579F1F801D1908F018D2DAD
:100ED00082958F700E94C605C82E8D2D8F700E943E
:100EE000C605D82E6C2D82E492E00E9497040197EB
:100EF00049F46D2D82E492E00E949704019711F469
:100F00002196DFCF80E791E00E943E04CE010E944F
:100F1000340780E0DF91CF911F910F91FF90EF9008
:100F2000DF90CF90089582E591E00E94280781E04C
:100F3000F1CFCF93DF93BC01990F880B990B4AE057
:100F40000E94D206EC010E9420078C0F9D1FDF91AA
:100F5000CF9108951F93CF93DF93CDB7DEB7C459D8
:100F6000D1090FB6F894DEBF0FBECDBF182F81E0B8
:100F70002C968FAF2C9783E02D968FAF2D972E96C2
:100F80001FAE2E972F961FAF2F9761961FAE1EAEE6
:100F90006197CF56DF4F19821882C159D040CD5684
:100FA000DF4F19821882C359D040AE014D565F4FB2
:100FB000BE016F5F7F4FCE01855B9F4F0E941E0673
:100FC000811129C0CD56DF4F68817981C359D04046
:100FD000CE0101960E944407811105C08AEE90E07F
:100FE0000E9428070DC08DE391E00E943E04612F0E
:100FF00070E090E080E04AE00E94D2060E94200764
:10100000CC56DF4F0FB6F894DEBF0FBECDBFDF91D9
:10101000CF911F9108958AE191E0E2CF1F93CF9382
:10102000DF93CDB7DEB7C459D1090FB6F894DEBF50
:101030000FBECDBF182F86ED90E00E943E04612FB9
:1010400070E090E080E04AE00E94D2060E94200713
:1010500081E02C968FAF2C9782E02D968FAF2D9745
:101060002E961FAE2E972F961FAF2F9761961FAE0D
:101070001EAE6197CF56DF4F19821882C159D040FA
:10108000CD56DF4F19821882C359D040AE014D565C
:101090005F4FBE016F5F7F4FCE01855B9F4F0E9408
:1010A0001E06182F81112AC08BEB90E00E943E048F
:1010B000CD56DF4F88819981C359D0400E943407B3
:1010C000CD56DF4F68817981C359D040CE0101965A
:1010D0000E94440781110FC088E990E00E94280710
:1010E000CC56DF4F0FB6F894DEBF0FBECDBFDF91F9
:1010F000CF911F91089586E890E0F0CF88E690E0C8
:101100000E943E04812F90E00E949907E9CF0F933F
:101110001F93CF93DF93EC0188819981009759F059
:101120002A813B812617370730F081E0DF91CF918C
:101130001F910F9108958B016F5F7F4F0E9469137C
:10114000009759F0998388831B830A832C813D8102
:10115000232B59F7FC011082E8CF80E0E7CF1F92E4
:101160000F920FB60F9211242F933F938F939F935B
:10117000AF93BF9380919D0190919E01A0919F019B
:10118000B091A00130919C0123E0230F2D3758F539
:101190000196A11DB11D20939C0180939D01909308
:1011A0009E01A0939F01B093A0018091A101909115
:1011B000A201A091A301B091A4010196A11DB11DAE
:1011C0008093A1019093A201A093A301B093A401E5
:1011D000BF91AF919F918F913F912F910F900FBE33
:1011E0000F901F90189526E8230F0296A11DB11DA0
:1011F000D2CF1F920F920FB60F9211242F933F93CD
:101200004F935F936F937F938F939F93AF93BF930E
:10121000EF93FF9385EA91E00E94CF03FF91EF9156
:10122000BF91AF919F918F917F916F915F914F91FE
:101230003F912F910F900FBE0F901F9018951F9206
:101240000F920FB60F9211242F938F939F93EF93CA
:10125000FF93E091B501F091B6018081E091BB016F
:10126000F091BC0182FD1BC090818091BE018F5F17
:101270008F732091BF01821741F0E091BE01F0E031
:10128000EB55FE4F958F8093BE01FF91EF919F919B
:101290008F912F910F900FBE0F901F901895808106
:1012A000F4CF1F920F920FB60F9211242F933F93FA
:1012B0004F935F936F937F938F939F93AF93BF935E
:1012C000EF93FF93E0917801F0917901309749F025
:1012D000A685B7858585968D91FF14C09C9189233D
:1012E000A1F4FF91EF91BF91AF919F918F917F9169
:1012F0006F915F914F913F912F910F900FBE0F9083
:101300001F9018959C91892361F7A389B4899C91BA
:101310008589809589238C93868997890197F1F730
:10132000608D718DA685B785558538E020E0CB01AD
:101330000197F1F7822F90E095958795282F4C9192
:10134000452309F02068315091F7868D81FD209565
:101350008091770190E001968F7399273091760103
:10136000381799F0A0917701B0E0AA5CBE4F2C939A
:1013700080937701828D938D0197F1F7A389B489CA
:101380008C919589892B8C93ACCF868D8160868FCB
:10139000F1CF90E0FC01ED59FB4F2491FC01E755A2
:1013A000FB4F3491FC01EB56FB4FE491EE23C9F067
:1013B000222339F0233001F1A8F4213019F1223031
:1013C00029F1F0E0EE0FFF1FE557FB4FA591B49117
:1013D0008FB7F894EC91611126C030953E233C9371
:1013E0008FBF08952730A9F02830C9F0243049F77D
:1013F000809180008F7D03C0809180008F778093E3
:101400008000DFCF84B58F7784BDDBCF84B58F7D3F
:10141000FBCF8091B0008F778093B000D2CF8091C6
:10142000B0008F7DF9CF3E2BDACF0F931F93CF9370
:10143000DF931092A8011092A70188EE93E0A0E03C
:10144000B0E08093A9019093AA01A093AB01B0935F
:10145000AC012AE031E03093A6012093A50125ECF0
:1014600030E03093B2012093B10124EC30E03093AE
:10147000B4012093B30120EC30E03093B601209307
:10148000B50121EC30E03093B8012093B70122EC94
:1014900030E03093BA012093B90126EC30E030936C
:1014A000BC012093BB011092BE011092BF011092AB
:1014B000C0011092C1011092450210924402809323
:1014C000460290934702A0934802B09349028CE1F0
:1014D00091E090934302809342021092590210923D
:1014E000580210925B0210925A0210925D02109202
:1014F0005C0210925F0210925E02609160026E7F49
:101500006D7F609360026695617081E068278AE074
:101510000E94C90943EB54E0FA0164918FE994E019
:10152000FC012491222399F030E0220F331FF901AE
:10153000EF57FB4FA591B491F901E557FB4F25916A
:1015400034912FB7F8943C91632B6C932FBFFA0121
:10155000449140935202FC018491E82FF0E0EE0F99
:10156000FF1FE557FB4F8591949190935402809310
:10157000530204EB14E0F8012491C0EAD4E0FE0128
:1015800084918823C9F090E0880F991FFC01EF57E0
:10159000FB4FA591B491FC01E557FB4F4591549148
:1015A0003FB7F8949C91822F809598239C93FA01E1
:1015B0009081892380833FBF8091600281FD04C0B8
:1015C00061E08BE00E94C9098BE080934E02F80134
:1015D000049100934F02FE01C491EC2FF0E0EE0F56
:1015E000FF1FE958FB4F859194919093510280938E
:1015F000500210925B0684E080935C06DF91CF91ED
:101600001F910F910C948B02CF93DF93CDB7DEB770
:101610002C970FB6F894DEBF0FBECDBF789484B57B
:10162000826084BD84B5816084BD85B5826085BDDE
:1016300085B5816085BD80916E00816080936E006C
:10164000109281008091810082608093810080915E
:10165000810081608093810080918000816080930F
:1016600080008091B10084608093B1008091B000CF
:1016700081608093B00080917A00846080937A00CA
:1016800080917A00826080937A0080917A008160F4
:1016900080937A0080917A00806880937A0010921B
:1016A000C10090E080E00E94C811082F81E090E026
:1016B0000E94C811102F082F0F3F100711F400ECE3
:1016C00012E1C80101978E3F9F4F10F000EC12E12C
:1016D0006801F12CE12C60E079E08DE390E0A70156
:1016E00098010E941512215031094109510956955E
:1016F000479537952795E091B501F091B60182E0C5
:1017000080830115F1EE1F0721F0211580E13807D4
:10171000A8F0E091B501F091B601108260E874E89C
:101720008EE190E0A70196010E9415122150310927
:10173000410951095695479537952795E091B10193
:10174000F091B2013083E091B301F091B4012083B4
:101750001092BD01E091B901F091BA0186E0808359
:10176000E091B701F091B801808180618083E091C0
:10177000B701F091B801808188608083E091B70162
:10178000F091B801808180688083E091B701F09189
:10179000B80180818F7D808368EE73E080E090E007
:1017A0000E94E10285EA91E00E945E0485EA91E0F0
:1017B0000E94AF03892B29F085EA91E00E945B0328
:1017C000F5CF64EF71E080E090E00E94E10286E4F2
:1017D00092E00E94280784E292E00E943E04C80141
:1017E0000E94340710925D0210925C0210925B021C
:1017F00010925A0210925902109258028EE393E00E
:1018000090935F0280935E0290914E02963108F0B1
:1018100047C02DE831E030935902209358022CE361
:1018200033E030935B0220935A0224E632E0309397
:101830005D0220935C022091680084E0983048F0BB
:1018400031E09E3008F430E081E001C0880F3A9525
:10185000EAF7822B809368002DE630E0983050F054
:101860002BE630E09E3030F02CE630E0963110F080
:1018700030E020E03093560220935502292F30E0CB
:10188000983008F0E6C081E001C0880F9A95EAF729
:101890008093570280915E0290915F020197F1F769
:1018A00080915C0290915D02892B49F1E091780171
:1018B000F091790192E0E234F90709F1309739F0BB
:1018C000A389B4899C918589809589238C93809183
:1018D00060028E7F809360021092770110927601F1
:1018E00082E492E09093790180937801E09155022F
:1018F000F0915602808190915702892B808364EF8A
:1019000071E080E090E00E94E10285EF91E00E94AA
:1019100028078BEC91E00E9428078BEA91E00E9457
:10192000280768EE73E080E090E00E94E1020E94E8
:1019300013036093940170939501809396019093A3
:1019400097011092860183E7682E82E0782EAA2400
:10195000AA94BA2C0E941303009198011091990146
:1019600020919A0130919B01601B710B820B930BAC
:10197000693873418105910538F10E941303609322
:1019800098017093990180939A0190939B018FE342
:1019900094E00E943E046091860170E090E080E057
:1019A0004AE00E94D2068BE294E00E943E046091DD
:1019B0008B0170918C0180918D0190918E014AE094
:1019C0000E94D2060E94200785EA91E00E94AF03A0
:1019D000892B09F4B0C018861F821A8619861C86C6
:1019E0001B8670E060E0CE0107960E9487082F8179
:1019F000388581113BC02115310519F0C9010E94BC
:101A0000E01218861F821C861B861A8619860E9481
:101A10006F030B851C8597FD31C08A30910571F1EC
:101A200089831A820F5F1F4FB801CE0107960E946B
:101A30008708882361F32F8138858B859C85BE01BB
:101A40006F5F7F4F820F931F0E943A141C870B8792
:101A5000DECF9E3040F42850310981E001C0880F6C
:101A60002A95EAF715CF2E503109F7CF1C861B8631
:101A70006CE271E0C9010E943A14C9CFCF80D884CA
:101A8000C114D10429F076010115110509F0A0C097
:101A90008B859C85892B09F448C01A8219821C8287
:101AA0001B821E821D8268E070E0CE0101960E94BA
:101AB000870829813A818111C1C02115310519F0AA
:101AC000C9010E94E0121A8219821E821D821C82A4
:101AD0001B824D815E8109811A818B859C858417CB
:101AE000950708F402C48F819885009709F4FDC317
:101AF00001151105D1F0B8010E944114FF24F3949F
:101B0000892B09F0F12CC8010E94E012FF2069F036
:101B10006AE370E08F8198850E942F14009709F086
:101B200097C081EB92E00E9428078F8198850097EB
:101B300011F00E94E0120E941406882309F44AC39F
:101B40000E941406882309F445C31F82198282E487
:101B500092E00E940905BE01695F7F4F0E942D053A
:101B6000082F82E492E00E940905BE016F5F7F4F5B
:101B70000E942D059F81923009F411C39981923002
:101B800009F40DC3F0E10F9F80011124182F102BD1
:101B90000E941303609382017093830180938401F8
:101BA00090938501E0916102EB3008F0B9C0F0E05C
:101BB000E452F24F0C9437125A0E830E8C0EB70E6D
:101BC000C00EC90ED20EED0E160F1A0F240F74019F
:101BD0004701FFEF8F1A9F0AF7018081082E000C42
:101BE000990B0E94BC11892B91F7015011090C0D22
:101BF0001D1DF8018081082E000C990B0E94BC115C
:101C0000892B31F00E151F0518F001501109F1CF85
:101C10000F5F1F4FA8014E195F095C874B87CE14D9
:101C2000DF0420F4B701C6010E942614EF81F88575
:101C30008B859C85E80FF91F10822ACF88E090E001
:101C40009E838D836DE271E0C9010E943A1441CFF9
:101C500001960E949611F82E082F192F01151105D3
:101C600019F486E992E05FCF692F90E080E00E944E
:101C7000D0116F2D81E090E00E94D0118CE792E0AE
:101C80000E943E04C8010E94340786E692E00E944A
:101C9000280764E670E080E090E00E94E10288E1BD
:101CA00098E00FB6F894A895809360000FBE9093CB
:101CB0006000FFCF1E3709F03ECF109262021092F3
:101CC00063021092640210926502109267021092F1
:101CD0006602109269021092680270926B02609222
:101CE0006A0210926D0210926C02B0926F02A09282
:101CF0006E0210927102109270021092720221E034
:101D00002093610218CF10936202812F0E94A402D7
:101D100082E0809361020FCF8FEF810F8630F0F069
:101D20000E948B028FEE93E00E94280780917E0133
:101D300090917F01A0918001B09181010196A11D38
:101D4000B11D80937E0190937F01A0938001B09399
:101D5000810180915B060E94AA07EDCE1093630279
:101D6000812F0E94A40293E090936102E4CE10932D
:101D70006402812F0E94A402E4E0E0936102DBCEC2
:101D800010936502812F0E94A402F5E0F093610296
:101D9000D2CE1092660210936702812F0E94A40295
:101DA00026E0AECF8091660290916702812B9093DE
:101DB000670280936602812F0E94A40280916602CE
:101DC00090916702893EE3E09E0708F0A9CF892B36
:101DD00011F488E09ECF87E09CCF80916C029091B7
:101DE0006D02883EF3E09F0758F49C012F5F3F4F40
:101DF00030936D0220936C028F599D4FFC01128B22
:101E0000812F0E94A402809170029091710201962C
:101E10009093710280937002209166023091670264
:101E20008217930708F487CEF8E0B0CF10937202C0
:101E300029E066CF80917202982F812F90936902DA
:101E4000809368028AE065CF1E3709F069CF209140
:101E500068023091690280916E0290916F0228179A
:101E6000390709F05DCF9090620280906302209064
:101E70006402C0906602D090670200916A021091DD
:101E80006B02E0906C02F0906D020E948B028091D8
:101E90007A0190917B01A0917C01B0917D01019626
:101EA000A11DB11D80937A0190937B01A0937C01C9
:101EB000B0937D0182E0981287C0E4E08E1609F4A9
:101EC000AAC0E81508F489C0F1E08F1234CE8091E1
:101ED0008601813009F02FCE80915B06922D981BF0
:101EE00020915C06921708F02DC120918701309156
:101EF00088012F5F3F4F30938801209387014091E5
:101F00008B0150918C0160918D0170918E014C0D6F
:101F10005D1D611D711D40938B0150938C01609379
:101F20008D0170938E01281204C081E0820D809390
:101F30005B0688E193E00E943E04312C512C412C39
:101F40004AE0C201B1010E94D20686E093E00E94FD
:101F50003E04C6010E9434078FEF92E00E943E04C7
:101F60004AE0C201B1010E94D2068AE30E945904EC
:101F7000B70190E080E04AE00E94D2068CEF92E048
:101F80000E943E04D12CC12CCE14DF0409F4F5C00C
:101F9000C114D10419F080E20E9459044801F801EB
:101FA0008081803118F480E30E9459040F5F1F4F35
:101FB000F401608170E090E080E040E10E94D20690
:101FC000FFEFCF1ADF0AE0CF9FEF991609F475CF24
:101FD0008EEC93E00E942807AECD25E0821609F42E
:101FE000D1C086E08812A7CD83E0809386018091DE
:101FF0007E0190917F01A0918001B09181010196B5
:10200000A11DB11D80937E0190937F01A09380015B
:10201000B093810190CD85EB93E00E943E04692D41
:1020200070E090E080E040E10E94D2068EEA93E00A
:102030000E943E04B60190E080E04AE00E94D20691
:1020400085EA93E00E943E048091860190E00E9420
:102050009907F0908601F11087C081E893E00E9413
:10206000280791E0909386011092880110928701D1
:1020700010928B0110928C0110928D0110928E01A2
:10208000EAE0CE16D10408F462C0F80160817181E3
:10209000828193810E943D1260938F017093900121
:1020A000809391019093920184819581982789274B
:1020B000982790938A01809389018085882309F469
:1020C00044C0863008F085E080935C0610925B0681
:1020D000109293010E9413036093940170939501F1
:1020E000809396019093970110927A0110927B0150
:1020F00010927C0110927D0110927E0110927F015E
:10210000109280011092810184E693E00E943E04C7
:1021100060918F0170919001809191019091920155
:102120004AE00E94D2068BE593E00E943E04809133
:10213000890190918A010E94340782E493E00E9411
:10214000280780E00E940E08F6CC81E0BDCF1092F7
:102150008A011092890110928F01109290011092C1
:10216000910110929201B2CF87E293E00E943E0467
:102170008F2D90E00E949907DECC0E94200780916D
:102180005B06E0CF80918601813009F0D4CC22E05B
:102190002093860182EE92E00E942807F0CF87E02C
:1021A00094E00E94280780917E0190917F01A09188
:1021B0008001B09181010196A11DB11D80937E0126
:1021C00090937F01A0938001B093810180915B0681
:1021D0000E94AA07809186018130A1F50E94130315
:1021E0000091820110918301209184013091850139
:1021F000601B710B820B930B69387341810591054C
:1022000008F466C080917E0190917F01A0918001C9
:10221000B09181010196A11DB11D80937E01909323
:102220007F01A0938001B093810183E080938601B8
:102230000E94130360938201709383018093840151
:1022400090938501809186018250823008F040C0D1
:1022500064E670E080E090E00E94E1021092860166
:10226000109288011092870110928A0110928901C0
:1022700010928B0110928C0110928D0110928E01A0
:1022800010928F0110929001109291011092920180
:10229000109293010E94130360939401709395012F
:1022A000809396019093970110927A0110927B018E
:1022B00010927C0110927D0110927E0110927F019C
:1022C000109280011092810110925B060E948B0295
:1022D00080E090E0892B09F43DCB0E94BB0388236A
:1022E00009F438CB0E94000035CB0115110509F423
:1022F0001CCC08CC8CE191E0909343028093420285
:1023000080917801909179018254924071F4E0912A
:102310005502F09156029081809157028095892351
:10232000808310927901109278010895FC0188272A
:102330009927E89421912032E9F3293010F02E30CA
:10234000C8F32B3241F02D3239F4689404C00E9456
:10235000B411820F911D219120532A30C0F31EF435
:10236000909581959F4F08957AE0979F902D879F34
:10237000802D910D1124089591110C94C511803276
:1023800019F089508550C8F708959927882708952E
:10239000F999FECF92BD81BDF89A992780B508952D
:1023A000262FF999FECF1FBA92BD81BD20BD0FB671
:1023B000F894FA9AF99A0FBE019608952F923F92D7
:1023C0004F925F926F927F928F929F92AF92BF9245
:1023D000CF92DF92EF92FF920F931F93CF93DF93F1
:1023E000CDB7DEB7CA1BDB0B0FB6F894DEBF0FBE4E
:1023F000CDBF09942A88398848885F846E847D849B
:102400008C849B84AA84B984C884DF80EE80FD809C
:102410000C811B81AA81B981CE0FD11D0FB6F89412
:10242000DEBF0FBECDBFED010895A1E21A2EAA1B9B
:10243000BB1BFD010DC0AA1FBB1FEE1FFF1FA21774
:10244000B307E407F50720F0A21BB30BE40BF50B71
:10245000661F771F881F991F1A9469F760957095FA
:10246000809590959B01AC01BD01CF010895EE0FC1
:10247000FF1F0590F491E02D09946927962769279D
:1024800078278727782708950F931F93CF93DF939B
:102490008230910510F482E090E0E0915F06F091C7
:1024A000600630E020E0B0E0A0E0309799F421151C
:1024B000310509F44AC0281B390B24303105D8F501
:1024C0008A819B816115710589F1FB019383828368
:1024D000FE0111C0408151810281138148175907C3
:1024E000E0F04817590799F4109761F012960C9391
:1024F000129713961C933296CF01DF91CF911F91C3
:102500000F91089500935F0610936006F4CF211594
:10251000310551F04217530738F0A901DB019A0148
:10252000BD01DF01F801C1CFEF01F9CF9093600643
:1025300080935F06CDCFFE01E20FF31F819391934D
:102540002250310939832883D7CF20915D063091FD
:102550005E06232B41F42091020130910301309358
:102560005E0620935D062091000130910101211546
:10257000310541F42DB73EB740910401509105015A
:10258000241B350BE0915D06F0915E06E217F30720
:10259000A0F42E1B3F0B2817390778F0AC014E5FD3
:1025A0005F4F2417350748F04E0F5F1F50935E06AC
:1025B00040935D06819391939FCFF0E0E0E09CCF44
:1025C000CF93DF930097E9F0FC01329713821282D8
:1025D000A0915F06B0916006ED0130E020E0109719
:1025E000A1F420813181820F931F20915D063091EB
:1025F0005E062817390709F061C0F0935E06E09384
:102600005D06DF91CF910895EA01CE17DF07E8F567
:102610004A815B819E0141155105B1F7E901FB83B8
:10262000EA8349915991C40FD51FEC17FD0761F456
:10263000808191810296840F951FE9019983888397
:10264000828193819B838A83F0E0E0E012968D91F2
:102650009C9113970097B9F52D913C911197CD015D
:102660000296820F931F20915D0630915E06281717
:10267000390739F6309751F51092600610925F06CF
:10268000B0935E06A0935D06BCCFD383C283408126
:102690005181840F951FC817D90761F44E5F5F4FB2
:1026A00088819981480F591F518340838A819B817A
:1026B000938382832115310509F0B0CFF093600632
:1026C000E0935F069ECFFD01DC01C0CF1382128232
:1026D000D7CFB0E0A0E0EFE6F3E10C94E0118C017D
:1026E000009751F4CB010E9444128C01C801CDB770
:1026F000DEB7E0E10C94FC11FC01E60FF71F9C0132
:1027000022503109E217F30708F49DC0D901CD9199
:10271000DC911197C617D70798F0C530D10530F373
:10272000CE0104978617970708F3C61BD70B22978D
:10273000C193D1936D937C93CF010E94E012D6CFC9
:102740005B01AC1ABD0A4C018C0E9D1EA0915F0668
:10275000B0916006512C412CF12CE12C109731F5F1
:1027600080915D0690915E068815990509F05CC020
:102770004616570608F058C080910001909101015B
:10278000009741F48DB79EB7409104015091050127
:10279000841B950BE817F90708F055C0F0935E0607
:1027A000E0935D06F90171836083A0CF8D919C91C8
:1027B000119712966C90129713967C901397A81508
:1027C000B90559F56C0142E0C40ED11CCA14DB04F2
:1027D00020F1AC014A195B09DA011296159780F0D5
:1027E0006282738251834083D9016D937C93E1149B
:1027F000F10471F0D7011396FC93EE93129776CF04
:1028000022968C0F9D1FF90191838083F301EFCFF6
:10281000F0936006E0935F0669CF4816590608F406
:102820002C017D01D3019ACFCB010E9444127C017F
:10283000009749F0AE01B8010E942614C8010E9419
:10284000E012870153CF10E000E050CFFB01DC0124
:1028500002C001900D9241505040D8F70895FC01FC
:102860008191861721F08823D9F799270895319708
:10287000CF010895FB01DC0101900D920020E1F7EA
:102880000895FB01DC014150504030F08D910190E2
:10289000801919F40020B9F7881B990B089512E0EC
:1028A000C0E6D2E004C0FE010E9437122196C13674
:1028B000D107C9F7F894FFCF00006106800000003F
:1028C0000000F1031F034C035E04AF035B03A1038D
:1028D0000000000097041F032A059604F30409056D
:0E28E0007E040D0A00534554424155443A000F
:107E0000112484B714BE81FFF0D085E080938100F7
:107E100082E08093C00088E18093C10086E0809377
:107E2000C20080E18093C4008EE0C9D0259A86E02C
:107E300020E33CEF91E0309385002093840096BBD3
:107E4000B09BFECF1D9AA8958150A9F7CC24DD24C4
:107E500088248394B5E0AB2EA1E19A2EF3E0BF2EE7
:107E6000A2D0813461F49FD0082FAFD0023811F036
:107E7000013811F484E001C083E08DD089C08234E0
:107E800011F484E103C0853419F485E0A6D080C0E4
:107E9000853579F488D0E82EFF2485D0082F10E0AE
:107EA000102F00270E291F29000F111F8ED06801E7
:107EB0006FC0863521F484E090D080E0DECF843638
:107EC00009F040C070D06FD0082F6DD080E0C81688
:107ED00080E7D80618F4F601B7BEE895C0E0D1E017
:107EE00062D089930C17E1F7F0E0CF16F0E7DF06D8
:107EF00018F0F601B7BEE89568D007B600FCFDCFD4
:107F0000A601A0E0B1E02C9130E011968C91119780
:107F100090E0982F8827822B932B1296FA010C0160
:107F200087BEE89511244E5F5F4FF1E0A038BF0790
:107F300051F7F601A7BEE89507B600FCFDCF97BE46
:107F4000E89526C08437B1F42ED02DD0F82E2BD052
:107F50003CD0F601EF2C8F010F5F1F4F84911BD097
:107F6000EA94F801C1F70894C11CD11CFA94CF0C13
:107F7000D11C0EC0853739F428D08EE10CD085E9AC
:107F80000AD08FE07ACF813511F488E018D01DD067
:107F900080E101D065CF982F8091C00085FFFCCF94
:107FA0009093C60008958091C00087FFFCCF809118
:107FB000C00084FD01C0A8958091C6000895E0E648
:107FC000F0E098E1908380830895EDDF803219F02E
:107FD00088E0F5DFFFCF84E1DECF1F93182FE3DFCA
:107FE0001150E9F7F2DF1F91089580E0E8DFEE27F6
:047FF000FF270994CA
:027FFE00040479
:00000001FF
