:020000040000FA
:100000000C94D0010C94F8010C94F8010C9499080C
:100010000C9499080C9499080C94F8010C94F8012C
:100020000C94F8010C94F8010C94F8010C94F8016C
:100030000C94F8010C94F8010C94F8010C94F8015C
:100040000C94F7070C94F8010C9467080C94410881
:100050000C94F8010C94F8010C94F8010C94F8013C
:100060000C94F8010C94F8015B4552524F525D20FC
:100070004E6F207365207075646F20656E766961C0
:10008000722041434B20706F722063617061206663
:1000900069736963612E005B4552524F525D204E79
:1000A0006F207365207075646F20636F6469666983
:1000B0006361722041434B2E005B41434B5D204501
:1000C0006E766961646F2061636B3D005B455252DF
:1000D0004F525D204E6F207365207075646F2065F0
:1000E0006E76696172204E41434B20706F722063BF
:1000F000617061206669736963612E005B455252CD
:100100004F525D204E6F207365207075646F2063C1
:100110006F64696669636172204E41434B2E005BD8
:100120004E41434B5D20456E766961646F206E6180
:10013000636B3D005B554E4F2054585D2045736303
:1001400072697475726120636F6D706C657461643F
:1001500061005B554E4F205458204552524F525D1E
:100160002046616C6C6F20656E206279746520009A
:10017000206279746573005B554E4F2054585D20A2
:1001800045736372696269656E646F20005B494EF6
:10019000464F5D205265696E696369616E646F2EBA
:1001A0002E2E005B4F4B5D20426175647261746559
:1001B0002063616D626961646F206120005B45525C
:1001C000524F525D20426175647261746520696EA0
:1001D00076C3A16C69646F005B4552524F525D203B
:1001E000466F726D61746F20696E76C3A16C69642D
:1001F0006F2E205573653A20534554424155443A79
:100200006261756472617465005B5452414E534D76
:10021000495349C3934E2046494E414C495A4144A3
:10022000415D005D20005B46494C453A0020726507
:1002300063696269646F2C2062797465733D005B49
:100240004441544F535D204672616D6520005B4808
:10025000414E445348414B455D2052656368617A85
:1002600061646F202D2045737461646F3A20005BD8
:1002700048414E445348414B455D20457374616489
:100280006F204F4B2C2070726F636573616E646FCB
:100290002E2E2E005B48414E445348414B455D2075
:1002A000526563696269646F005B52454348415A15
:1002B0004F5D2044697265636369C3B36E206E6FDE
:1002C00020636F696E63696465005B4552524F52EB
:1002D0005D205472616D6120696E76C3A16C6964A2
:1002E00061005B4552524F525D204572726F722021
:1002F00069727265637570657261626C65204861D0
:100300006D6D696E670030002E0073005469656D75
:10031000706F3A2000250054617361204572726F3E
:10032000723A20002F0042797465733A20002F0042
:100330004672616D65733A200045737461646F3A6B
:100340002000000000080002010000030407000074
:10035000000000000000000000002300260029002B
:1003600000000000240027002A00000000002500F3
:1003700028002B0004040404040404040202020202
:100380000202030303030303010204081020408058
:100390000102040810200102040810205D09E11088
:1003A00011241FBECFEFD8E0DEBFCDBF11E0A0E02B
:1003B000B1E0E8EFF7E202C005900D92A234B10778
:1003C000D9F726E0A2E4B1E001C01D92AD36B20734
:1003D000E1F711E0CFECD1E004C02197FE010E94CB
:1003E000D711CE3CD107C9F70E944C0A0C94EF13E9
:1003F0000C940000EDE6F2E010821182128213826A
:10040000148216821582108617828FE792E09287F7
:100410008187148613868FEF9FEF96878587108AD2
:100420001786118A089520917A0230917B02A901E2
:100430005827CA0128E0AC01880F991F57FF04C054
:1004400051E2852750E195272150A9F790937B022F
:1004500080937A0208953FB7F8948091AD0190910E
:10046000AE01A091AF01B091B00126B5A89B05C027
:100470002F3F19F00196A11DB11D3FBFBA2FA92F23
:10048000982F8827BC01CD01620F711D811D911D20
:1004900042E0660F771F881F991F4A95D1F708958C
:1004A0008F929F92AF92BF92CF92DF92EF92FF9284
:1004B0004B015C010E942B026B017C010E942B020C
:1004C0006C197D098E099F09683E7340810591056D
:1004D000A8F321E0821A9108A108B10888EEC80E9D
:1004E00083E0D81EE11CF11C81149104A104B10425
:1004F00029F7FF90EF90DF90CF90BF90AF909F9043
:100500008F9008952FB7F8946091A9017091AA0176
:100510008091AB019091AC012FBF0895AF92BF9233
:10052000CF92DF92EF92FF920F931F93CF93DF93BF
:100530006C017B018B01040F151FEB015E01AE18EE
:10054000BF08C017D10759F06991D601ED91FC9110
:100550000190F081E02DC6010995892B79F7C5013D
:10056000DF91CF911F910F91FF90EF90DF90CF908F
:10057000BF90AF900895FC01538D448D252F30E03E
:10058000842F90E0821B930B541710F0CF960895A0
:1005900001970895FC01918D828D981761F0A28DCD
:1005A000AE0FBF2FB11D5D968C91928D9F5F9F7393
:1005B000928F90E008958FEF9FEF08950F931F9310
:1005C0000E9482026093B9017093BA018093BB01CB
:1005D0009093BC0181EB91E00E94CA0297FF1DC07D
:1005E0000E9482020091B9011091BA012091BB01D1
:1005F0003091BC01601B710B820B930B0091B50114
:100600001091B6012091B7013091B80160177107C0
:1006100082079307F8F28FEF9FEF1F910F910895D4
:10062000FC01918D828D981731F0828DE80FF11DBC
:10063000858D90E008958FEF9FEF0895FC01918DD7
:10064000228D892F90E0805C9F4F821B91098F73D0
:100650009927089581EB91E00E941E0321E0892BE8
:1006600009F420E0822F089580E090E0892B29F0A2
:100670000E942A0381110C9400000895FC01A48DAE
:10068000A80FB92FB11DA35ABF4F2C91848D90E0B4
:1006900001968F739927848FA689B7892C93A08997
:1006A000B1898C91837080648C93938D848D981321
:1006B00006C00288F389E02D80818F7D80830895B4
:1006C000EF92FF920F931F93CF93DF93EC0181E0A2
:1006D000888F9B8D8C8D98131AC0E889F989808149
:1006E00085FF15C09FB7F894EE89FF896083E8897C
:1006F000F98980818370806480839FBF81E090E06E
:10070000DF91CF911F910F91FF90EF900895F62EFA
:100710000B8D10E00F5F1F4F0F731127E02E8C8D94
:100720008E110CC00FB607FCFACFE889F9898081D9
:1007300085FFF5CFCE010E943E03F1CFEB8DEC0F8C
:10074000FD2FF11DE35AFF4FF0829FB7F8940B8FF6
:10075000EA89FB8980818062CFCF0F931F93CF936B
:10076000DF938C01D0E0C0E0F801EC0FFD1F649135
:10077000662341F081EB91E00E946003892B11F028
:100780002196F2CFCE01DF91CF911F910F91089565
:10079000682F81EB91E00C946003CF93DF93EC0121
:1007A000888D8823B9F0AA89BB89E889F9898C9159
:1007B00085FD03C0808186FD0DC00FB607FCF7CF15
:1007C0008C9185FFF2CF808185FFEDCFCE010E9415
:1007D0003E03E9CFDF91CF910895209184013091BC
:1007E00085012817390771F4909182018091830166
:1007F000981741F0E0918201F0E0EE5BFE4F8081BE
:1008000090E008958FEF9FEF08950895EF92FF9283
:100810000F931F93CF93DF93DC015C96ED90FC90D8
:100820005D97E114F10479F481E090E013969C93D4
:100830008E93129790E080E0DF91CF911F910F91FE
:10084000FF90EF9008955196ED91FC91529750963C
:100850008C915097982F90950FB75E962C915E973C
:10086000122F127021FD6095F8942081112319F147
:10087000282B2083E7012197F1F728E0462F50E04D
:10088000308160FF1AC0382B3083E7012197F1F7E0
:10089000BA0175956795215089F7112381F0808100
:1008A000892380830FBF5C968D919C910197F1F70E
:1008B00081E090E0C1CF2923DCCF3923E5CF9081BF
:1008C000892BEFCF209184013091850128173907BA
:1008D00061F4809183012091820190E0805C9F4FC0
:1008E000821B91098F739927089590E080E0089505
:1008F000209184013091850128173907B9F490912E
:10090000820180918301981789F0E0918201F0E0E3
:10091000EE5BFE4F80812091820130E02F5F3F4FE0
:100920002F7333272093820190E008958FEF9FEF7C
:10093000089590E080E008953F924F925F926F9209
:100940007F928F929F92AF92BF92CF92DF92EF925F
:10095000FF920F931F93CF93DF93782EE89477F84D
:1009600002E010E0612C81E090E0272D30E0E90109
:10097000D595C795D595C795DC2FA901E4E0559588
:100980004795EA95E1F7342E5901F5E0B594A7941F
:10099000FA95E1F75A2DD901E6E0B595A795EA95C4
:1009A000E1F7F901F595E795EC27EA25EA27E0FB61
:1009B000EE24E0F8F12CF701EE0FFF1FF3E0359580
:1009C0002795FA95E1F72427A226AA26A0FACC2497
:1009D000C0F8D12C9601220F331F220F331F2E2B6C
:1009E0004C2747254A274170422B61F5FB01608265
:1009F00083E0AA0FBB1F8A95E1F7D170AD2B50FBA6
:100A0000882480F8912C880C991C880C991C8A2ABF
:100A100030FA442440F8512CC201880F991F8829CC
:100A2000DF91CF911F910F91FF90EF90DF90CF90CA
:100A3000BF90AF909F908F907F906F905F904F90FE
:100A40003F9008950130110521F482E0FB0180837D
:100A5000CFCF41509C0101C0220F4A95EAF7722680
:100A60006624639401E010E080CF0F931F93CF932F
:100A7000DF93682F70E0EB01D595C795AB015595D5
:100A800047955595479533E0759567953A95E1F704
:100A9000282F217030E0220F331F220F331F8B01CC
:100AA00076E0000F111F7A95E1F7202B9C2F9827F5
:100AB00091709627292BAC2FA170B0E0E4E0AA0F2B
:100AC000BB1FEA95E1F7922F9A2BE42FE170F0E03B
:100AD0009F01F5E0220F331FFA95E1F7292B982F9C
:100AE000942791709627990F922B4C274170462797
:100AF00088E0489FA0011124892F842BDF91CF919A
:100B00001F910F9108958EE492E00E94620421E00B
:100B100002970CF420E0822F0895EF92FF920F933A
:100B20001F93CF93DF93DC01FA0181E090E0918382
:100B300080838EE7EB018883808191819C012F5F08
:100B40003F4F318320832C91860F971FEC01288320
:100B5000808191819C012F5F3F4F318320831196CB
:100B60002C911197860F971FEC012883808191812A
:100B70009C012F5F3F4F3183208312962C91129757
:100B8000860F971FEC012883808191819C012F5F44
:100B90003F4F3183208313962C911397860F971F15
:100BA000EC01288315962C91159780819181AC01D9
:100BB0004F5F5F4F51834083860F971FEC0128835F
:100BC00014962C91149780819181AC014F5F5F4FF7
:100BD00051834083860F971FEC012883CD019C0130
:100BE0002A1B3B0BC081D181AE014F5F5F4F7E015D
:100BF000E60EF71E019614960D911C91159720177D
:100C0000310738F451834083EC012D81E7012883BB
:100C1000E6CFDB0111968FEF9FEFAE15BF0579F0A0
:100C20002D91922728E08C01880F991F17FF04C08F
:100C3000D1E28D27D0E19D272150A9F7EECF518336
:100C400040839C9320813181A9014F5F5F4F518385
:100C50004083260F371FD9018C93808191819C019D
:100C60002F5F3F4F31832083680F791F8EE7EB01A1
:100C7000888380E0DF91CF911F910F91FF90EF90DB
:100C80000895FC0101900020E9F73197AF01481B5E
:100C9000590BBC0181EB91E00C948E028AE291E049
:100CA0000C944106CF93DF930E94AD03EC010E94A8
:100CB0004E068C0F9D1FDF91CF9108958F929F92CA
:100CC000AF92BF920F931F93CF93DF93CDB7DEB751
:100CD000A1970FB6F894DEBF0FBECDBF19A2423068
:100CE00008F44AE08E010F5D1F4F842E912CB12C29
:100CF000A12CA50194010E94A611E62FB901CA01F9
:100D0000EA30F4F4E05DD801EE938D01232B242B1F
:100D1000252B79F790E080E0109719F0CD010E9423
:100D20004106A1960FB6F894DEBF0FBECDBFDF918E
:100D3000CF911F910F91BF90AF909F908F9008958A
:100D4000E95CE1CFCF93DF93BC0190E080E04AE023
:100D50000E945E06EC010E944E068C0F9D1FDF91E3
:100D6000CF910895CF92DF92EF92FF920F931F934E
:100D7000CF93DF93D82FC92F7B0187E791E00E94A3
:100D8000AD03B70190E080E04AE00E945E0680E794
:100D900091E00E9452060D2F1C2FD0E0C0E0CE152E
:100DA000DF0579F1F801D1908F018D2D82958F703B
:100DB0000E943505C82E8D2D8F700E943505D82EC6
:100DC0006C2D8EE492E00E940604019749F46D2D8B
:100DD0008EE492E00E940604019711F42196DFCF81
:100DE00082E591E00E94AD03CE010E94A20680E060
:100DF000DF91CF911F910F91FF90EF90DF90CF90F7
:100E0000089584E391E00E94520681E0F1CF1F93A0
:100E1000CF93DF93CDB7DEB7C459D1090FB6F8949D
:100E2000DEBF0FBECDBF182F81E02C968FAF2C9761
:100E300082E02D968FAF2D972E961FAE2E972F9670
:100E40001FAF2F9761961FAE1EAE6197CF56DF4F33
:100E500019821882C159D040CD56DF4F19821882AD
:100E6000C359D040AE014D565F4FBE016F5F7F4FFB
:100E7000CE01855B9F4F0E948D05811129C0CD5603
:100E8000DF4F68817981C359D040CE0101960E941D
:100E9000B206811105C088E690E00E9452060DC09E
:100EA00089EB90E00E94AD03612F70E090E080E05C
:100EB0004AE00E945E060E944E06CC56DF4F0FB6F7
:100EC000F894DEBF0FBECDBFDF91CF911F91089583
:100ED00087E990E0E2CF1F93CF93DF93CDB7DEB7E2
:100EE000C459D1090FB6F894DEBF0FBECDBF182F7D
:100EF00081E02C968FAF2C9783E02D968FAF2D97A6
:100F00002E961FAE2E972F961FAF2F9761961FAE6E
:100F10001EAE6197CF56DF4F19821882C159D0405B
:100F2000CD56DF4F19821882C359D040AE014D56BD
:100F30005F4FBE016F5F7F4FCE01855B9F4F0E9469
:100F40008D05811129C0CD56DF4F68817981C35944
:100F5000D040CE0101960E94B206811105C08CECF2
:100F600090E00E9452060DC08FE191E00E94AD0317
:100F7000612F70E090E080E04AE00E945E060E94EF
:100F80004E06CC56DF4F0FB6F894DEBF0FBECDBF76
:100F9000DF91CF911F9108958CEF90E0E2CF0F93F6
:100FA0001F93CF93DF93EC0188819981009759F0CB
:100FB0002A813B812617370730F081E0DF91CF91FE
:100FC0001F910F9108958B016F5F7F4F0E9409134E
:100FD000009759F0998388831B830A832C813D8174
:100FE000232B59F7FC011082E8CF80E0E7CF1F9256
:100FF0000F920FB60F9211242F933F938F939F93CD
:10100000AF93BF938091A9019091AA01A091AB01E8
:10101000B091AC013091A80123E0230F2D3758F592
:101020000196A11DB11D2093A8018093A901909361
:10103000AA01A093AB01B093AC018091AD01909156
:10104000AE01A091AF01B091B0010196A11DB11DFB
:101050008093AD019093AE01A093AF01B093B00126
:10106000BF91AF919F918F913F912F910F900FBEA4
:101070000F901F90189526E8230F0296A11DB11D11
:10108000D2CF1F920F920FB60F9211242F933F933E
:101090004F935F936F937F938F939F93AF93BF9380
:1010A000EF93FF9381EB91E00E943E03FF91EF915C
:1010B000BF91AF919F918F917F916F915F914F9170
:1010C0003F912F910F900FBE0F901F9018951F9278
:1010D0000F920FB60F9211242F938F939F93EF933C
:1010E000FF93E091C101F091C2018081E091C701BD
:1010F000F091C80182FD1BC090818091CA018F5F71
:101100008F732091CB01821741F0E091CA01F0E08A
:10111000EF54FE4F958F8093CA01FF91EF919F91FD
:101120008F912F910F900FBE0F901F901895808177
:10113000F4CF1F920F920FB60F9211242F933F936B
:101140004F935F936F937F938F939F93AF93BF93CF
:10115000EF93FF93E0918401F0918501309749F07E
:10116000A685B7858585968D91FF14C09C918923AE
:10117000A1F4FF91EF91BF91AF919F918F917F91DA
:101180006F915F914F913F912F910F900FBE0F90F4
:101190001F9018959C91892361F7A389B4899C912C
:1011A0008589809589238C93868997890197F1F7A2
:1011B000608D718DA685B785558538E020E0CB011F
:1011C0000197F1F7822F90E095958795282F4C9104
:1011D000452309F02068315091F7868D81FD2095D7
:1011E0008091830190E001968F739927309182015D
:1011F000381799F0A0918301B0E0AE5BBE4F2C93FD
:1012000080938301828D938D0197F1F7A389B4892F
:101210008C919589892B8C93ACCF868D8160868F3C
:10122000F1CF90E0FC01EE5BFC4F2491FC01E8570C
:10123000FC4F3491FC01EC58FC4FE491EE23C9F0D3
:10124000222339F0233001F1A8F4213019F12230A2
:1012500029F1F0E0EE0FFF1FE659FC4FA591B49184
:101260008FB7F894EC91611126C030953E233C93E2
:101270008FBF08952730A9F02830C9F0243049F7EE
:10128000809180008F7D03C0809180008F77809354
:101290008000DFCF84B58F7784BDDBCF84B58F7DB1
:1012A000FBCF8091B0008F778093B000D2CF809138
:1012B000B0008F7DF9CF3E2BDACF0F931F93CF93E2
:1012C000DF931092B4011092B30188EE93E0A0E096
:1012D000B0E08093B5019093B601A093B701B093AD
:1012E000B8012AE031E03093B2012093B10125EC3E
:1012F00030E03093BE012093BD0124EC30E0309308
:10130000C0012093BF0120EC30E03093C201209354
:10131000C10121EC30E03093C4012093C30122ECE1
:1013200030E03093C6012093C50126EC30E03093C5
:10133000C8012093C7011092CA011092CB011092EC
:10134000CC011092CD011092510210925002809364
:10135000520290935302A0935402B09355028CE131
:1013600091E090934F0280934E021092650210928A
:101370006402109267021092660210926902109243
:10138000680210926B0210926A0260916C026E7F8A
:101390006D7F60936C026695617081E068278BE0D9
:1013A0000E94110943E953E0FA0164918FE793E049
:1013B000FC012491222399F030E0220F331FF90120
:1013C000E05AFC4FA591B491F901E659FC4F2591E3
:1013D00034912FB7F8943C91632B6C932FBFFA0193
:1013E000449140935E02FC018491E82FF0E0EE0FFF
:1013F000FF1FE659FC4F8591949190936002809372
:101400005F0202E913E0F8012491CEE7D3E0FE0188
:1014100084918823C9F090E0880F991FFC01E05A5D
:10142000FC4FA591B491FC01E659FC4F45915491B4
:101430003FB7F8949C91822F809598239C93FA0152
:101440009081892380833FBF80916C0281FD04C01D
:1014500061E08AE00E9411098AE080935A02F80153
:10146000049100935B02FE01C491EC2FF0E0EE0FBB
:10147000FF1FEA5AFC4F8591949190935D028093EF
:101480005C021092670684E080936806DF91CF913A
:101490001F910F910C94FA01CF93DF93CDB7DEB774
:1014A0002C970FB6F894DEBF0FBECDBF789484B5ED
:1014B000826084BD84B5816084BD85B5826085BD50
:1014C00085B5816085BD80916E00816080936E00DE
:1014D00010928100809181008260809381008091D0
:1014E0008100816080938100809180008160809381
:1014F00080008091B10084608093B1008091B00041
:1015000081608093B00080917A00846080937A003B
:1015100080917A00826080937A0080917A00816065
:1015200080937A0080917A00806880937A0010928C
:10153000C10090E080E00E942F11082F81E090E030
:101540000E942F11102F082F0F3F100711F400ECED
:1015500012E1C80101978E3F9F4F10F000EC12E19D
:101560006801F12CE12C60E079E08DE390E0A701C7
:1015700098010E94A611215031094109510956953F
:10158000479537952795E091C101F091C20182E01E
:1015900080830115114E21F0211580E13807A8F054
:1015A000E091C101F091C201108260E874E88EE11F
:1015B00090E0A70196010E94A6112150310941092E
:1015C00051095695479537952795E091BD01F091C2
:1015D000BE013083E091BF01F091C00120831092E1
:1015E000C901E091C501F091C60186E08083E091D8
:1015F000C301F091C401808180618083E091C301C7
:10160000F091C401808188608083E091C301F091F2
:10161000C401808180688083E091C301F091C4019E
:1016200080818F7D808310926902109268021092EF
:10163000670210926602109265021092640260E0E6
:1016400079E08DE390E0A70196010E944511B90170
:10165000C90103972430310510F481E090E09093A4
:101660006B0280936A0290915A02963108F05FC033
:10167000F901F695E795E431F10508F4E4C07397B4
:10168000F0936502E09364026630710508F4DEC0F1
:10169000B901655071097093670260936602B901E0
:1016A000660F771F260F371F369527953695279596
:1016B0002D30310508F4CDC02C503109309369022A
:1016C000209368022091680084E0983048F031E06F
:1016D0009E3008F430E081E001C0880F3A95EAF7C7
:1016E000822B809368002DE630E0983050F02BE696
:1016F00030E09E3030F02CE630E0963110F030E0F3
:1017000020E03093620220936102292F30E098306C
:1017100008F0A2C081E001C0880F9A95EAF7809393
:10172000630280916A0290916B020197F1F78091B8
:10173000680290916902892B49F1E0918401F0914E
:10174000850192E0EE34F90709F1309739F0A38969
:10175000B4899C918589809589238C9380916C02B2
:101760008E7F80936C0210928301109282018EE42E
:1017700092E09093850180938401E0916102F09161
:101780006202808190916302892B808368EE73E00E
:1017900080E090E00E9450020E9482026093A401C7
:1017A0007093A5018093A6019093A70110929601D2
:1017B000DD24D39420E0222E20E0322E81EB91E034
:1017C0000E941E03892B09F4B9C018861F821A864D
:1017D00019861C861B8670E060E0CE0107960E9489
:1017E000CF072F813885811144C02115310519F0AB
:1017F000C9010E94801218861F821C861B861A86C9
:1018000019860E94DE020B851C8597FD3AC08A303E
:101810009105B9F189831A820F5F1F4FB801CE017C
:1018200007960E94CF07882361F32F8138858B8527
:101830009C85BE016F5F7F4F820F931F0E94DA135A
:101840001C870B87DECFE1E0F0E01ACF61E070E0AB
:1018500022CF21E030E032CF9E3040F428503109D1
:1018600081E001C0880F2A95EAF759CF2E5031093F
:10187000F7CF1C861B866CE271E0C9010E94DA1367
:10188000C0CFAF80B884A114B10429F0750101154F
:10189000110509F0A3C08B859C85892B09F448C0EC
:1018A0001A8219821C821B821E821D8268E070E0EF
:1018B000CE0101960E94CF0729813A818111C4C0CF
:1018C0002115310519F0C9010E9480121A8219826E
:1018D0001E821D821C821B824D815E8109811A81BC
:1018E0008B859C858417950708F466C48F8198853D
:1018F000009709F461C401151105D1F0B8010E94E7
:10190000E113FF24F394892B09F0F12CC8010E9404
:101910008012FF2069F06AE370E08F8198850E9451
:10192000CF13009709F09AC088ED91E00E9452060B
:101930008F819885009711F00E94801282E0C82E56
:1019400099E0592E0E948305882309F41CC30E9444
:101950008305882309F417C31F8219828EE492E05D
:101960000E947804BE01695F7F4F0E949C04082F8B
:101970008EE492E00E947804BE016F5F7F4F0E9468
:101980009C049F81923009F4E3C29981923009F45A
:10199000DFC2F0E10F9F80011124082B0E94820218
:1019A00060938E0170938F018093900190939101C9
:1019B000E0916D02EB3008F0BBC0F0E0EE51F34F68
:1019C0000C94D711600D8C0D940DBF0DC80DD10D69
:1019D000DC0DF70D200E250E2F0E74014701EFEFE1
:1019E0008E1A9E0AF7018081082E000C990B0E9426
:1019F0002311892B91F7015011090A0D1B1DF801C4
:101A00008081082E000C990B0E942311892B31F044
:101A10000E151F0518F001501109F1CFA8014F5FF5
:101A20005F4F4E195F095C874B87AE14BF0420F4EB
:101A3000B701C5010E94C613EF81F8858B859C858F
:101A4000E80FF91F108227CF88E090E09E838D83F6
:101A50006DE271E0C9010E94DA133ECF01960E9447
:101A6000FD10F82E082F192F0115110519F48DEB13
:101A700091E05CCF692F90E080E00E9437116F2DDC
:101A800081E090E00E94371183EA91E00E94AD036B
:101A9000C8010E94A2068DE891E00E94520664E609
:101AA00070E080E090E00E94500288E198E00FB67C
:101AB000F894A895809360000FBE90936000FFCFCC
:101AC0000E3709F03FCF10926E0210926F02109203
:101AD00070021092710210927302109272021092B0
:101AE0007502109274028FE792E0909377028093D0
:101AF00076021092790210927802EFEFFFEFF093E6
:101B00007B02E0937A0210927D0210927C02109286
:101B10007E02D0926D0216CF00936E02802F0E943B
:101B20001302C0926D020ECF8FEF800F8630F0F05F
:101B30000E94FA018AEC92E00E94520680918A018A
:101B400090918B01A0918C01B0918D010196A11D06
:101B5000B11D80938A0190938B01A0938C01B09367
:101B60008D01809167060E946B07ECCE00936F0297
:101B7000802F0E941302F3E0F0936D02E3CE0093F6
:101B80007002802F0E94130224E020936D02DACEAF
:101B900000937102802F0E94130285E080936D02F2
:101BA000D1CE1092720200937302802F0E94130212
:101BB00096E090936D02C6CE80917202909173026E
:101BC000802B9093730280937202802F0E941302E5
:101BD0008091720290917302893EE3E09E0708F0C3
:101BE000A7CF892B11F488E0D9CF87E0D7CF809198
:101BF000780290917902883EF3E09F0758F49C01A7
:101C00002F5F3F4F309379022093780283599D4F85
:101C1000FC01028B802F0E94130280917C02909124
:101C20007D02019690937D0280937C022091720246
:101C3000309173028217930708F484CEF8E09CCFAA
:101C400000937E0250926D027DCE80917E02982F8D
:101C5000802F90937502809374028AE09FCF0E3795
:101C600009F066CF209174023091750280917A025A
:101C700090917B022817390709F05ACF40906E02E5
:101C800080906F0290907002E0907202F090730268
:101C9000009176021091770260907802709079023C
:101CA0000E94FA018091860190918701A09188019C
:101CB000B09189010196A11DB11D80938601909379
:101CC0008701A0938801B093890122E0421288C065
:101CD00094E0891609F4ABC0981508F48AC0E1E0D5
:101CE0008E1230CE80919601813009F02BCE8091FA
:101CF0006706992D981B20916806921708F0F7C087
:101D000020919701309198012F5F3F4F30939801B8
:101D10002093970140919B0150919C0160919D01FE
:101D200070919E014E0D5F1D611D711D40939B01C1
:101D300050939C0160939D0170939E01981204C082
:101D400081E0890D809367068FE392E00E94AD03E6
:101D5000892C912CB12CA12C4AE0C501B4010E9420
:101D60005E068DE292E00E94AD03C7010E94A206CA
:101D700086E292E00E94AD034AE0C501B4010E94F0
:101D80005E068AE30E94C803B30190E080E04AE067
:101D90000E945E0683E292E00E94AD03F12CE12CEA
:101DA000E614F70409F4C3C0E114F10419F080E269
:101DB0000E94C8034801F8018081803118F480E353
:101DC0000E94C8030F5F1F4FF401608170E090E034
:101DD00080E040E10E945E06FFEFEF1AFF0AE0CFCD
:101DE0008FEF481609F474CF89EA92E00E945206F8
:101DF000A9CDF5E08F1609F49FC026E08212A2CD8E
:101E000023E02093960180918A0190918B01A0910B
:101E10008C01B0918D010196A11DB11D80938A01A5
:101E200090938B01A0938C01B0938D018BCD84E9AD
:101E300092E00E94520690909601892D8D7F09F0C4
:101E400068C08FE692E00E945206D09296011092EE
:101E500098011092970110929B0110929C01109290
:101E60009D0110929E018AE0E816F10408F444C036
:101E7000F80160817181828193810E94DD116093FC
:101E80009F017093A0018093A1019093A20184818E
:101E9000958198278927982790939A018093990193
:101EA0008085882339F1863008F085E080936806C4
:101EB000109267061092A3010E9482026093A4010F
:101EC0007093A5018093A6019093A70110928601BB
:101ED00010928701109288011092890110928A0154
:101EE00010928B0110928C0110928D0180E00E9463
:101EF000070728CD81E0DACF10929A01109299015C
:101F000010929F011092A0011092A1011092A201C3
:101F1000CFCF8EE492E00E94AD03692D70E090E097
:101F200080E04AE00E945E060E944E060BCD0E94B1
:101F30004E0680916706DBCF80919601813009F0D3
:101F400001CDC092960189E092E00E945206F1CF45
:101F500082EE92E00E94520680918A0190918B015C
:101F6000A0918C01B0918D010196A11DB11D8093AE
:101F70008A0190938B01A0938C01B0938D01809185
:101F800067060E946B0780919601813009F008C1B5
:101F90000E9482020091920110919301209194017C
:101FA00030919501601B710B820B930B653F714063
:101FB0008105910508F4C1C00E9482020091A4012C
:101FC0001091A5012091A6013091A701601B710B12
:101FD000820B930B28EE33E040E050E00E94A61104
:101FE00029013A0189E393E00E94AD0386E391E081
:101FF0000E9441060E944E0680E393E00E94AD03DA
:10200000609197017091980190E080E04AE00E9411
:102010005E068EE293E00E94AD038091990190915B
:102020009A010E94A20686E293E00E94AD036091AD
:102030009B0170919C0180919D0190919E014AE0CD
:102040000E945E0684E293E00E94AD0360919F01CE
:102050007091A0018091A1019091A2014AE00E949B
:102060005E060E944E0687E193E00E94AD03209138
:102070008A0130918B0140918C0150918D018090AB
:10208000860190908701A0908801B0908901820E0E
:10209000931EA41EB51E81149104A104B10451F035
:1020A000A0E1B7E20E946411A50194010E94A6116B
:1020B00049015A01C501B40124E630E040E050E096
:1020C0000E94A61149015A01162FE72EF82E092F5A
:1020D0004AE0C501B4010E945E0688E093E00E94D8
:1020E000AD031A3020F486E093E00E94AD034AE08D
:1020F000612F7E2D8F2D902F0E945E0685E193E04B
:102100000E9452068CE093E00E94AD034AE0C301B6
:10211000B2010E945E068AE093E00E9452060E948D
:102120008202609392017093930180939401909343
:10213000950180919601813099F50E94820200916B
:102140008E0110918F012091900130919101601BBF
:10215000710B820B930B693873418105910500F176
:1021600080918A0190918B01A0918C01B0918D0199
:102170000196A11DB11D80938A0190938B01A093BC
:102180008C01B0938D0183E0809396010E948202BE
:1021900060938E0170938F018093900190939101D1
:1021A0002114310409F40ACB0E942A03882309F47C
:1021B000FFCA0E940000FCCA0115110509F4B8CB42
:1021C000A4CB8CE191E090934F0280934E028091DA
:1021D0008401909185018E54924071F4E0916102E6
:1021E000F0916202908180916302809589238083BF
:1021F00010928501109284010895FC018827992787
:10220000E89421912032E9F3293010F02E30C8F300
:102210002B3241F02D3239F4689404C00E941B1116
:10222000820F911D219120532A30C0F31EF4909506
:1022300081959F4F08957AE0979F902D879F802DDD
:10224000910D1124089591110C942C11803219F0E4
:1022500089508550C8F70895992788270895F999D6
:10226000FECF92BD81BDF89A992780B50895262F9B
:10227000F999FECF1FBA92BD81BD20BD0FB6F8946B
:10228000FA9AF99A0FBE01960895052E97FB1EF44F
:1022900000940E945C1157FD07D00E94A61107FC14
:1022A00003D04EF40C945C115095409530952195D7
:1022B0003F4F4F4F5F4F0895909580957095619572
:1022C0007F4F8F4F9F4F08950E94C811A59F900D7B
:1022D000B49F900DA49F800D911D112408952F92FD
:1022E0003F924F925F926F927F928F929F92AF92A6
:1022F000BF92CF92DF92EF92FF920F931F93CF93F3
:10230000DF93CDB7DEB7CA1BDB0B0FB6F894DEBF89
:102310000FBECDBF09942A88398848885F846E84AF
:102320007D848C849B84AA84B984C884DF80EE80F9
:10233000FD800C811B81AA81B981CE0FD11D0FB602
:10234000F894DEBF0FBECDBFED010895A1E21A2EB5
:10235000AA1BBB1BFD010DC0AA1FBB1FEE1FFF1F49
:10236000A217B307E407F50720F0A21BB30BE40B99
:10237000F50B661F771F881F991F1A9469F76095E0
:102380007095809590959B01AC01BD01CF0108959A
:10239000A29FB001B39FC001A39F700D811D1124A6
:1023A000911DB29F700D811D1124911D0895EE0F96
:1023B000FF1F0590F491E02D09946927962769275E
:1023C00078278727782708950F931F93CF93DF935C
:1023D0008230910510F482E090E0E0916B06F0917C
:1023E0006C0630E020E0B0E0A0E0309799F42115D1
:1023F000310509F44AC0281B390B24303105D8F5C2
:102400008A819B816115710589F1FB019383828328
:10241000FE0111C040815181028113814817590783
:10242000E0F04817590799F4109761F012960C9351
:10243000129713961C933296CF01DF91CF911F9183
:102440000F91089500936B0610936C06F4CF21153D
:10245000310551F04217530738F0A901DB019A0109
:10246000BD01DF01F801C1CFEF01F9CF90936C06F8
:1024700080936B06CDCFFE01E20FF31F8193919302
:102480002250310939832883D7CF209169063091B2
:102490006A06232B41F4209102013091030130930D
:1024A0006A062093690620910001309101012115EF
:1024B000310541F42DB73EB740910401509105011B
:1024C000241B350BE0916906F0916A06E217F307C9
:1024D000A0F42E1B3F0B2817390778F0AC014E5F94
:1024E0005F4F2417350748F04E0F5F1F50936A0661
:1024F00040936906819391939FCFF0E0E0E09CCFF9
:10250000CF93DF930097E9F0FC0132971382128298
:10251000A0916B06B0916C06ED0130E020E01097C1
:10252000A1F420813181820F931F2091690630919F
:102530006A062817390709F061C0F0936A06E0932C
:102540006906DF91CF910895EA01CE17DF07E8F51C
:102550004A815B819E0141155105B1F7E901FB8379
:10256000EA8349915991C40FD51FEC17FD0761F417
:10257000808191810296840F951FE9019983888358
:10258000828193819B838A83F0E0E0E012968D91B3
:102590009C9113970097B9F52D913C911197CD011E
:1025A0000296820F931F2091690630916A062817C0
:1025B000390739F6309751F510926C0610926B0678
:1025C000B0936A06A0936906BCCFD383C2834081CF
:1025D0005181840F951FC817D90761F44E5F5F4F73
:1025E00088819981480F591F518340838A819B813B
:1025F000938382832115310509F0B0CFF0936C06E7
:10260000E0936B069ECFFD01DC01C0CF13821282E6
:10261000D7CFB0E0A0E0EFE0F3E10C9471118C01B2
:10262000009751F4CB010E94E4118C01C801CDB791
:10263000DEB7E0E10C948D11FC01E60FF71F9C0161
:1026400022503109E217F30708F49DC0D901CD915A
:10265000DC911197C617D70798F0C530D10530F334
:10266000CE0104978617970708F3C61BD70B22974E
:10267000C193D1936D937C93CF010E948012D6CFEA
:102680005B01AC1ABD0A4C018C0E9D1EA0916B061D
:10269000B0916C06512C412CF12CE12C109731F5A6
:1026A0008091690690916A068815990509F05CC0C9
:1026B0004616570608F058C080910001909101011C
:1026C000009741F48DB79EB74091040150910501E8
:1026D000841B950BE817F90708F055C0F0936A06BC
:1026E000E0936906F90171836083A0CF8D919C917D
:1026F000119712966C90129713967C901397A815C9
:10270000B90559F56C0142E0C40ED11CCA14DB04B2
:1027100020F1AC014A195B09DA011296159780F095
:102720006282738251834083D9016D937C93E1145B
:10273000F10471F0D7011396FC93EE93129776CFC4
:1027400022968C0F9D1FF90191838083F301EFCFB7
:10275000F0936C06E0936B0669CF4816590608F4AF
:102760002C017D01D3019ACFCB010E94E4117C01A1
:10277000009749F0AE01B8010E94C613C8010E943B
:102780008012870153CF10E000E050CFFB01DC0145
:1027900002C001900D9241505040D8F70895FC01BD
:1027A0008191861721F08823D9F7992708953197C9
:1027B000CF010895FB01DC0101900D920020E1F7AB
:1027C0000895FB01DC014150504030F08D910190A3
:1027D000801919F40020B9F7881B990B089511E0AE
:1027E000CFECD1E004C0FE010E94D7112196C03D7C
:1027F000D107C9F7F894FFCF00006D0680000000F4
:10280000000060038E02BB02CD031E03CA02100348
:102810000000000006048E02990405046204780496
:10282000ED030D0A00534554424155443A005245C8
:0A28300043494249454E444F000061
:107E0000112484B714BE81FFF0D085E080938100F7
:107E100082E08093C00088E18093C10086E0809377
:107E2000C20080E18093C4008EE0C9D0259A86E02C
:107E300020E33CEF91E0309385002093840096BBD3
:107E4000B09BFECF1D9AA8958150A9F7CC24DD24C4
:107E500088248394B5E0AB2EA1E19A2EF3E0BF2EE7
:107E6000A2D0813461F49FD0082FAFD0023811F036
:107E7000013811F484E001C083E08DD089C08234E0
:107E800011F484E103C0853419F485E0A6D080C0E4
:107E9000853579F488D0E82EFF2485D0082F10E0AE
:107EA000102F00270E291F29000F111F8ED06801E7
:107EB0006FC0863521F484E090D080E0DECF843638
:107EC00009F040C070D06FD0082F6DD080E0C81688
:107ED00080E7D80618F4F601B7BEE895C0E0D1E017
:107EE00062D089930C17E1F7F0E0CF16F0E7DF06D8
:107EF00018F0F601B7BEE89568D007B600FCFDCFD4
:107F0000A601A0E0B1E02C9130E011968C91119780
:107F100090E0982F8827822B932B1296FA010C0160
:107F200087BEE89511244E5F5F4FF1E0A038BF0790
:107F300051F7F601A7BEE89507B600FCFDCF97BE46
:107F4000E89526C08437B1F42ED02DD0F82E2BD052
:107F50003CD0F601EF2C8F010F5F1F4F84911BD097
:107F6000EA94F801C1F70894C11CD11CFA94CF0C13
:107F7000D11C0EC0853739F428D08EE10CD085E9AC
:107F80000AD08FE07ACF813511F488E018D01DD067
:107F900080E101D065CF982F8091C00085FFFCCF94
:107FA0009093C60008958091C00087FFFCCF809118
:107FB000C00084FD01C0A8958091C6000895E0E648
:107FC000F0E098E1908380830895EDDF803219F02E
:107FD00088E0F5DFFFCF84E1DECF1F93182FE3DFCA
:107FE0001150E9F7F2DF1F91089580E0E8DFEE27F6
:047FF000FF270994CA
:027FFE00040479
:00000001FF
