:020000040000FA
:100000000C94B2010C94DA010C94DA010C947C0883
:100010000C947C080C947C080C94DA010C94DA01A2
:100020000C94DA010C94DA010C94DA010C94DA01E4
:100030000C94DA010C94DA010C94DA010C94DA01D4
:100040000C94DA070C94DA010C944A080C942408F6
:100050000C94DA010C94DA010C94DA010C94DA01B4
:100060000C94DA010C94DA015B4552524F525D2038
:100070004E6F207365207075646F20656E766961C0
:10008000722041434B20706F722063617061206663
:1000900069736963612E005B4552524F525D204E79
:1000A0006F207365207075646F20636F6469666983
:1000B0006361722041434B2E005B41434B5D204501
:1000C0006E766961646F2061636B3D005B455252DF
:1000D0004F525D204E6F207365207075646F2065F0
:1000E0006E76696172204E41434B20706F722063BF
:1000F000617061206669736963612E005B455252CD
:100100004F525D204E6F207365207075646F2063C1
:100110006F64696669636172204E41434B2E005BD8
:100120004E41434B5D20456E766961646F206E6180
:10013000636B3D005B554E4F2054585D2045736303
:1001400072697475726120636F6D706C657461643F
:1001500061005B554E4F205458204552524F525D1E
:100160002046616C6C6F20656E206279746520009A
:10017000206279746573005B554E4F2054585D20A2
:1001800045736372696269656E646F20005B494EF6
:10019000464F5D205265696E696369616E646F2EBA
:1001A0002E2E005B4F4B5D20426175647261746559
:1001B0002063616D626961646F206120005B45525C
:1001C000524F525D20426175647261746520696EA0
:1001D00076C3A16C69646F005B4552524F525D203B
:1001E000466F726D61746F20696E76C3A16C69642D
:1001F0006F2E205573653A20534554424155443A79
:100200006261756472617465005B5452414E534D76
:10021000495349C3934E2046494E414C495A4144A3
:10022000415D005D20005B46494C453A0020726507
:1002300063696269646F2C2062797465733D005B49
:100240004441544F535D204672616D6520005B4808
:10025000414E445348414B455D2052656368617A85
:1002600061646F202D2045737461646F3A20005BD8
:1002700048414E445348414B455D20457374616489
:100280006F204F4B2C2070726F636573616E646FCB
:100290002E2E2E005B48414E445348414B455D2075
:1002A000526563696269646F005B52454348415A15
:1002B0004F5D2044697265636369C3B36E206E6FDE
:1002C00020636F696E63696465005B4552524F52EB
:1002D0005D205472616D6120696E76C3A16C6964A2
:1002E00061005B4552524F525D204572726F722021
:1002F00069727265637570657261626C65204861D0
:100300006D6D696E670000000008000201000003C7
:1003100004070000000000000000000000002300AF
:100320002600290000000000240027002A00000009
:100330000000250028002B00040404040404040425
:100340000202020202020303030303030102040880
:10035000102040800102040810200102040810202F
:1003600040092E1011241FBECFEFD8E0DEBFCDBF55
:1003700011E0A0E0B1E0EEE5F6E202C005900D92DA
:10038000A633B107D9F726E0A6E3B1E001C01D927C
:10039000AD35B207E1F711E0C1EBD1E004C0219720
:1003A000FE010E940A11C03BD107C9F70E942F0A23
:1003B0000C9422130C940000EDE5F2E010821182FF
:1003C00012821382148216821582108617828FE69B
:1003D00092E092878187148613868FEF9FEF96872E
:1003E0008587108A1786118A089520916A023091B4
:1003F0006B02A9015827CA0128E0AC01880F991F98
:1004000057FF04C051E2852750E195272150A9F7F5
:1004100090936B0280936A0208953FB7F89480919D
:100420009D0190919E01A0919F01B091A00126B5E0
:10043000A89B05C02F3F19F00196A11DB11D3FBF1C
:10044000BA2FA92F982F8827BC01CD01620F711DEB
:10045000811D911D42E0660F771F881F991F4A95E5
:10046000D1F708958F929F92AF92BF92CF92DF9271
:10047000EF92FF924B015C010E940D026B017C0127
:100480000E940D026C197D098E099F09683E734018
:1004900081059105A8F321E0821A9108A108B1080D
:1004A00088EEC80E83E0D81EE11CF11C8114910473
:1004B000A104B10429F7FF90EF90DF90CF90BF9097
:1004C000AF909F908F9008952FB7F8946091990105
:1004D00070919A0180919B0190919C012FBF08958A
:1004E000AF92BF92CF92DF92EF92FF920F931F9342
:1004F000CF93DF936C017B018B01040F151FEB0180
:100500005E01AE18BF08C017D10759F06991D60136
:10051000ED91FC910190F081E02DC6010995892BA8
:1005200079F7C501DF91CF911F910F91FF90EF9067
:10053000DF90CF90BF90AF900895FC01538D448D14
:10054000252F30E0842F90E0821B930B541710F07E
:10055000CF96089501970895FC01918D828D98178B
:1005600061F0A28DAE0FBF2FB11D5D968C91928D63
:100570009F5F9F73928F90E008958FEF9FEF089594
:100580000F931F930E9464026093A9017093AA01C4
:100590008093AB019093AC0181EA91E00E94AC02A0
:1005A00097FF1DC00E9464020091A9011091AA0149
:1005B0002091AB013091AC01601B710B820B930B4E
:1005C0000091A5011091A6012091A7013091A801E9
:1005D0006017710782079307F8F28FEF9FEF1F9163
:1005E0000F910895FC01918D828D981731F0828DC5
:1005F000E80FF11D858D90E008958FEF9FEF08952E
:10060000FC01918D228D892F90E0805C9F4F821B91
:1006100091098F739927089581EA91E00E94000360
:1006200021E0892B09F420E0822F089580E090E0FA
:10063000892B29F00E940C0381110C94000008956D
:10064000FC01A48DA80FB92FB11DA35ABF4F2C9147
:10065000848D90E001968F739927848FA689B7893E
:100660002C93A089B1898C91837080648C93938D35
:10067000848D981306C00288F389E02D80818F7DD8
:1006800080830895EF92FF920F931F93CF93DF9390
:10069000EC0181E0888F9B8D8C8D98131AC0E889BE
:1006A000F989808185FF15C09FB7F894EE89FF898D
:1006B0006083E889F98980818370806480839FBF2B
:1006C00081E090E0DF91CF911F910F91FF90EF902B
:1006D0000895F62E0B8D10E00F5F1F4F0F7311273B
:1006E000E02E8C8D8E110CC00FB607FCFACFE88976
:1006F000F989808185FFF5CFCE010E942003F1CFDB
:10070000EB8DEC0FFD2FF11DE35AFF4FF0829FB7E9
:10071000F8940B8FEA89FB8980818062CFCF0F9399
:100720001F93CF93DF938C01D0E0C0E0F801EC0F72
:10073000FD1F6491662341F081EA91E00E9442032B
:10074000892B11F02196F2CFCE01DF91CF911F912D
:100750000F910895682F81EA91E00C944203CF93A2
:10076000DF93EC01888D8823B9F0AA89BB89E889D9
:10077000F9898C9185FD03C0808186FD0DC00FB67F
:1007800007FCF7CF8C9185FFF2CF808185FFEDCFFD
:10079000CE010E942003E9CFDF91CF9108952091EF
:1007A0007801309179012817390771F49091760119
:1007B00080917701981741F0E0917601F0E0EA5CD2
:1007C000FE4F808190E008958FEF9FEF0895089588
:1007D000EF92FF920F931F93CF93DF93DC015C9610
:1007E000ED90FC905D97E114F10479F481E090E0E4
:1007F00013969C938E93129790E080E0DF91CF91B7
:100800001F910F91FF90EF9008955196ED91FC91FB
:10081000529750968C915097982F90950FB75E965F
:100820002C915E97122F127021FD6095F894208113
:10083000112319F1282B2083E7012197F1F728E0F4
:10084000462F50E0308160FF1AC0382B3083E7011B
:100850002197F1F7BA0175956795215089F7112312
:1008600081F08081892380830FBF5C968D919C915C
:100870000197F1F781E090E0C1CF2923DCCF392344
:10088000E5CF9081892BEFCF2091780130917901CC
:100890002817390761F4809177012091760190E063
:1008A000805C9F4F821B91098F739927089590E078
:1008B00080E0089520917801309179012817390757
:1008C000B9F49091760180917701981789F0E091C1
:1008D0007601F0E0EA5CFE4F80812091760130E005
:1008E0002F5F3F4F2F7333272093760190E00895B9
:1008F0008FEF9FEF089590E080E008953F924F9230
:100900005F926F927F928F929F92AF92BF92CF929F
:10091000DF92EF92FF920F931F93CF93DF93782E86
:10092000E89477F802E010E0612C81E090E0272D58
:1009300030E0E901D595C795D595C795DC2FA9017C
:10094000E4E055954795EA95E1F7342E5901F5E035
:10095000B594A794FA95E1F75A2DD901E6E0B5953B
:10096000A795EA95E1F7F901F595E795EC27EA25D2
:10097000EA27E0FBEE24E0F8F12CF701EE0FFF1F71
:10098000F3E035952795FA95E1F72427A226AA26C4
:10099000A0FACC24C0F8D12C9601220F331F220FCD
:1009A000331F2E2B4C2747254A274170422B61F5D8
:1009B000FB01608283E0AA0FBB1F8A95E1F7D1702B
:1009C000AD2B50FB882480F8912C880C991C880C46
:1009D000991C8A2A30FA442440F8512CC201880F0D
:1009E000991F8829DF91CF911F910F91FF90EF9070
:1009F000DF90CF90BF90AF909F908F907F906F903F
:100A00005F904F903F9008950130110521F482E0EE
:100A1000FB018083CFCF41509C0101C0220F4A953A
:100A2000EAF772266624639401E010E080CF0F930A
:100A30001F93CF93DF93682F70E0EB01D595C79597
:100A4000AB01559547955595479533E07595679555
:100A50003A95E1F7282F217030E0220F331F220F43
:100A6000331F8B0176E0000F111F7A95E1F7202BE1
:100A70009C2F982791709627292BAC2FA170B0E05E
:100A8000E4E0AA0FBB1FEA95E1F7922F9A2BE42F1F
:100A9000E170F0E09F01F5E0220F331FFA95E1F7D6
:100AA000292B982F942791709627990F922B4C27DA
:100AB0004170462788E0489FA0011124892F842B8C
:100AC000DF91CF911F910F9108958EE392E00E94E4
:100AD000440421E002970CF420E0822F0895EF9265
:100AE000FF920F931F93CF93DF93DC01FA0181E014
:100AF00090E0918380838EE7EB01888380819181F0
:100B00009C012F5F3F4F318320832C91860F971FCD
:100B1000EC012883808191819C012F5F3F4F3183BD
:100B2000208311962C911197860F971FEC01288333
:100B3000808191819C012F5F3F4F318320831296EA
:100B40002C911297860F971FEC0128838081918149
:100B50009C012F5F3F4F3183208313962C91139775
:100B6000860F971FEC01288315962C91159780818D
:100B70009181AC014F5F5F4F51834083860F971F78
:100B8000EC01288314962C91149780819181AC01FB
:100B90004F5F5F4F51834083860F971FEC0128837F
:100BA000CD019C012A1B3B0BC081D181AE014F5F5F
:100BB0005F4F7E01E60EF71E019614960D911C9173
:100BC00015972017310738F451834083EC012D81AC
:100BD000E7012883E6CFDB0111968FEF9FEFAE157B
:100BE000BF0579F02D91922728E08C01880F991F7D
:100BF00017FF04C0D1E28D27D0E19D272150A9F72E
:100C0000EECF518340839C9320813181A9014F5FB6
:100C10005F4F51834083260F371FD9018C9380810A
:100C200091819C012F5F3F4F31832083680F791F93
:100C30008EE7EB01888380E0DF91CF911F910F91C8
:100C4000FF90EF9008958F929F92AF92BF920F9373
:100C50001F93CF93DF93CDB7DEB7A1970FB6F8946C
:100C6000DEBF0FBECDBF19A2423008F44AE08E01AC
:100C70000F5D1F4F842E912CB12CA12CA501940146
:100C80000E94E810E62FB901CA01EA3044F5E05DA0
:100C9000D801EE938D01232B242B252B79F790E09F
:100CA00080E0109769F0FD0101900020E9F731978D
:100CB000AF014A1B5B0BBD0181EA91E00E9470020B
:100CC000A1960FB6F894DEBF0FBECDBFDF91CF91D6
:100CD0001F910F91BF90AF909F908F900895E95C06
:100CE000D7CF42E050E06AE271E081EA91E00C94F3
:100CF0007002CF93DF930E948F03EC010E94710674
:100D00008C0F9D1FDF91CF910895CF93DF93BC018E
:100D100090E080E04AE00E942306EC010E94710608
:100D20008C0F9D1FDF91CF910895CF92DF92EF92AC
:100D3000FF920F931F93CF93DF93D82FC92F7B017F
:100D400087E791E00E948F03B70190E080E04AE0DE
:100D50000E94230680E791E00E9479060D2F1C2F48
:100D6000D0E0C0E0CE15DF0579F1F801D1908F0118
:100D70008D2D82958F700E941705C82E8D2D8F7036
:100D80000E941705D82E6C2D8EE392E00E94E80396
:100D9000019749F46D2D8EE392E00E94E8030197DC
:100DA00011F42196DFCF82E591E00E948F03CE01FE
:100DB0000E94850680E0DF91CF911F910F91FF90F7
:100DC000EF90DF90CF90089584E391E00E94790640
:100DD00081E0F1CF1F93CF93DF93CDB7DEB7C45936
:100DE000D1090FB6F894DEBF0FBECDBF182F81E03A
:100DF0002C968FAF2C9782E02D968FAF2D972E9645
:100E00001FAE2E972F961FAF2F9761961FAE1EAE67
:100E10006197CF56DF4F19821882C159D040CD5605
:100E2000DF4F19821882C359D040AE014D565F4F33
:100E3000BE016F5F7F4FCE01855B9F4F0E946F05A4
:100E4000811129C0CD56DF4F68817981C359D040C7
:100E5000CE0101960E949506811105C088E690E0BA
:100E60000E9479060DC089EB90E00E948F03612FEC
:100E700070E090E080E04AE00E9423060E94710644
:100E8000CC56DF4F0FB6F894DEBF0FBECDBFDF915B
:100E9000CF911F91089587E990E0E2CF1F93CF9300
:100EA000DF93CDB7DEB7C459D1090FB6F894DEBFD2
:100EB0000FBECDBF182F81E02C968FAF2C9783E00B
:100EC0002D968FAF2D972E961FAE2E972F961FAF74
:100ED0002F9761961FAE1EAE6197CF56DF4F1982D6
:100EE0001882C159D040CD56DF4F19821882C3599C
:100EF000D040AE014D565F4FBE016F5F7F4FCE01B8
:100F0000855B9F4F0E946F05811129C0CD56DF4F31
:100F100068817981C359D040CE0101960E9495061F
:100F2000811105C08CEC90E00E9479060DC08FE124
:100F300091E00E948F03612F70E090E080E04AE032
:100F40000E9423060E947106CC56DF4F0FB6F8941C
:100F5000DEBF0FBECDBFDF91CF911F9108958CEF03
:100F600090E0E2CF0F931F93CF93DF93EC01888142
:100F70009981009759F02A813B812617370730F075
:100F800081E0DF91CF911F910F9108958B016F5FE9
:100F90007F4F0E943C12009759F0998388831B83EE
:100FA0000A832C813D81232B59F7FC011082E8CF65
:100FB00080E0E7CF1F920F920FB60F9211242F936C
:100FC0003F938F939F93AF93BF938091990190919B
:100FD0009A01A0919B01B0919C013091980123E06E
:100FE000230F2D3758F50196A11DB11D20939801AF
:100FF0008093990190939A01A0939B01B0939C01D7
:1010000080919D0190919E01A0919F01B091A001BE
:101010000196A11DB11D80939D0190939E01A09307
:101020009F01B093A001BF91AF919F918F913F918C
:101030002F910F900FBE0F901F90189526E8230F49
:101040000296A11DB11DD2CF1F920F920FB60F9223
:1010500011242F933F934F935F936F937F938F93BD
:101060009F93AF93BF93EF93FF9381EA91E00E9428
:101070002003FF91EF91BF91AF919F918F917F914D
:101080006F915F914F913F912F910F900FBE0F90F5
:101090001F9018951F920F920FB60F9211242F9345
:1010A0008F939F93EF93FF93E091B101F091B20181
:1010B0008081E091B701F091B80182FD1BC0908161
:1010C0008091BA018F5F8F732091BB01821741F02D
:1010D000E091BA01F0E0EF55FE4F958F8093BA0191
:1010E000FF91EF919F918F912F910F900FBE0F90D5
:1010F0001F9018958081F4CF1F920F920FB60F9218
:1011000011242F933F934F935F936F937F938F930C
:101110009F93AF93BF93EF93FF93E0917801F0918A
:101120007901309749F0A685B7858585968D91FF21
:1011300014C09C918923A1F4FF91EF91BF91AF91CD
:101140009F918F917F916F915F914F913F912F91DF
:101150000F900FBE0F901F9018959C91892361F7F7
:10116000A389B4899C918589809589238C938689EC
:1011700097890197F1F7608D718DA685B7855585A3
:1011800038E020E0CB010197F1F7822F90E09595B0
:101190008795282F4C91452309F02068315091F70D
:1011A000868D81FD20958091770190E001968F7367
:1011B000992730917601381799F0A0917701B0E026
:1011C000AA5CBE4F2C9380937701828D938D0197FB
:1011D000F1F7A389B4898C919589892B8C93ACCF35
:1011E000868D8160868FF1CF90E0FC01EA5FFC4F35
:1011F0002491FC01E45BFC4F3491FC01E85CFC4F62
:10120000E491EE23C9F0222339F0233001F1A8F450
:10121000213019F1223029F1F0E0EE0FFF1FE25DDD
:10122000FC4FA591B4918FB7F894EC91611126C051
:1012300030953E233C938FBF08952730A9F0283086
:10124000C9F0243049F7809180008F7D03C08091E0
:1012500080008F7780938000DFCF84B58F7784BD47
:10126000DBCF84B58F7DFBCF8091B0008F778093EB
:10127000B000D2CF8091B0008F7DF9CF3E2BDACF76
:101280000F931F93CF93DF931092A4011092A301A9
:1012900088EE93E0A0E0B0E08093A5019093A601D2
:1012A000A093A701B093A8012AE031E03093A201F6
:1012B0002093A10125EC30E03093AE012093AD01E5
:1012C00024EC30E03093B0012093AF0120EC30E00B
:1012D0003093B2012093B10121EC30E03093B4019E
:1012E0002093B30122EC30E03093B6012093B50196
:1012F00026EC30E03093B8012093B7011092BA0188
:101300001092BB011092BC011092BD0110924102DB
:10131000109240028093420290934302A0934402B1
:10132000B09345028CE191E090933F0280933E029E
:1013300010925502109254021092570210925602C7
:10134000109259021092580210925B0210925A02A7
:1013500060915C026E7F6D7F60935C026695617048
:1013600081E068278AE00E94F40846E553E0FA012C
:10137000649182E493E0FC012491222399F030E00F
:10138000220F331FF901EC5DFC4FA591B491F901D7
:10139000E25DFC4F259134912FB7F8943C91632B7B
:1013A0006C932FBFFA01449140934E02FC0184914B
:1013B000E82FF0E0EE0FFF1FE25DFC4F8591949166
:1013C0009093500280934F0207E513E0F8012491B7
:1013D000C3E4D3E0FE0184918823C9F090E0880F34
:1013E000991FFC01EC5DFC4FA591B491FC01E25DFD
:1013F000FC4F459154913FB7F8949C91822F809572
:1014000098239C93FA019081892380833FBF809128
:101410005C0281FD04C061E08BE00E94F4088BE077
:1014200080934A02F801049100934B02FE01C4919B
:10143000EC2FF0E0EE0FFF1FE65EFC4F85919491DC
:1014400090934D0280934C021092570684E0809353
:101450005806DF91CF911F910F910C94DC01CF932F
:10146000DF93CDB7DEB72C970FB6F894DEBF0FBE73
:10147000CDBF789484B5826084BD84B5816084BD1D
:1014800085B5826085BD85B5816085BD80916E0022
:10149000816080936E001092810080918100826053
:1014A0008093810080918100816080938100809190
:1014B00080008160809380008091B100846080937F
:1014C000B1008091B00081608093B00080917A007B
:1014D000846080937A0080917A00826080937A00A1
:1014E00080917A00816080937A0080917A00806890
:1014F00080937A001092C10090E080E00E947C10FE
:10150000082F81E090E00E947C10102F082F0F3FE1
:10151000100711F400EC12E1C80101978E3F9F4FB4
:1015200010F000EC12E16801F12CE12C60E079E0B0
:101530008DE390E0A70198010E94E8102150310945
:10154000410951095695479537952795E091B10185
:10155000F091B20182E080830115114E21F0211536
:1015600080E13807A8F0E091B101F091B20110825A
:1015700060E874E88EE190E0A70196010E94E8100F
:1015800021503109410951095695479537952795BD
:10159000E091AD01F091AE013083E091AF01F091A7
:1015A000B00120831092B901E091B501F091B6012C
:1015B00086E08083E091B301F091B4018081806185
:1015C0008083E091B301F091B401808188608083D1
:1015D000E091B301F091B401808180688083E09153
:1015E000B301F091B40180818F7D80831092590204
:1015F0001092580210925702109256021092550201
:101600001092540260E079E08DE390E0A70196012A
:101610000E949210B901C90103972430310510F4DA
:1016200081E090E090935B0280935A0290914A028D
:10163000963108F05FC0F901F695E795E431F105C0
:1016400008F4E5C07397F0935502E09354026630B6
:10165000710508F4DFC0B901655071097093570234
:1016600060935602B901660F771F260F371F369514
:101670002795369527952D30310508F4CEC02C508E
:10168000310930935902209358022091680084E078
:10169000983048F031E09E3008F430E081E001C03D
:1016A000880F3A95EAF7822B809368002DE630E0A8
:1016B000983050F02BE630E09E3030F02CE630E0F1
:1016C000963110F030E020E0309352022093510226
:1016D000292F30E0983008F0A3C081E001C0880FC6
:1016E0009A95EAF78093530280915A0290915B0297
:1016F0000197F1F78091580290915902892B49F195
:10170000E0917801F091790192E0EE33F90709F167
:10171000309739F0A389B4899C9185898095892374
:101720008C9380915C028E7F80935C021092770193
:10173000109276018EE392E0909379018093780184
:10174000E0915102F0915202808190915302892BD5
:10175000808368EE73E080E090E00E9432020E9495
:101760006402609394017093950180939601909325
:101770009701109286018FE6682E82E0782EAA24C7
:10178000AA94BA2C81EA91E00E940003892B09F403
:10179000B9C018861F821A8619861C861B8670E0BF
:1017A00060E0CE0107960E94B2072F813885811133
:1017B00044C02115310519F0C9010E94B3111886E2
:1017C0001F821C861B861A8619860E94C0020B8502
:1017D0001C8597FD3AC08A309105B9F189831A8238
:1017E0000F5F1F4FB801CE0107960E94B2078823F2
:1017F00061F32F8138858B859C85BE016F5F7F4F9C
:10180000820F931F0E940D131C870B87DECFE1E030
:10181000F0E019CF61E070E021CF21E030E031CF7E
:101820009E3040F42850310981E001C0880F2A958C
:10183000EAF758CF2E503109F7CF1C861B866CE291
:1018400071E0C9010E940D13C0CFCF80D884C114AC
:10185000D10429F076010115110509F0A0C08B858E
:101860009C85892B09F448C01A8219821C821B822C
:101870001E821D8268E070E0CE0101960E94B207D0
:1018800029813A818111C1C02115310519F0C901A1
:101890000E94B3111A8219821E821D821C821B8231
:1018A0004D815E8109811A818B859C8584179507FE
:1018B00008F4CFC38F819885009709F4CAC3011536
:1018C0001105D1F0B8010E941413FF24F394892B61
:1018D00009F0F12CC8010E94B311FF2069F06AE3FE
:1018E00070E08F8198850E940213009709F097C0DD
:1018F00088ED91E00E9479068F819885009711F01C
:101900000E94B3110E946505882309F417C30E9441
:101910006505882309F412C31F8219828EE392E0C1
:101920000E945A04BE01695F7F4F0E947E04082F07
:101930008EE392E00E945A04BE016F5F7F4F0E94C7
:101940007E049F81923009F4DEC29981923009F4BD
:10195000DAC2F0E10F9F80011124182F102B0E9492
:101960006402609382017093830180938401909359
:101970008501E0915D02EB3008F0B9C0F0E0ED5375
:10198000F34F0C940A11410D6A0D730D9E0DA70DB6
:10199000B00DB90DD40DFD0D010E0B0E74014701F4
:1019A000EFEF8E1A9E0AF7018081082E000C990B2A
:1019B0000E947010892B91F7015011090C0D1D1D0B
:1019C000F8018081082E000C990B0E947010892B61
:1019D00031F00E151F0518F001501109F1CF0F5FFE
:1019E0001F4FA8014E195F095C874B87CE14DF0497
:1019F00020F4B701C6010E94F912EF81F8858B85AA
:101A00009C85E80FF91F10822ACF88E090E09E8322
:101A10008D836DE271E0C9010E940D1341CF0196E3
:101A20000E944A10F82E082F192F0115110519F4DC
:101A30008DEB91E05FCF692F90E080E00E948410F1
:101A40006F2D81E090E00E94841083EA91E00E9473
:101A50008F03C8010E9485068DE891E00E947906F7
:101A600064E670E080E090E00E94320288E198E055
:101A70000FB6F894A895809360000FBE9093600015
:101A8000FFCF1E3709F03ECF10925E0210925F0228
:101A90001092600210926102109263021092620230
:101AA0001092650210926402709267026092660260
:101AB0001092690210926802B0926B02A0926A02C0
:101AC00010926D0210926C0210926E0221E020932F
:101AD0005D0218CF10935E02812F0E94F50182E013
:101AE00080935D020FCF8FEF810F8630F0F00E9460
:101AF000DC018AEC92E00E94790680917E0190914F
:101B00007F01A0918001B09181010196A11DB11DBD
:101B100080937E0190937F01A0938001B093810117
:101B2000809157060E944E07EDCE10935F02812FE1
:101B30000E94F50193E090935D02E4CE1093600261
:101B4000812F0E94F501E4E0E0935D02DBCE10936B
:101B50006102812F0E94F501F5E0F0935D02D2CE83
:101B60001092620210936302812F0E94F50126E019
:101B7000AECF8091620290916302812B90936302B9
:101B800080936202812F0E94F50180916202909100
:101B90006302893EE3E09E0708F0A9CF892B11F488
:101BA00088E09ECF87E09CCF809168029091690287
:101BB000883EF3E09F0758F49C012F5F3F4F30931E
:101BC000690220936802835A9D4FFC01128B812F7A
:101BD0000E94F50180916C0290916D0201969093A4
:101BE0006D0280936C022091620230916302821731
:101BF000930708F487CEF8E0B0CF10936E0229E087
:101C000066CF80916E02982F812F9093650280930A
:101C100064028AE065CF1E3709F069CF2091640223
:101C20003091650280916A0290916B022817390702
:101C300009F05DCF80905E0290905F02209060027C
:101C4000C0906202D0906302009166021091670218
:101C5000E0906802F09069020E94DC0180917A01B4
:101C600090917B01A0917C01B0917D010196A11D15
:101C7000B11D80937A0190937B01A0937C01B09376
:101C80007D0182E0881287C0E4E09E1609F4AAC0B4
:101C9000E91508F489C0F1E09F1234CE80918601E5
:101CA000813009F02FCE80915706922D981B2091FC
:101CB0005806921708F0F5C02091870130918801ED
:101CC0002F5F3F4F309388012093870140918B0114
:101CD00050918C0160918D0170918E014C0D5D1DB4
:101CE000611D711D40938B0150938C0160938D0198
:101CF00070938E01821104C081E0820D809357069B
:101D00008FE392E00E948F03312C512C412C4AE04A
:101D1000C201B1010E9423068DE292E00E948F036E
:101D2000C6010E94850686E292E00E948F034AE087
:101D3000C201B1010E9423068AE30E94AA03B701EF
:101D400090E080E04AE00E94230683E292E00E9455
:101D50008F03D12CC12CCE14DF0409F4C2C0C114EE
:101D6000D10419F080E20E94AA034801F8018081A1
:101D7000803118F480E30E94AA030F5F1F4FF40123
:101D8000608170E090E080E040E10E942306FFEF78
:101D9000CF1ADF0AE0CF9FEF891609F475CF89EAE1
:101DA00092E00E947906AECD25E0921609F49EC01D
:101DB00086E09812A7CD83E08093860180917E0112
:101DC00090917F01A0918001B09181010196A11DA8
:101DD000B11D80937E0190937F01A0938001B09309
:101DE000810190CD84E992E00E947906F09086010D
:101DF000F11069C08FE692E00E94790691E090931D
:101E00008601109288011092870110928B01109226
:101E10008C0110928D0110928E01EAE0CE16D10451
:101E200008F444C0F80160817181828193810E942D
:101E3000101160938F0170939001809391019093A2
:101E400092018481958198278927982790938A0108
:101E5000809389018085882339F1863008F085E0F8
:101E60008093580610925706109293010E946402C4
:101E700060939401709395018093960190939701DC
:101E800010927A0110927B0110927C0110927D01D8
:101E900010927E0110927F011092800110928101B8
:101EA00080E00E94EA062ECD81E0DACF10928A010E
:101EB0001092890110928F0110929001109291015D
:101EC00010929201CFCF8EE492E00E948F036F2D8B
:101ED00070E090E080E04AE00E9423060E947106D4
:101EE00011CD0E94710680915706DBCF809186014B
:101EF000813009F007CD22E02093860189E092E04D
:101F00000E947906F0CF82EE92E00E9479068091DD
:101F10007E0190917F01A0918001B0918101019695
:101F2000A11DB11D80937E0190937F01A09380013C
:101F3000B0938101809157060E944E0780918601DF
:101F40008130A1F50E946402009182011091830109
:101F50002091840130918501601B710B820B930BE2
:101F6000693873418105910508F466C080917E014E
:101F700090917F01A0918001B09181010196A11DF6
:101F8000B11D80937E0190937F01A0938001B09357
:101F9000810183E0809386010E9464026093820144
:101FA00070938301809384019093850180918601D1
:101FB0008250823008F040C064E670E080E090E03B
:101FC0000E943202109286011092880110928701BD
:101FD00010928A011092890110928B0110928C014B
:101FE00010928D0110928E0110928F01109290012B
:101FF0001092910110929201109293010E9464023A
:10200000609394017093950180939601909397014A
:1020100010927A0110927B0110927C0110927D0146
:1020200010927E0110927F01109280011092810126
:10203000109257060E94DC0180E090E0892B09F4A1
:10204000A1CB0E940C03882309F49CCB0E940000C2
:1020500099CB0115110509F44FCC3BCC8CE191E0F3
:1020600090933F0280933E02809178019091790194
:102070008E53924071F4E0915102F091520290819E
:102080008091530280958923808310927901109268
:1020900078010895FC0188279927E894219120323E
:1020A000E9F3293010F02E30C8F32B3241F02D32F5
:1020B00039F4689404C00E946810820F911D219128
:1020C00020532A30C0F31EF4909581959F4F0895B8
:1020D0007AE0979F902D879F802D910D1124089570
:1020E00091110C947910803219F089508550C8F7FD
:1020F0000895992788270895F999FECF92BD81BD4B
:10210000F89A992780B50895262FF999FECF1FBA1E
:1021100092BD81BD20BD0FB6F894FA9AF99A0FBE10
:1021200001960895052E97FB1EF400940E94A910B5
:1021300057FD07D00E94E81007FC03D04EF40C9422
:10214000A91050954095309521953F4F4F4F5F4FC7
:10215000089590958095709561957F4F8F4F9F4F13
:1021600008952F923F924F925F926F927F928F923B
:102170009F92AF92BF92CF92DF92EF92FF920F9316
:102180001F93CF93DF93CDB7DEB7CA1BDB0B0FB620
:10219000F894DEBF0FBECDBF09942A8839884888DD
:1021A0005F846E847D848C849B84AA84B984C88473
:1021B000DF80EE80FD800C811B81AA81B981CE0F6A
:1021C000D11D0FB6F894DEBF0FBECDBFED0108954F
:1021D000A1E21A2EAA1BBB1BFD010DC0AA1FBB1F2B
:1021E000EE1FFF1FA217B307E407F50720F0A21B9D
:1021F000B30BE40BF50B661F771F881F991F1A940A
:1022000069F760957095809590959B01AC01BD0133
:10221000CF010895EE0FFF1F0590F491E02D099472
:1022200069279627692778278727782708950F93A6
:102230001F93CF93DF938230910510F482E090E0FA
:10224000E0915B06F0915C0630E020E0B0E0A0E0B9
:10225000309799F42115310509F44AC0281B390B30
:1022600024303105D8F58A819B816115710589F18A
:10227000FB0193838283FE0111C040815181028161
:10228000138148175907E0F04817590799F4109738
:1022900061F012960C93129713961C933296CF010D
:1022A000DF91CF911F910F91089500935B061093DA
:1022B0005C06F4CF2115310551F04217530738F071
:1022C000A901DB019A01BD01DF01F801C1CFEF01D6
:1022D000F9CF90935C0680935B06CDCFFE01E20FB1
:1022E000F31F819391932250310939832883D7CFEB
:1022F0002091590630915A06232B41F42091020176
:102300003091030130935A06209359062091000121
:10231000309101012115310541F42DB73EB74091AF
:10232000040150910501241B350BE0915906F091F1
:102330005A06E217F307A0F42E1B3F0B28173907A4
:1023400078F0AC014E5F5F4F2417350748F04E0F11
:102350005F1F50935A0640935906819391939FCFE4
:10236000F0E0E0E09CCFCF93DF930097E9F0FC0131
:10237000329713821282A0915B06B0915C06ED0148
:1023800030E020E01097A1F420813181820F931F6B
:102390002091590630915A062817390709F061C073
:1023A000F0935A06E0935906DF91CF910895EA0120
:1023B000CE17DF07E8F54A815B819E014115510583
:1023C000B1F7E901FB83EA8349915991C40FD51F05
:1023D000EC17FD0761F4808191810296840F951FAF
:1023E000E90199838883828193819B838A83F0E0CA
:1023F000E0E012968D919C9113970097B9F52D917D
:102400003C911197CD010296820F931F209159069E
:1024100030915A062817390739F6309751F510923E
:102420005C0610925B06B0935A06A0935906BCCF87
:10243000D383C28340815181840F951FC817D90768
:1024400061F44E5F5F4F88819981480F591F518316
:1024500040838A819B81938382832115310509F012
:10246000B0CFF0935C06E0935B069ECFFD01DC01EC
:10247000C0CF13821282D7CFB0E0A0E0E2E4F2E155
:102480000C94B3108C01009751F4CB010E941711EA
:102490008C01C801CDB7DEB7E0E10C94CF10FC0190
:1024A000E60FF71F9C0122503109E217F30708F4E9
:1024B0009DC0D901CD91DC911197C617D70798F02F
:1024C000C530D10530F3CE0104978617970708F37E
:1024D000C61BD70B2297C193D1936D937C93CF01E9
:1024E0000E94B311D6CF5B01AC1ABD0A4C018C0E11
:1024F0009D1EA0915B06B0915C06512C412CF12CE5
:10250000E12C109731F58091590690915A06881563
:10251000990509F05CC04616570608F058C080912E
:10252000000190910101009741F48DB79EB7409151
:10253000040150910501841B950BE817F90708F079
:1025400055C0F0935A06E0935906F90171836083F0
:10255000A0CF8D919C91119712966C901297139623
:102560007C901397A815B90559F56C0142E0C40E8B
:10257000D11CCA14DB0420F1AC014A195B09DA0151
:102580001296159780F06282738251834083D9013D
:102590006D937C93E114F10471F0D7011396FC93D1
:1025A000EE93129776CF22968C0F9D1FF90191839F
:1025B0008083F301EFCFF0935C06E0935B0669CF75
:1025C0004816590608F42C017D01D3019ACFCB019E
:1025D0000E9417117C01009749F0AE01B8010E94DA
:1025E000F912C8010E94B311870153CF10E000E037
:1025F00050CFFB01DC0102C001900D9241505040D0
:10260000D8F70895FC018191861721F08823D9F726
:10261000992708953197CF010895FB01DC010190BE
:102620000D920020E1F70895FB01DC01415050407C
:1026300030F08D910190801919F40020B9F7881BB2
:10264000990B089511E0C1EBD1E004C0FE010E9496
:102650000A112196C23BD107C9F7F894FFCF0000B9
:102660005D06800000000000420370029D02AF037F
:102670000003AC02F20200000000E80370027B04D9
:10268000E70344045A04CF030D0A00534554424162
:0426900055443A0073
:107E0000112484B714BE81FFF0D085E080938100F7
:107E100082E08093C00088E18093C10086E0809377
:107E2000C20080E18093C4008EE0C9D0259A86E02C
:107E300020E33CEF91E0309385002093840096BBD3
:107E4000B09BFECF1D9AA8958150A9F7CC24DD24C4
:107E500088248394B5E0AB2EA1E19A2EF3E0BF2EE7
:107E6000A2D0813461F49FD0082FAFD0023811F036
:107E7000013811F484E001C083E08DD089C08234E0
:107E800011F484E103C0853419F485E0A6D080C0E4
:107E9000853579F488D0E82EFF2485D0082F10E0AE
:107EA000102F00270E291F29000F111F8ED06801E7
:107EB0006FC0863521F484E090D080E0DECF843638
:107EC00009F040C070D06FD0082F6DD080E0C81688
:107ED00080E7D80618F4F601B7BEE895C0E0D1E017
:107EE00062D089930C17E1F7F0E0CF16F0E7DF06D8
:107EF00018F0F601B7BEE89568D007B600FCFDCFD4
:107F0000A601A0E0B1E02C9130E011968C91119780
:107F100090E0982F8827822B932B1296FA010C0160
:107F200087BEE89511244E5F5F4FF1E0A038BF0790
:107F300051F7F601A7BEE89507B600FCFDCF97BE46
:107F4000E89526C08437B1F42ED02DD0F82E2BD052
:107F50003CD0F601EF2C8F010F5F1F4F84911BD097
:107F6000EA94F801C1F70894C11CD11CFA94CF0C13
:107F7000D11C0EC0853739F428D08EE10CD085E9AC
:107F80000AD08FE07ACF813511F488E018D01DD067
:107F900080E101D065CF982F8091C00085FFFCCF94
:107FA0009093C60008958091C00087FFFCCF809118
:107FB000C00084FD01C0A8958091C6000895E0E648
:107FC000F0E098E1908380830895EDDF803219F02E
:107FD00088E0F5DFFFCF84E1DECF1F93182FE3DFCA
:107FE0001150E9F7F2DF1F91089580E0E8DFEE27F6
:047FF000FF270994CA
:027FFE00040479
:00000001FF
