:100000000C9463000C948B000C948B000C949B0359
:100010000C949B030C949B030C948B000C948B000E
:100020000C948B000C948B000C948B000C948B0024
:100030000C948B000C948B000C948B000C948B0014
:100040000C94F9020C948B000C9469030C944303F8
:100050000C948B000C948B000C948B000C948B00F4
:100060000C948B000C948B0000000008000201002F
:100070000003040700000000000000000000000072
:1000800023002600290000000000240027002A0089
:1000900000000000250028002B00040404040404D0
:1000A0000404020202020202030303030303010227
:1000B00004081020408001020408102001020408F6
:1000C00010205F04940711241FBECFEFD8E0DEBFDD
:1000D000CDBF22E0AAE8B1E001C01D92AB39B20762
:1000E000E1F711E0A0E0B1E0E0EFF3E102C005903C
:1000F0000D92AA38B107D9F710E0C2E6D0E004C0EB
:100100002197FE010E94F307C136D107C9F70E946B
:1001100048050C94EB090C9400003FB7F8948091CB
:10012000D3019091D401A091D501B091D60126B50B
:10013000A89B05C02F3F19F00196A11DB11D3FBF1F
:10014000BA2FA92F982F8827BC01CD01620F711DEE
:10015000811D911D42E0660F771F881F991F4A95E8
:10016000D1F70895AF92BF92CF92DF92EF92FF92B4
:100170000F931F93CF93DF936C017B018B01040FCF
:10018000151FEB015E01AE18BF08C017D10759F06B
:100190006991D601ED91FC910190F081E02DC601AD
:1001A0000995892B79F7C501DF91CF911F910F91A7
:1001B000FF90EF90DF90CF90BF90AF900895FC013B
:1001C000538D448D252F30E0842F90E0821B930BBC
:1001D000541710F0CF96089501970895FC01918D62
:1001E000828D981761F0A28DAE0FBF2FB11D5D9665
:1001F0008C91928D9F5F9F73928F90E008958FEF07
:100200009FEF08952FB7F8948091D7019091D8016E
:10021000A091D901B091DA012FBF8093E3019093AF
:10022000E401A093E501B093E6018BED91E00E941B
:10023000EE0097FF26C02FB7F8948091D7019091D8
:10024000D801A091D901B091DA012FBF4091E3010B
:100250005091E4016091E5017091E601841B950BDA
:10026000A60BB70B4091DF015091E0016091E101D5
:100270007091E20184179507A607B707B0F28FEFD8
:100280009FEF0895FC01918D828D981731F0828D3A
:10029000E80FF11D858D90E008958FEF9FEF089591
:1002A000FC01918D228D892F90E0805C9F4F821BF5
:1002B00091098F73992708958BED91E00E94500169
:1002C00021E0892B09F420E0822F089580E090E05E
:1002D000892B29F00E945C0181110C940000089583
:1002E000FC01A48DA80FB92FB11DA35ABF4F2C91AB
:1002F000848D90E001968F739927848FA689B789A2
:100300002C93A089B1898C91837080648C93938D98
:10031000848D981306C00288F389E02D80818F7D3B
:1003200080830895EF92FF920F931F93CF93DF93F3
:10033000EC0181E0888F9B8D8C8D98131AC0E88921
:10034000F989808185FF15C09FB7F894EE89FF89F0
:100350006083E889F98980818370806480839FBF8E
:1003600081E090E0DF91CF911F910F91FF90EF908E
:100370000895F62E0B8D10E00F5F1F4F0F7311279E
:10038000E02E8C8D8E110CC00FB607FCFACFE889D9
:10039000F989808185FFF5CFCE010E947001F1CFF0
:1003A000EB8DEC0FFD2FF11DE35AFF4FF0829FB74D
:1003B000F8940B8FEA89FB8980818062CFCFCF933D
:1003C000DF93EC01888D8823B9F0AA89BB89E8897D
:1003D000F9898C9185FD03C0808186FD0DC00FB623
:1003E00007FCF7CF8C9185FFF2CF808185FFEDCFA1
:1003F000CE010E947001E9CFDF91CF910895209145
:10040000CC013091CD012817390771F49091CA01C0
:100410008091CB01981741F0E091CA01F0E0E657D6
:10042000FE4F808190E008958FEF9FEF089508952B
:10043000EF92FF920F931F93CF93DF93DC015C96B3
:10044000ED90FC905D97E114F10479F481E090E087
:1004500013969C938E93129790E080E0DF91CF915A
:100460001F910F91FF90EF9008955196ED91FC919F
:10047000529750968C915097982F90950FB75E9603
:100480002C915E97122F127021FD6095F8942081B7
:10049000112319F1282B2083E7012197F1F728E098
:1004A000462F50E0308160FF1AC0382B3083E701BF
:1004B0002197F1F7BA0175956795215089F71123B6
:1004C00081F08081892380830FBF5C968D919C9100
:1004D0000197F1F781E090E0C1CF2923DCCF3923E8
:1004E000E5CF9081892BEFCF2091CC013091CD01C8
:1004F0002817390761F48091CB012091CA0190E05F
:10050000805C9F4F821B91098F739927089590E01B
:1005100080E008952091CC013091CD012817390752
:10052000B9F49091CA018091CB01981789F0E091BC
:10053000CA01F0E0E657FE4F80812091CA0130E009
:100540002F5F3F4F2F7333272093CA0190E0089508
:100550008FEF9FEF089590E080E00895FB010190F8
:100560000020E9F73197AF01461B570BDC01ED91F5
:10057000FC910280F381E02D09940F931F93CF9398
:10058000DF93EC010E94AE028C016AE271E0CE01C1
:100590000E94AE02800F911FDF91CF911F910F91AA
:1005A00008950F931F93CF93DF93EC018881998176
:1005B000009759F02A813B812617370730F081E0F8
:1005C000DF91CF911F910F9108958B016F5F7F4F46
:1005D0000E941E09009759F0998388831B830A8320
:1005E0002C813D81232B59F7FC011082E8CF80E05C
:1005F000E7CF1F920F920FB60F9211242F933F93C4
:100600008F939F93AF93BF938091D7019091D8011F
:10061000A091D901B091DA013091D20123E0230FEA
:100620002D3758F50196A11DB11D2093D20180935D
:10063000D7019093D801A093D901B093DA018091AA
:10064000D3019091D401A091D501B091D60101962A
:10065000A11DB11D8093D3019093D401A093D50126
:10066000B093D601BF91AF919F918F913F912F9100
:100670000F900FBE0F901F90189526E8230F02963B
:10068000A11DB11DD2CF1F920F920FB60F92112450
:100690002F933F934F935F936F937F938F939F938A
:1006A000AF93BF93EF93FF938BED91E00E947001A6
:1006B000FF91EF91BF91AF919F918F917F916F913A
:1006C0005F914F913F912F910F900FBE0F901F9010
:1006D00018951F920F920FB60F9211242F938F939C
:1006E0009F93EF93FF93E091EB01F091EC018081F8
:1006F000E091F101F091F20182FD1BC090818091A7
:10070000F4018F5F8F732091F501821741F0E09122
:10071000F401F0E0E552FE4F958F8093F401FF91D4
:10072000EF919F918F912F910F900FBE0F901F907F
:1007300018958081F4CF1F920F920FB60F9211245B
:100740002F933F934F935F936F937F938F939F93D9
:10075000AF93BF93EF93FF93E091CC01F091CD0164
:10076000309749F0A685B7858585968D91FF14C091
:100770009C918923A1F4FF91EF91BF91AF919F913B
:100780008F917F916F915F914F913F912F910F903A
:100790000FBE0F901F9018959C91892361F7A38934
:1007A000B4899C918589809589238C9386899789C2
:1007B0000197F1F7608D718DA685B785558538E075
:1007C00020E0CB010197F1F7822F90E09595879576
:1007D000282F4C91452309F02068315091F7868DE0
:1007E00081FD20958091CB0190E001968F73992730
:1007F0003091CA01381799F0A091CB01B0E0A6570B
:10080000BE4F2C938093CB01828D938D0197F1F78E
:10081000A389B4898C919589892B8C93ACCF868DD3
:100820008160868FF1CF90E0FC01E859FF4F249161
:10083000FC01E255FF4F3491FC01E656FF4FE49175
:10084000EE23C9F0222339F0233001F1A8F421303E
:1008500019F1223029F1F0E0EE0FFF1FE057FF4FB2
:10086000A591B4918FB7F894EC91611126C03095A1
:100870003E233C938FBF08952730A9F02830C9F05C
:10088000243049F7809180008F7D03C080918000E3
:100890008F7780938000DFCF84B58F7784BDDBCFE7
:1008A00084B58F7DFBCF8091B0008F778093B000AF
:1008B000D2CF8091B0008F7DF9CF3E2BDACF0F934E
:1008C0001F93CF93DF931092DE011092DD0188EE2B
:1008D00093E0A0E0B0E08093DF019093E001A0936B
:1008E000E101B093E2012AE031E03093DC01209392
:1008F000DB0125EC30E03093E8012093E70124ECA4
:1009000030E03093EA012093E90120EC30E03093AD
:10091000EC012093EB0121EC30E03093EE012093C9
:10092000ED0122EC30E03093F0012093EF0126EC52
:1009300030E03093F2012093F1011092F401109213
:10094000F5011092F6011092F70110927B021092BD
:100950007A0280937C0290937D02A0937E02B093F2
:100960007F028CE191E0909379028093780210925B
:100970008F0210928E0210929102109290021092A9
:10098000930210929202109295021092940260913A
:1009900096026E7F6D7F609396026695617081E02E
:1009A00068278AE00E94130448EB50E0FA01649142
:1009B00084EA90E0FC012491222399F030E0220F98
:1009C000331FF901EA57FF4FA591B491F901E057A0
:1009D000FF4F259134912FB7F8943C91632B6C9382
:1009E0002FBFFA01449140938802FC018491E82FC3
:1009F000F0E0EE0FFF1FE057FF4F85919491909329
:100A00008A028093890209EB10E0F8012491C5EA7B
:100A1000D0E0FE0184918823C9F090E0880F991FEF
:100A2000FC01EA57FF4FA591B491FC01E057FF4F3D
:100A3000459154913FB7F8949C91822F80959823CB
:100A40009C93FA019081892380833FBF8091960215
:100A500081FD04C061E08BE00E9413048BE0809371
:100A60008402F801049100938502FE01C491EC2FE9
:100A7000F0E0EE0FFF1FE458FF4F859194919093A3
:100A8000870280938602DF91CF911F910F91089585
:100A9000CF93DF93CDB7DEB728970FB6F894DEBFBC
:100AA0000FBECDBF789484B5826084BD84B581606B
:100AB00084BD85B5826085BD85B5816085BD809129
:100AC0006E00816080936E001092810080918100A1
:100AD0008260809381008091810081608093810099
:100AE000809180008160809380008091B10084605B
:100AF0008093B1008091B00081608093B0008091BC
:100B00007A00846080937A0080917A00826080937A
:100B10007A0080917A00816080937A0080917A00D7
:100B2000806880937A001092C100E091EB01F0910F
:100B3000EC0182E08083E091E701F091E80110820E
:100B4000E091E901F091EA018FEC80831092F301CA
:100B5000E091EF01F091F00186E08083E091ED01FA
:100B6000F091EE01808180618083E091ED01F09150
:100B7000EE01808188608083E091ED01F091EE01CB
:100B8000808180688083E091ED01F091EE018081A9
:100B90008F7D8083109293021092920210929102A4
:100BA0001092900210928F0210928E028EE393E0C8
:100BB000909395028093940290918402963108F06C
:100BC00047C02DE831E030938F0220938E022CE352
:100BD00033E0309391022093900224E632E0309388
:100BE0009302209392022091680084E0983048F0AC
:100BF00031E09E3008F430E081E001C0880F3A9582
:100C0000EAF7822B809368002DE630E0983050F0B0
:100C10002BE630E09E3030F02CE630E0963110F0DC
:100C200030E020E030938C0220938B02292F30E0BB
:100C3000983008F0B1C081E001C0880F9A95EAF7BA
:100C400080938D0280919402909195020197F1F723
:100C50008091920290919302892B49F1E091CC010D
:100C6000F091CD0122E0E837F20709F1309739F031
:100C7000A389B4899C918589809589238C938091DF
:100C800096028E7F809396021092CB011092CA0139
:100C900088E792E09093CD018093CC01E0918B02A4
:100CA000F0918C02808190918D02892B80830E942B
:100CB0008D004B015C0198EEC92E93E0D92EE12CFA
:100CC000F12C0E948D00681979098A099B09683EF8
:100CD000734081059105A8F381E0C81AD108E108A5
:100CE000F108E8EE8E0EE3E09E1EA11CB11CC114BB
:100CF000D104E104F10429F76DE271E08BED91E09C
:100D00000E94BD0280E0A82E80E0B82E8BED91E01D
:100D10000E945001181619060CF088C01A82198218
:100D20001C821B821E821D8270E060E0CE01019653
:100D30000E94D10229813A8181113BC021153105E0
:100D400019F0C9010E9495081A8219821E821D821B
:100D50001C821B820E9402010D811E8197FD31C001
:100D60008A30910571F18F8318860F5F1F4FB8018C
:100D7000CE0101960E94D102882361F329813A8134
:100D80008D819E81BE01695F7F4F820F931F0E94FC
:100D9000E4091E830D83DECF9E3040F428503109D4
:100DA00081E001C0880F2A95EAF74ACF2E50310919
:100DB000F7CF1E821D826CE271E0C9010E94E40936
:100DC000C9CFC980DA80C114D10429F07601011598
:100DD000110509F073C04D815E814115510501F186
:100DE00069817A8188E792E00E94B2006AE271E04C
:100DF00088E792E00E94AE026EE571E08BED91E033
:100E00000E94AE024D815E8169817A818BED91E015
:100E10000E94B2006AE271E08BED91E00E94AE02A6
:100E200089819A81009711F00E9495082FB7F89454
:100E30008091D7019091D801A091D901B091DA01A8
:100E40002FBF4091CE015091CF016091D0017091A0
:100E5000D101841B950BA60BB70B81319742A105DD
:100E6000B105F8F065E871E088E792E00E94BD0204
:100E700063E771E08BED91E00E94BD022FB7F8941B
:100E80008091D7019091D801A091D901B091DA0158
:100E90002FBF8093CE019093CF01A093D001B09348
:100EA000D101A114B10409F431CF0E945C0188235F
:100EB00009F42CCF0E94000029CF740147012FEFC5
:100EC000821A920AF7018081082E000C990B0E9469
:100ED000B007892B91F7015011090C0D1D1DF80168
:100EE0008081082E000C990B0E94B007892B31F0ED
:100EF0000E151F0518F001501109F1CFA8014F5F21
:100F00005F4F4E195F095E834D83CE14DF0420F4DA
:100F1000B701C6010E94DB09E981FA818D819E81BA
:100F2000E80FF91F108257CF8CE191E0909379027E
:100F3000809378028091CC019091CD0188579240A6
:100F400071F4E0918B02F0918C02908180918D027E
:100F50008095892380831092CD011092CC01089551
:100F600091110C94B907803219F089508550C8F757
:100F700008959927882708952F923F924F925F9264
:100F80006F927F928F929F92AF92BF92CF92DF9299
:100F9000EF92FF920F931F93CF93DF93CDB7DEB7FE
:100FA000CA1BDB0B0FB6F894DEBF0FBECDBF099492
:100FB0002A88398848885F846E847D848C849B84E9
:100FC000AA84B984C884DF80EE80FD800C811B81F7
:100FD000AA81B981CE0FD11D0FB6F894DEBF0FBE26
:100FE000CDBFED010895EE0FFF1F0590F491E02DA8
:100FF00009940F931F93CF93DF938230910510F4E0
:1010000082E090E0E0919902F0919A0230E020E0D5
:10101000B0E0A0E0309799F42115310509F44AC0F9
:10102000281B390B24303105D8F58A819B81611545
:10103000710589F1FB0193838283FE0111C0408118
:1010400051810281138148175907E0F04817590769
:1010500099F4109761F012960C93129713961C93C3
:101060003296CF01DF91CF911F910F910895009398
:10107000990210939A02F4CF2115310551F04217CD
:10108000530738F0A901DB019A01BD01DF01F80126
:10109000C1CFEF01F9CF90939A0280939902CDCFFF
:1010A000FE01E20FF31F819391932250310939839E
:1010B0002883D7CF2091970230919802232B41F4B7
:1010C00020910201309103013093980220939702FE
:1010D00020910001309101012115310541F42DB716
:1010E0003EB74091040150910501241B350BE0915E
:1010F0009702F0919802E217F307A0F42E1B3F0B22
:101100002817390778F0AC014E5F5F4F2417350779
:1011100048F04E0F5F1F50939802409397028193BF
:1011200091939FCFF0E0E0E09CCFCF93DF930097C7
:10113000E9F0FC01329713821282A0919902B091DA
:101140009A02ED0130E020E01097A1F42081318176
:10115000820F931F20919702309198022817390728
:1011600009F061C0F0939802E0939702DF91CF916C
:101170000895EA01CE17DF07E8F54A815B819E01F9
:1011800041155105B1F7E901FB83EA834991599172
:10119000C40FD51FEC17FD0761F480819181029681
:1011A000840F951FE90199838883828193819B83B2
:1011B0008A83F0E0E0E012968D919C91139700975E
:1011C000B9F52D913C911197CD010296820F931F95
:1011D00020919702309198022817390739F63097F5
:1011E00051F510929A0210929902B0939802A0932E
:1011F0009702BCCFD383C28340815181840F951F56
:10120000C817D90761F44E5F5F4F88819981480FF5
:10121000591F518340838A819B8193838283211547
:10122000310509F0B0CFF0939A02E09399029ECF76
:10123000FD01DC01C0CF13821282D7CFB0E0A0E065
:10124000E4E2F9E00C94BE078C01009751F4CB0165
:101250000E94F9078C01C801CDB7DEB7E0E10C941C
:10126000DA07FC01E60FF71F9C0122503109E21753
:10127000F30708F49DC0D901CD91DC911197C617F1
:10128000D70798F0C530D10530F3CE010497861703
:10129000970708F3C61BD70B2297C193D1936D9381
:1012A0007C93CF010E949508D6CF5B01AC1ABD0A92
:1012B0004C018C0E9D1EA0919902B0919A02512C66
:1012C000412CF12CE12C109731F5809197029091EF
:1012D00098028815990509F05CC04616570608F073
:1012E00058C08091000190910101009741F48DB7A1
:1012F0009EB74091040150910501841B950BE8179E
:10130000F90708F055C0F0939802E0939702F901AD
:1013100071836083A0CF8D919C91119712966C90F0
:10132000129713967C901397A815B90559F56C017F
:1013300042E0C40ED11CCA14DB0420F1AC014A19EE
:101340005B09DA011296159780F0628273825183ED
:101350004083D9016D937C93E114F10471F0D701BE
:101360001396FC93EE93129776CF22968C0F9D1FC7
:10137000F90191838083F301EFCFF0939A02E09318
:10138000990269CF4816590608F42C017D01D30152
:101390009ACFCB010E94F9077C01009749F0AE017A
:1013A000B8010E94DB09C8010E949508870153CF4C
:1013B00010E000E050CFFB01DC0102C001900D9273
:1013C00041505040D8F70895FB01DC0101900D9287
:1013D0000020E1F7089510E0C2E6D0E004C0FE016D
:1013E0000E94F3072196C336D107C9F7F894FFCFBF
:1013F00000009B028000000000009201B200DF00AC
:10140000DF015001EE004201000000001802B200AE
:10141000AB02170274028A02FF010D0A005B5345FA
:101420004E4445525D20496E69636961646F2E20A8
:10143000456E7669616E646F20484F4C4120636150
:10144000646120736567756E646F2E2E2E005B538A
:10145000454E4445525D20466F7277617264656403
:101460003A20005B53454E4445525D20456E7669F7
:0A14700061646F3A20484F4C4100C0
:00000001FF
