:100000000C943E040C9466040C9466040C94780CD6
:100010000C94780C0C94780C0C9466040C94660484
:100020000C9466040C9466040C9466040C946604A8
:100030000C9466040C9466040C9466040C94660498
:100040000C94D60B0C9466040C94460C0C94200C67
:100050000C9466040C9466040C9466040C94660478
:100060000C9466040C9466045B4853205245494E38
:1000700054454E54414E444F20454E2031732E2E50
:100080002E005B4853204552524F525D2046616C12
:100090006C6F20656E20636F646966696361636974
:1000A0006F6E3A20005B4853204F4B5D2048616ED5
:1000B000647368616B6520454E564941444F20E2A8
:1000C0008690204573706572616E646F2041434B6A
:1000D0002830292E2E2E00204172636869766F3AEF
:1000E0002000204469723A203078005B4853204950
:1000F0004E54454E544F5D205469656D706F3A20E3
:10010000005B4552524F525D204441544120636F81
:100110006E7469656E652068657820696E76616CBD
:1001200069646F2E002F005B4552524F525D205480
:10013000696D656F75742044415441206865782E5F
:1001400020526563696269646F733A20005B4552AF
:10015000524F525D2044415441206E6F20636F69BD
:100160006E6369646520636F6E205245512E005B9B
:100170004552524F525D20444154412073696E20D4
:100180006C6F6E67697475642E005B4552524F52F6
:100190005D20444154412073696E206F666673652B
:1001A000742E005B4552524F525D2052657370753C
:1001B00065737461204441544120657370657261B8
:1001C00064612E0020005B5245515D20003D3D3DA5
:1001D0003D3D3D3D3D3D3D3D3D3D3D3D3D3D3D3D4F
:1001E0003D3D3D3D3D3D3D3D3D3D3D0A005B535464
:1001F00041525455505D204573706572616E646F55
:1002000020636F6D616E646F732064652050797434
:10021000686F6E2E2E2E005B535441525455505D24
:1002200020536F66747761726553657269616C20E3
:1002300062617564726174653A2034383030202808
:1002400066696A6F29005B535441525455505D20D2
:1002500053657269616C202855534229206261758B
:1002600064726174653A20000A0A3D3D3D204152A6
:100270004455494E4F204E414E4F20494E49434927
:10028000414E444F203D3D3D005B494E464F5D2071
:100290005265696E696369616E646F2E2E2E005B14
:1002A0004F4B5D2042617564726174652063616DBE
:1002B000626961646F206120005B4552524F525D5C
:1002C00020426175647261746520696E76C3A16CA9
:1002D00069646F005B4552524F525D20466F726DEC
:1002E00061746F20696E76C3A16C69646F2E2055AE
:1002F00073653A20534554424155443A62617564EE
:10030000726174650020526563696269646F3A20A6
:10031000005B4552524F525D2054616D61C3B16F15
:1003200020726563696269646F206E6F20636F6914
:100330006E636964652E20457370657261646F3AFF
:1003400020005B4170705D2054616D61C3B16F200E
:10035000636F72726563746F2E204C6973746F20C3
:1003600070617261207472616E736D697469722E4E
:10037000005B4170705D20454E4420726563696288
:1003800069646F202D204172636869766F20636F06
:100390006D706C65746F2E00207C2056656E7461E4
:1003A0006E613A2000206279746573207C20436876
:1003B000756E6B3A20005B4170705D20417263681E
:1003C00069766F207265676973747261646F3A2031
:1003D00000207C204D6178696D6F3A20005B4552AA
:1003E000524F525D204361726761207574696C20C1
:1003F000706F72207472616D61206E6F20736F7008
:100400006F72746164612E20536F6C6963697461EB
:1004100064613A20005B4552524F525D2053544173
:10042000525420696E76616C69646F2E2055736F2B
:100430003A205354415254203C6172636869766F8C
:100440003E203C74616D3E203C6368756E6B3E20BF
:100450003C76656E74616E613E005B4170705D203C
:10046000535441525420726563696269646F206419
:1004700065206170702E005B434D44205245434916
:100480004249444F5D204275666665723A200020FD
:100490006672616D657300206279746573207C20DB
:1004A000005B5452414E534D495349C3934E5D2016
:1004B0004172636869766F206C6973746F202D20B8
:1004C000005B4E414E4F204853204F4B5D2048610A
:1004D0006E647368616B6520636F6E6669726D61CF
:1004E000646F2120507265706172616E646F206468
:1004F00061746F732E2E2E005B4E414E4F20414390
:100500004B204441544F535D20436F6E6669726DBA
:10051000616E646F2076656E74616E612C2061631C
:100520006B3D002068616E647368616B6550656E39
:100530006469656E74653D005B4E414E4F204143DA
:100540004B20524543494249444F5D2061636B3D16
:10055000005B4E414E4F2050415253455220455270
:10056000524F525D205472616D6120696E76616CEC
:100570006964613A20002041636B3A002043747241
:100580006C3A3078005B4E414E4F205452414D4101
:1005900020434F4D504C4554415D204469723A30E0
:1005A00078005B4E414E4F20525820425954455DD1
:1005B000203078005B4E414E4F204552524F525DE5
:1005C0002048616D6D696E67206E6F20636F727277
:1005D000656769626C65006D732073696E20726572
:1005E00073707565737461005B4E414E4F205449C2
:1005F0004D454F55545D20005472616D6120464950
:100600004E20656E766961646120616C207265635D
:100610006570746F722E0045737461646F20646539
:1006200020636F64696669636163696F6E3A200075
:100630004572726F7220616C20636F6469666963D2
:100640006172206C61207472616D612046494E2E8A
:10065000204E6F20736520656E76696F2E005B45B6
:1006600052524F525D205472616E73666572656EB0
:100670006369612061626F72746164612E205365E9
:100680006E64657220656E206573706572612064AA
:1006900065206E7565766F2053544152542E005B71
:1006A000494E464F5D205472616E73666572656E89
:1006B0006369612066696E616C697A6164612E208C
:1006C00053656E646572206C6973746F207061721B
:1006D00061206E7565766F206172636869766F2E32
:1006E000005B494E464F5D204172636869766F201A
:1006F0006C6973746F3A20496E696369616E646FE7
:10070000207472616E736D697369C3B36E20686122
:10071000636961205265636569766572202841725C
:100720006475696E6F20556E6F29000A5B215D202C
:10073000505245504152414E444F205452414E5325
:100740004D4953494F4E20414C205245434549564F
:1007500045522E2E2E00207C2048533A00207C202B
:100760005472616E73666572656E6369613A0020EA
:100770007C204172636869766F3A000A5B45535486
:1007800041444F5D204C6F6F702061637469766FD8
:10079000207C2045737461646F3A000000000800FB
:1007A00002010000030407000000000000000045F3
:1007B00072726F723A204C612063617267612075BA
:1007C00074696C2065732064656D61736961646F21
:1007D000206772616E64652070617261206C6120B7
:1007E0007472616D612E0056656E74616E61206475
:1007F00065207472616E736D6973696F6E206C6CC5
:10080000656E612E204E6F2073652070756564657E
:1008100020656E76696172206C61207472616D6111
:1008200020656E2065737465206D6F6D656E746FE5
:100830002E00000000002300260029000000000018
:10084000240027002A0000000000250028002B00BB
:100850000404040404040404020202020202030366
:10086000030303030102040810204080010204086E
:1008700010200102040810203C0DF91511241FBEA0
:10088000CFEFD8E0DEBFCDBF11E0A0E0B1E0E8E5FA
:10089000F0E302C005900D92AA36B107D9F727E020
:1008A000AAE6B1E001C01D92A137B207E1F714E05A
:1008B000CDE3D4E004C02197FE010E94F717CC33AA
:1008C000D107C9F70E94460E0C941F180C94000023
:1008D00010920C0710920D0710920E0710920F073E
:1008E000109210071092120710921107109214071D
:1008F0001092130710922107E5E1F7E0119287E0CB
:10090000E132F807D9F78FEF9FEF90932307809399
:1009100022071092250710922407109226070895A7
:100920003FB7F89480914D0290914E02A0914F02F2
:10093000B091500226B5A89B05C02F3F19F0019633
:10094000A11DB11D3FBFBA2FA92F982F8827BC0129
:10095000CD01620F711D811D911D42E0660F771F51
:10096000881F991F4A95D1F708958F929F92AF9251
:10097000BF92CF92DF92EF92FF924B015C010E94F7
:1009800090046B017C010E9490046C197D098E0912
:100990009F09683E734081059105A8F321E0821A02
:1009A0009108A108B10888EEC80E83E0D81EE11CAA
:1009B000F11C81149104A104B10429F7FF90EF9078
:1009C000DF90CF90BF90AF909F908F9008952FB7FA
:1009D000F8946091490270914A0280914B02909183
:1009E0004C022FBF0895AF92BF92CF92DF92EF9249
:1009F000FF920F931F93CF93DF936C017B018B01C9
:100A0000040F151FEB015E01AE18BF08C017D10718
:100A100059F06991D601ED91FC910190F081E02DA2
:100A2000C6010995892B79F7C501DF91CF911F91F7
:100A30000F91FF90EF90DF90CF90BF90AF9008950F
:100A4000FC01538D448D252F30E0842F90E0821BD4
:100A5000930B541710F0CF96089501970895FC0159
:100A6000918D828D981761F0A28DAE0FBF2FB11DB1
:100A70005D968C91928D9F5F9F73928F90E0089509
:100A80008FEF9FEF0895FC01918D828D981731F0C3
:100A9000828DE80FF11D858D90E008958FEF9FEF17
:100AA0000895FC01918D228D892F90E0805C9F4FED
:100AB000821B91098F7399270895BF92CF92DF927D
:100AC000EF92FF920F931F93CF93DF93EC016A0194
:100AD0007B0180E596E00E945105892BF1F40E948C
:100AE000E7046C197D098E099F0961327E448105F6
:100AF000910560F0188280E0DF91CF911F910F91F6
:100B0000FF90EF90DF90CF90BF90089561E070E08C
:100B100080E090E00E94B504DCCF80E596E00E9482
:100B20002F058032B1F28D30A1F297EF980F9230FD
:100B300080F28E01BB24B394F80181938F0180E58C
:100B400096E00E945105892BB9F40E94E7046C19C4
:100B50007D098E099F0961327E448105910528F047
:100B6000CB0DD11D188281E0C7CF61E070E080E03D
:100B700090E00E94B504E3CF80E596E00E942F0547
:100B8000803271F38D3061F397EF980F923040F31C
:100B90009EE09B15A0F2B394CFCF80E596E00E9433
:100BA000510521E0892B09F420E0822F089580E08F
:100BB00090E0892B29F00E94CD0581110C94000052
:100BC0000895FC01A48DA80FB92FB11DA35ABF4FE2
:100BD0002C91848D90E001968F739927848FA6893C
:100BE000B7892C93A089B1898C91837080648C9390
:100BF000938D848D981306C00288F389E02D80813F
:100C00008F7D80830895EF92FF920F931F93CF9370
:100C1000DF93EC0181E0888F9B8D8C8D98131AC037
:100C2000E889F989808185FF15C09FB7F894EE891E
:100C3000FF896083E889F98980818370806480837B
:100C40009FBF81E090E0DF91CF911F910F91FF90C6
:100C5000EF900895F62E0B8D10E00F5F1F4F0F736E
:100C60001127E02E8C8D8E110CC00FB607FCFACF29
:100C7000E889F989808185FFF5CFCE010E94E105E1
:100C8000F1CFEB8DEC0FFD2FF11DE35AFF4FF082FA
:100C90009FB7F8940B8FEA89FB8980818062CFCF60
:100CA0000F931F93CF93DF938C01D0E0C0E0F80146
:100CB000EC0FFD1F6491662341F080E596E00E94F1
:100CC0000306892B11F02196F2CFCE01DF91CF914F
:100CD0001F910F910895CF93DF93EC01888D8823A6
:100CE000B9F0AA89BB89E889F9898C9185FD03C08F
:100CF000808186FD0DC00FB607FCF7CF8C9185FF74
:100D0000F2CF808185FFEDCFCE010E94E105E9CFD2
:100D1000DF91CF9108952091B0013091B101281752
:100D2000390771F49091AE018091AF01981741F0AD
:100D3000E091AE01F0E0E259FE4F808190E008952D
:100D40008FEF9FEF08950895EF92FF920F931F93F7
:100D5000CF93DF93DC015C96ED90FC905D97E114FE
:100D6000F10479F481E090E013969C938E931297AE
:100D700090E080E0DF91CF911F910F91FF90EF9075
:100D800008955196ED91FC91529750968C91509701
:100D9000982F90950FB75E962C915E97122F127038
:100DA00021FD6095F8942081112319F1282B2083CF
:100DB000E7012197F1F728E0462F50E0308160FFEE
:100DC0001AC0382B3083E7012197F1F7BA017595E6
:100DD0006795215089F7112381F0808189238083D1
:100DE0000FBF5C968D919C910197F1F781E090E0A7
:100DF000C1CF2923DCCF3923E5CF9081892BEFCFD9
:100E00002091B0013091B1012817390761F4809128
:100E1000AF012091AE0190E0805C9F4F821B910951
:100E20008F739927089590E080E008952091B00194
:100E30003091B10128173907B9F49091AE01809132
:100E4000AF01981789F0E091AE01F0E0E259FE4F52
:100E500080812091AE0130E02F5F3F4F2F73332709
:100E60002093AE0190E008958FEF9FEF089590E0FA
:100E700080E008953F924F925F926F927F928F929F
:100E80009F92AF92BF92CF92DF92EF92FF920F9319
:100E90001F93CF93DF93782EE89477F802E010E069
:100EA000612C81E090E0272D30E0E901D595C795D0
:100EB000D595C795DC2FA901E4E055954795EA95AE
:100EC000E1F7342E5901F5E0B594A794FA95E1F7CE
:100ED0005A2DD901E6E0B595A795EA95E1F7F90114
:100EE000F595E795EC27EA25EA27E0FBEE24E0F804
:100EF000F12CF701EE0FFF1FF3E035952795FA95DA
:100F0000E1F72427A226AA26A0FACC24C0F8D12CE7
:100F10009601220F331F220F331F2E2B4C274725FC
:100F20004A274170422B61F5FB01608283E0AA0FE2
:100F3000BB1F8A95E1F7D170AD2B50FB882480F858
:100F4000912C880C991C880C991C8A2A30FA44240C
:100F500040F8512CC201880F991F8829DF91CF9149
:100F60001F910F91FF90EF90DF90CF90BF90AF90C7
:100F70009F908F907F906F905F904F903F900895DB
:100F80000130110521F482E0FB018083CFCF415075
:100F90009C0101C0220F4A95EAF7722666246394E9
:100FA00001E010E080CF0F931F93CF93DF93682F62
:100FB00070E0EB01D595C795AB01559547955595D3
:100FC000479533E0759567953A95E1F7282F21709D
:100FD00030E0220F331F220F331F8B0176E0000F0A
:100FE000111F7A95E1F7202B9C2F98279170962757
:100FF000292BAC2FA170B0E0E4E0AA0FBB1FEA954B
:10100000E1F7922F9A2BE42FE170F0E09F01F5E0D9
:10101000220F331FFA95E1F7292B982F942791700F
:101020009627990F922B4C274170462788E0489FBE
:10103000A0011124892F842BDF91CF911F910F9153
:1010400008958DEE96E00E94000721E002970CF4CF
:1010500020E0822F0895CF93DF93C82F82958F7061
:101060000E94D307D82F8C2F8F700E94D307C82FD0
:101070006D2F8DEE96E00E94A406019741F46C2F2F
:101080008DEE96E00E94A40621E0019709F020E091
:10109000822FDF91CF9108950C942B08962728E09A
:1010A000AC01880F991F57FF04C031E2832730E15C
:1010B00093272150A9F708957F928F929F92AF9224
:1010C000BF92CF92DF92EF92FF920F931F93CF9335
:1010D000DF9300D000D000D0CDB7DEB7D82EE62EFB
:1010E000F42E722EC32E58018EE70E942B08811118
:1010F00015C082E026960FB6F894DEBF0FBECDBFB6
:10110000DF91CF911F910F91FF90EF90DF90CF90E3
:10111000BF90AF909F908F907F900895D982EA8280
:10112000FB821C82BD820E83CE0101967C014E01A2
:1011300097E0890E911C1FEFDD24DA94F7010191ED
:101140007F01602F812F9D2D0E944E08182FD92ED0
:10115000802F0E942B08882361F28E149F0471F760
:10116000E72CFC2CAE0CBF1CAE14BF0481F0F701C1
:1011700001917F01602F812F9D2D0E944E08182F15
:10118000D92E802F0E942B088111EECFB2CF8D2D4A
:101190000E942B08882309F4ACCF812F0E942B08D2
:1011A000882309F4A6CF8EE70E942B08882309F430
:1011B000A0CF80E09FCFCF93DF93CCE0D7E0682F24
:1011C0008E899F890E944E089F8B8E8BDF91CF91D5
:1011D0000895FC0101900020E9F73197AF01481B09
:1011E000590BBC0180E596E00C94F304CF93DF9398
:1011F0000E945006EC0188E291E00E94E9088C0F01
:101200009D1FDF91CF9108950F931F93CF93C42F0C
:10121000442391F090916B0720916A07921B2091D3
:101220006C07921748F087EE97E00E94F60880E07E
:10123000CF911F910F910895693E93E0790740F097
:101240008FEA97E00E94F60885E080933D06EFCF95
:101250008B0121E532E0482F61E080914F060E942A
:101260005C08813069F38111EFCFCC2329F08091A4
:101270006B078F5F80936B070E94E70460933906CA
:1012800070933A0680933B0690933C0682E08093ED
:101290003D0681E0CDCF8F929F92AF92BF920F9388
:1012A0001F93CF93DF93CDB7DEB7A1970FB6F89416
:1012B000DEBF0FBECDBF19A2423008F44AE08E0156
:1012C0000F5D1F4F842E912CB12CA12CA5019401F0
:1012D0000E948417E62FB901CA01EA30F4F4E05DF8
:1012E000D801EE938D01232B242B252B79F790E049
:1012F00080E0109719F0CD010E94E908A1960FB681
:10130000F894DEBF0FBECDBFDF91CF911F910F913B
:10131000BF90AF909F908F900895E95CE1CFCF92FE
:10132000DF92EF92FF92CF93DF936B017C016DE22E
:1013300080E596E00E940306EC0166277727CB0143
:101340006C197D098E099F094AE00E944B098C0F98
:101350009D1FDF91CF91FF90EF90DF90CF90089588
:10136000CF93DF93BC0190E080E04AE00E944B09FC
:10137000EC0188E291E00E94E9088C0F9D1FDF914B
:10138000CF910895CF93DF93462F682F70E090E0C0
:1013900080E00E944B09EC0188E291E00E94E9089C
:1013A0008C0F9D1FDF91CF910895CF93DF93BC01E8
:1013B000990F880B990B97FF0CC00E948F09EC01C5
:1013C00088E291E00E94E9088C0F9D1FDF91CF9188
:1013D00008954AE00E944B09F2CF0F931F93CF93D9
:1013E000DF93CDB7DEB72A970FB6F894DEBF0FBEF6
:1013F000CDBF0E94E70400916A0110916B0120911A
:101400006C0130916D01601B710B820B930B683E78
:1014100073408105910508F470C00E94E704609351
:101420006A0170936B0180936C0190936D018BEE58
:1014300090E00E9450060E94E7044AE00E944B0997
:1014400082EE90E00E94500660914F0670E090E0BE
:1014500080E040E10E944B0987ED90E00E94500639
:1014600060913A0270913B0280913C0290913D0262
:101470004AE00E944B0988E291E00E94E9088091CD
:101480003A0290913B0220913C0230913D02398317
:101490002A839B838C8380914006909141069D8393
:1014A0008E8380910101909102019F8388878091B2
:1014B000000189871A860AE010E09E012F5F3F4FE6
:1014C00040E064E080914F060E945C08182F811173
:1014D0001FC085EA90E00E94F60882E080933D06F6
:1014E0000E94E7046093390670933A0680933B06A6
:1014F00090933C0681E0809303012A960FB6F894FE
:10150000DEBF0FBECDBFDF91CF911F910F91089528
:1015100082E890E00E945006812F90E00E94D50959
:1015200088E690E00E94F608E8CF3F924F925F92E3
:101530006F927F928F929F92AF92BF92CF92DF92E3
:10154000EF92FF920F931F93CF93DF93CDB7DEB748
:1015500060970FB6F894DEBF0FBECDBF4B015C01A4
:101560008A0186EC91E00E9450064AE0C501B40170
:101570000E944B0984EC91E00E945006C8010E9431
:10158000B00980E596E00E946B060E94E7046B01BB
:101590007C01BC01A601CE0101960E945D05882355
:1015A00071F16BE271E0CE0101960E940818892B5F
:1015B00031F5B701A601CE0101960E945D05382ED6
:1015C000811122C08AE891E00E94F608832D60967E
:1015D0000FB6F894DEBF0FBECDBFDF91CF911F9144
:1015E0000F91FF90EF90DF90CF90BF90AF909F90C2
:1015F0008F907F906F905F904F903F90089583EA17
:1016000091E00E94F6086CC04AE050E070E060E0B3
:10161000CE0101960E9415162B013C01B701A601CF
:10162000CE0101960E945D05382E811103C08FE620
:1016300091E0CACFCE0101960E9400178414950450
:10164000A604B70419F40817190719F08DE491E0FE
:10165000D8CF99249A94B12CA12C1CC061E070E0E1
:1016600080E090E00E94B50419C080E596E00E94F9
:101670002F05803279F08D3069F097EF980F923016
:1016800048F090ED980F9A3068F5892F9FEF9912E6
:1016900038C0982EA016B10608F098CF80E596E0E5
:1016A0000E945105892B09F70E94E7046C197D09F6
:1016B0008E099F0961327E448105910578F287E2A7
:1016C00091E00E945006B50190E080E04AE00E945F
:1016D0004B0985E291E00E945006C8010E94B009C2
:1016E000312C74CF9FEB980F963010F48753CECFE8
:1016F0009FE9980F963010F48755C8CF81E091E0AC
:1017000080CFF501EF5AFD4F492D90E1490290013C
:101710001124822B8083C50101965C0199249A943F
:10172000B9CF0F931F93CF93DF93C7E2D7E08C8598
:101730008823B1F10E94E704088519852A853B8535
:10174000601B710B820B930B613D77408105910506
:1017500038F18F81853040F085E080933D06DF9140
:10176000CF911F910F9108958F5F8F830E94E7049F
:10177000688779878A879B874D815E81493E83E0B0
:10178000580750F769817A818B819C810E94950A64
:10179000882311F36D817E8140E088810E940409D5
:1017A0002D9627E0C836D20711F6D9CF1F920F9297
:1017B0000FB60F9211242F933F938F939F93AF9364
:1017C000BF938091490290914A02A0914B02B0913F
:1017D0004C023091480223E0230F2D3758F5019633
:1017E000A11DB11D209348028093490290934A02A3
:1017F000A0934B02B0934C0280914D0290914E0207
:10180000A0914F02B09150020196A11DB11D80938D
:101810004D0290934E02A0934F02B0935002BF919D
:10182000AF919F918F913F912F910F900FBE0F908D
:101830001F90189526E8230F0296A11DB11DD2CF47
:101840001F920F920FB60F9211242F933F934F9335
:101850005F936F937F938F939F93AF93BF93EF9318
:10186000FF9380E596E00E94E105FF91EF91BF9123
:10187000AF919F918F917F916F915F914F913F9128
:101880002F910F900FBE0F901F9018951F920F92DF
:101890000FB60F9211242F938F939F93EF93FF9383
:1018A000E0916006F09161068081E0916606F0911A
:1018B000670682FD1BC09081809169068F5F8F73E0
:1018C00020916A06821741F0E0916906F0E0E05B42
:1018D000F94F958F80936906FF91EF919F918F91BA
:1018E0002F910F900FBE0F901F9018958081F4CF0D
:1018F0001F920F920FB60F9211242F933F934F9385
:101900005F936F937F938F939F93AF93BF93EF9367
:10191000FF93E091B001F091B101309749F0A685B5
:10192000B7858585968D91FF14C09C918923A1F47C
:10193000FF91EF91BF91AF919F918F917F916F91A7
:101940005F914F913F912F910F900FBE0F901F907D
:1019500018959C91892361F7A389B4899C91858905
:10196000809589238C93868997890197F1F7608DFB
:10197000718DA685B785558538E020E0CB010197AC
:10198000F1F7822F90E095958795282F4C9145236C
:1019900009F02068315091F7868D81FD2095809166
:1019A000AF0190E001968F7399273091AE013817FF
:1019B00099F0A091AF01B0E0A259BE4F2C93809353
:1019C000AF01828D938D0197F1F7A389B4898C9132
:1019D0009589892B8C93ACCF868D8160868FF1CFD2
:1019E00090E0FC01E556F84F2491FC01EC59F74FCB
:1019F0003491FC01E05BF74FE491EE23C9F0222320
:101A000039F0233001F1A8F4213019F1223029F105
:101A1000F0E0EE0FFF1FEA5BF74FA591B4918FB78F
:101A2000F894EC91611126C030953E233C938FBF12
:101A300008952730A9F02830C9F0243049F7809163
:101A400080008F7D03C0809180008F77809380001D
:101A5000DFCF84B58F7784BDDBCF84B58F7DFBCF9F
:101A60008091B0008F778093B000D2CF8091B0008A
:101A70008F7DF9CF3E2BDACF0F931F93CF93DF9358
:101A8000109253061092520688EE93E0A0E0B0E068
:101A90008093540690935506A0935606B09357062C
:101AA00028E031E0309351062093500625EC30E0D9
:101AB00030935D0620935C0624EC30E030935F06A3
:101AC00020935E0620EC30E03093610620936006A0
:101AD00021EC30E0309363062093620622EC30E084
:101AE000309365062093640626EC30E03093670659
:101AF000209366061092690610926A0610926B0691
:101B000010926C061092F0061092EF068093F10688
:101B10009093F206A093F306B093F4068AE191E065
:101B20009093EE068093ED0610920407109203073F
:101B300010920607109205071092080710920707E7
:101B400010920A071092090760910B076E7F6D7F54
:101B500060930B076695617081E068278AE00E94B8
:101B6000F00C4EE658E0FA0164918AE598E0FC0139
:101B70002491222399F030E0220F331FF901E45C15
:101B8000F74FA591B491F901EA5BF74F2591349194
:101B90002FB7F8943C91632B6C932FBFFA014491BB
:101BA0004093FD06FC018491E82FF0E0EE0FFF1F4B
:101BB000EA5BF74F859194919093FF068093FE0620
:101BC0000FE618E0F8012491CBE5D8E0FE018491FE
:101BD0008823C9F090E0880F991FFC01E45CF74F5F
:101BE000A591B491FC01EA5BF74F459154913FB741
:101BF000F8949C91822F809598239C93FA01908170
:101C0000892380833FBF80910B0781FD04C061E081
:101C10008BE00E94F00C8BE08093F906F8010491B0
:101C20000093FA06FE01C491EC2FF0E0EE0FFF1FC7
:101C3000EE5CF74F859194919093FC068093FB06A0
:101C400010926A0710926B0783E080936C07809371
:101C5000680710926907E7E2F7E088E697E01082EC
:101C600011821282138214821682158217821086C4
:101C700011861286138614863D968E179F0779F774
:101C8000DF91CF911F910F910C946804CF93DF9354
:101C900000D0CDB7DEB7789484B5826084BD84B5BA
:101CA000816084BD85B5826085BD85B5816085BD57
:101CB00080916E00816080936E001092810080910F
:101CC0008100826080938100809181008160809397
:101CD0008100809180008160809380008091B100BC
:101CE00084608093B1008091B00081608093B000E7
:101CF00080917A00846080937A0080917A0082607B
:101D000080937A0080917A00816080937A0080913C
:101D10007A00806880937A001092C10090E080E0A1
:101D20000E945E17082F81E090E00E945E17102F3E
:101D3000082F0F3F100711F400EC12E1C8010197C2
:101D40008E3F9F4F10F000EC12E16801F12CE12C66
:101D500060E079E08DE390E0A70198010E9484178C
:101D600021503109410951095695479537952795D5
:101D7000E0916006F091610682E08083011581EEBA
:101D8000180721F0211590E13907A8F0E0916006CD
:101D9000F0916106108260E874E88EE190E0A7019E
:101DA00096010E9484172150310941095109569525
:101DB000479537952795E0915C06F0915D06308355
:101DC000E0915E06F0915F06208310926806E09134
:101DD0006406F091650686E08083E0916206F091EA
:101DE0006306808180618083E0916206F0916306E2
:101DF000808188608083E0916206F0916306808133
:101E000080688083E0916206F091630680818F7D17
:101E1000808368EE73E080E090E00E94B50480E586
:101E200096E00E946B0680E596E00E945105892BA2
:101E300029F080E596E00E942F05F5CF64EF71E070
:101E400080E090E00E94B50488E692E00E94F608E7
:101E500086E492E00E945006C8010E94B0091092E8
:101E600008071092070710920607109205071092B4
:101E70000407109203078EE393E090930A07809380
:101E800009079091F906963108F047C02DE831E036
:101E900030930407209303072CE333E030930607C5
:101EA0002093050724E632E03093080720930707C4
:101EB0002091680084E0983048F031E09E3008F4CA
:101EC00030E081E001C0880F3A95EAF7822B8093D9
:101ED00068002DE630E0983050F02BE630E09E3080
:101EE00030F02CE630E0963110F030E020E0309316
:101EF000010720930007292F30E0983008F0F4C044
:101F000081E001C0880F9A95EAF7809302078091DB
:101F1000090790910A070197F1F7809107079091BF
:101F20000807892B49F1E091B001F091B10126E059
:101F3000ED3EF20709F1309739F0A389B4899C91FD
:101F40008589809589238C9380910B078E7F809360
:101F50000B071092AF011092AE018DEE96E09093B8
:101F6000B1018093B001E0910007F09101078081F9
:101F700090910207892B808364EF71E080E090E00C
:101F80000E94B50487E192E00E94F6088DEE91E090
:101F90000E94F6088DEC91E00E94F60868EE73E06E
:101FA00080E090E00E94B50482E080934F0671E2E9
:101FB000E72E77E0F72ECC24CA94DC2C0E94E704AD
:101FC000009144021091450220914602309147024F
:101FD000601B710B820B930B69387341810591056E
:101FE00008F441C010913D060E94E704609344024A
:101FF0007093450280934602909347028BE797E0E7
:102000000E945006612F70E090E080E04AE00E945C
:102010004B098FE697E00E945006809143028111A0
:10202000DAC580E391E00E94E9088DE597E00E941F
:10203000500680914202882309F4D0C584E491E0DF
:102040000E94E90886E597E00E945006809103010E
:10205000882309F4C6C58AE491E00E94E90888E271
:1020600091E00E94E90880913D068111F1C08091C4
:1020700043028111F2C080914202811193C111E0AB
:1020800005E080E596E00E945105892B09F4E0C047
:1020900080E596E00E942F05E09136028A3019F023
:1020A0008D3009F03AC2EE2309F4D2C0F0E0EA54D0
:1020B000FE4F108247E050E064E571E086EB91E06E
:1020C0000E941118892B09F04EC06AE370E086EB7C
:1020D00091E00E94FD170097A1F484ED92E00E9428
:1020E000F60810923602CDCF9E3040F428503109C8
:1020F00081E001C0880F2A95EAF707CF2E503109F9
:10210000F7CF01960E940017982EA82EB92EA11481
:10211000B10419F489EB92E0E2CF692F90E080E0FE
:102120000E946617692D81E090E00E9466178FE992
:1021300092E00E945006C5010E94B00989E892E031
:102140000E94F60864E670E080E090E00E94B5042A
:1021500088E198E00FB6F894A895809360000FBED0
:1021600090936000FFCF45E050E06CE571E086EBB6
:1021700091E00E9411185C01892B09F086C187E764
:1021800094E00E94500686EB91E00E94E90888E204
:1021900091E00E94E9088AE594E00E94F60862E670
:1021A00071E086EB91E00E942717009791F125E0FE
:1021B000A216B10491F12FEFA21AB20A23E0A216DF
:1021C000B10499F44AE050E070E060E00E94151616
:1021D0006093B2017093B3018093B4019093B50101
:1021E00062E671E090E080E0DECF24E0A216B10468
:1021F00039F40E9400179093020180930101F0CFFF
:1022000025E0A216B10461F70E9400178093000137
:10221000E7CF85E0A816B104A9F44090B201509030
:10222000B3016090B4017090B50141145104610490
:10223000710441F0A0900101B0900201A114B10419
:1022400009F0CEC085E194E00E94F60810923602B3
:1022500080914302882309F4A5C08091420288231B
:1022600009F4A0C080913D0681119CC08BE297E0EB
:102270000E94F60880910001863008F45AC185E07A
:1022800010926A0710926B0780936C07809368071F
:1022900010923F0610923E0610924206109243069C
:1022A000109244061092450680903A0290903B02AC
:1022B000A0903C02B0903D02809246069092470664
:1022C000A0924806B0924906209101013091020186
:1022D0002115310571F050E040E0C501B4016150B5
:1022E000710981099109620F731F841F951F0E9454
:1022F0008417309341062093400610924A060E94AC
:10230000E70460934B0670934C0680934D069093C0
:102310004E0610923E0210923F021092400210921E
:1023200041021092370281E0809338021092390204
:1023300081EA94E00E94500610926907E7E2F7E014
:1023400088E697E01082118212821382148216822C
:1023500015821782108611861286138614863D9682
:102360008E179F0779F74AE0C501B4010E944B0917
:1023700087E994E00E945006609140067091410602
:1023800090E080E04AE00E944B098FE894E00E94D0
:10239000F60881E0809303011092430281EE96E0FB
:1023A0000E94F60880913D06823009F4F9C108F0D8
:1023B000C4C0882309F4DCC06DE0B62EAA24A3941F
:1023C000813009F441C180E090E0892B09F4F6CD19
:1023D0000E94CD05882309F4F1CD0E940000EECDC6
:1023E00080910001811102C01093000180910001D1
:1023F000863010F00093000199EEA91693E0B9061B
:1024000098F08DED93E00E945006B50190E080E0D9
:102410004AE00E944B0981ED93E00E94500688EE4D
:1024200093E00E94B00912CF40923A0250923B02D0
:1024300060923C0270923D0210934302109342025C
:10244000109303011092390286EB93E00E9450062C
:102450004AE0C301B2010E944B0985EA93E00E9461
:102460005006609101017091020190E080E04AE025
:102470000E944B0988E993E00E9450066AE070E0F0
:10248000809100010E94C2092CCE45E050E064E634
:1024900071E086EB91E00E941118892B09F021CEA2
:1024A00081E793E00E94F6088090B2019090B3011A
:1024B000A090B401B090B50180913A0290913B0296
:1024C000A0913C02B0913D0288159905AA05BB0573
:1024D00039F482E493E00E94F6081093430201CE9F
:1024E00081E193E00E9450064AE0C501B4010E94D8
:1024F0004B0985E093E00E94500660913A0270918A
:102500003B0280913C0290913D024AE00E944B09BF
:1025100088E291E00E94E908E4CDEF3708F0B1CD00
:1025200091E09E0F90933602F0E0EA54FE4F8083D4
:10253000A8CD8111A5CE81E0A3CE843009F419C3C2
:1025400008F40DC3853009F03ECF80914202882304
:1025500061F0109242021092030110923802109220
:1025600043028EE596E00E94F60810923D062BCFBE
:1025700080914202882309F426CF809103018823A9
:1025800069F00E94ED090E94E70460933906709398
:102590003A0680933B0690933C0615CF8091380213
:1025A000811150C010923F0610923E062091010109
:1025B0003091020180903A0290903B02A0903C0240
:1025C000B0903D022115310571F050E040E0C501A9
:1025D000B4016150710981099109620F731F841F51
:1025E000951F0E9484173093410620934006109255
:1025F00042061092430610924406109245068092BD
:10260000460690924706A0924806B092490610925C
:102610004A060E94E70460934B0670934C06809331
:102620004D0690934E0610923E0210923F02109279
:102630004002109241021092370281E080933802EA
:102640001092390281E090C09091690780916807EB
:10265000981708F084C040903E0250903F0260906E
:1026600040027090410280913A0290913B02A09109
:102670003C02B0913D02481659066A067B0608F0F6
:102680006EC00091010110910201093E23E0120782
:1026900010F008EE13E0841995098017910708F4EB
:1026A0008C0190903702A801C301B2010E94950AE3
:1026B000882309F454C00E94E70440903E025090E1
:1026C0003F02609040027090410220916907309172
:1026D0006807231708F043C0E7E2F7E050E040E066
:1026E0003485311136C0B49EF001B59EF00D112431
:1026F000E95DF84F90824182528263827482168330
:10270000058317826087718782879387A4862F5FEE
:102710002093690741E0B801892D0E940409809146
:102720003E0290913F02A0914002B0914102800F81
:10273000911FA11DB11D80933E0290933F02A09373
:102740004002B0934102809137028F5F809337023D
:102750007BCF4F5F5F4F3D964530510509F6809125
:102760006907882321F082E080933D062CCE4091BA
:102770003E0250913F02609140027091410280916F
:102780003A0290913B02A0913C02B0913D02481761
:1027900059076A077B0710F084E0E6CF85E0E4CFB5
:1027A0000E942108882309F48EC102E089E0B82E36
:1027B00098E0A92E26E0922E35E0832E44E0742E78
:1027C00053E0652E552453940E942108882309F470
:1027D000A0C10E942108882309F49BC11A82198292
:1027E0008DEE96E00E941607BE016E5F7F4F0E943D
:1027F0003A07482E8DEE96E00E941607BE016F5FE5
:102800007F4F0E943A079A81923009F4EDC1998175
:10281000923009F4E9C190E1499E90011124182FEA
:10282000122B82EA95E00E94500660E170E0812F51
:102830000E94C2090E94E7046093390670933A0629
:1028400080933B0690933C06E0910C07EB3008F038
:1028500044C0F0E0E25DFB4E0C94F71739146114AC
:1028600069148014881490149A14B714DA14DF14BD
:10287000E9141E3709F0A8CF10920D0710920E0729
:1028800010920F0710921007109212071092110762
:10289000109214071092130710922107E5E1F7E058
:1028A0001192EE16FF06E1F7D0922307C09222079D
:1028B00010922507109224071092260750920C07B9
:1028C00083CF10930D07812F0E94DB0800930C0724
:1028D0007BCF8FEF810F863058F00E94680481E52E
:1028E00095E00E94500682E090E00E94D5096CCFEE
:1028F00010930E07812F0E94DB0860920C0764CFB3
:1029000010930F07812F0E94DB0870920C075CCF99
:1029100010931007812F0E94DB0880920C0754CF80
:102920001092110710931207812F0E94DB089092DA
:102930000C074ACF8091110790911207812B909339
:10294000120780931107812F0E94DB0880911107E5
:1029500090911207893E23E0920708F0BECF892BA1
:1029600021F488E080930C072FCF87E0FBCFE09124
:102970002107EC3040F481E08E0F80932107F0E0D6
:10298000E45FF84F1187812F0E94DB0880912407B4
:102990009091250701969093250780932407209115
:1029A0001107309112078217930708F40DCFA092F8
:1029B0000C070ACF10932607B0920C0705CF809121
:1029C0002607982F812F90931407809313078AE08E
:1029D000C9CF1E3709F081CF20911307309114071A
:1029E00080912207909123072817390709F075CFA6
:1029F00030900D0740900E07109110070E94680458
:102A000085E895E00E945006632D70E090E080E03C
:102A100040E10E944B098CE795E00E945006642D2E
:102A200070E090E080E040E10E944B0986E795E08D
:102A30000E9450066AE070E0812F0E94C20981E086
:102A400038120BC022E0421661F083E04812BCCE7F
:102A50000E94910B00933D06B7CE9FEF3912B4CE82
:102A6000F1CF88E395E00E945006612F70E090E07E
:102A700080E04AE00E944B0983E295E00E94500604
:102A80008091030190E00E94D50980910301882381
:102A900059F0111109C081EC94E00E94F6081092DF
:102AA000030110923D0690CE80913D06823009F0E0
:102AB0008BCE88EF94E00E9450066AE070E0812F90
:102AC0000E94C20981CE0E94E7040091390610914C
:102AD0003A0620913B0630913C064B015C01801A7E
:102AE000910AA20AB30A91ED891697E09906A1040A
:102AF000B10478F088EE95E00E9450064AE0C501E6
:102B0000B4010E944B0987ED95E00E94F6080E94EF
:102B1000910B0E94910B80913D06823009F053CCBD
:102B20008091690781114FCC8091030181114BCCB9
:102B300040913E0250913F026091400270914102EB
:102B400080913A0290913B02A0913C02B0913D02EB
:102B5000481759076A077B0708F474CD1DCE80918A
:102B60000301882319F00E94ED092DCC0E94910BDE
:102B70002ACC80913902811126CC10E000E030E0AF
:102B800020E040E065E080914F060E945C08182F2D
:102B9000811114C088EF95E00E94F60881E08093CF
:102BA00039021092420210920301109238021092E0
:102BB0003D068FE996E00E94F60805CC80E396E09A
:102BC0000E94F60887E196E00E945006812F90E06F
:102BD0000E94D509E3CF8AE391E025CA80E491E021
:102BE0002FCA87E491E039CA84EB95E00E94F60889
:102BF00090CF8AE191E09093EE068093ED0680916C
:102C0000B0019091B1018D5E964071F4E0910007A2
:102C1000F09101079081809102078095892380833C
:102C20001092B1011092B0010895B0E0A0E0EBE184
:102C3000F6E10C94B2175C016B017A016115710524
:102C400019F0FB0191838083E114F10449F0C7017D
:102C50000297839728F060E070E0CB019CC05E0192
:102C6000E5012196F5011081812F90E00E941E1749
:102C7000892BA9F71D3209F056C02196F501118163
:102C800001E0E114F10409F4AEC0F0E1EF16F10443
:102C900009F08EC0103341F488818F7D883509F0AA
:102CA00083C0198122960260E0E1EE2EF12C882487
:102CB0008A94982CA82CFFE0BF2E20E060E070E002
:102CC000CB0127010F2C000C66087708FE0150EDA0
:102CD000352E310E39E0331538F43FEB310F3A31F0
:102CE000A0F549EC342E310E3E141F04BCF52F3FE5
:102CF000B9F086169706A806B90670F1A3019201ED
:102D00000E947417232D30E050E040E0620F731FE3
:102D1000841F951F6217730784079507E8F021E069
:102D200021961081D3CF1B3221F4E5012296F501C3
:102D3000118100E0A6CF78E0E72EF12C88248A9458
:102D4000982CA82C6FE1B62EB8CF3FE9310F3A315D
:102D500028F439EA332EC7CF2FEFE2CFC114D104C4
:102D600031F02223E9F02197F601D183C08300FFDF
:102D700007C090958095709561957F4F8F4F9F4FBD
:102D80002F3F49F482E290E09093700780936F07A1
:102D90006FEF7FEFCB01CDB7DEB7E1E10C94CE173B
:102DA00001FFE5CF2297E0CF10E3E114F10419F21F
:102DB0003AE0E316F104E9F080E1E816F10409F4E1
:102DC00073CFE8E0EE16F10409F4B8CF6FEF7FEFB0
:102DD000CB0197010F2C000C440B550B0E9484175C
:102DE00049015A016ACF103309F456CF9AE0E92E0F
:102DF000F12C89E9882E982CA82C89E1B82E5DCF7A
:102E0000FC0188279927E89421912032E9F32930A1
:102E100010F02E30C8F32B3241F02D3239F4689483
:102E200004C00E945317820F911D219120532A3014
:102E3000C0F31EF4909581959F4F089591110C94C5
:102E40005B17803219F089508550C8F708954DE618
:102E500057E00E942C170895FA01A191B0810097C4
:102E600019F41097E1F0CD01DC01CD010D900020A7
:102E700011F4C00113C0FB012191222319F0201588
:102E8000D9F7F3CFFB012191201519F41E92119669
:102E900006C02223C1F70D900020A1F7D001FA014E
:102EA000A193B08308957AE0979F902D879F802DFE
:102EB000910D11240895992788270895F999FECF37
:102EC00092BD81BDF89A992780B50895262FF9996A
:102ED000FECF1FBA92BD81BD20BD0FB6F894FA9AFD
:102EE000F99A0FBE01960895DB018F939F930E947C
:102EF000A617BF91AF91A29F800D911DA39F900D2A
:102F0000B29F900D11240895A1E21A2EAA1BBB1B9B
:102F1000FD010DC0AA1FBB1FEE1FFF1FA217B307A5
:102F2000E407F50720F0A21BB30BE40BF50B661FBB
:102F3000771F881F991F1A9469F76095709580957F
:102F400090959B01AC01BD01CF0108950E94E81747
:102F5000A59F900DB49F900DA49F800D911D1124ED
:102F600008952F923F924F925F926F927F928F922D
:102F70009F92AF92BF92CF92DF92EF92FF920F9308
:102F80001F93CF93DF93CDB7DEB7CA1BDB0B0FB612
:102F9000F894DEBF0FBECDBF09942A8839884888CF
:102FA0005F846E847D848C849B84AA84B984C88465
:102FB000DF80EE80FD800C811B81AA81B981CE0F5C
:102FC000D11D0FB6F894DEBF0FBECDBFED01089541
:102FD000A29FB001B39FC001A39F700D811D11245A
:102FE000911DB29F700D811D1124911D0895EE0F4A
:102FF000FF1F0590F491E02D0994FC018191861743
:1030000021F08823D9F7992708953197CF010895A2
:10301000FB01DC018D91019080190110D9F3990B0E
:103020000895FB01DC014150504030F08D9101903A
:10303000801919F40020B9F7881B990B089514E042
:10304000CDE3D4E004C0FE010E94F7172196CE33F1
:08305000D107C9F7F894FFCF86
:1030580003900101000000000306F30420056B063D
:1030680051052F05430500000000A406F3043707A7
:10307800A306000716078B060D0A004441544100B9
:103088004553504552414E444F004C4953544F000C
:103098004F4646004F4E004E4F0050454E4449455E
:1030A8004E544500534554424155440053544152EF
:0A30B800540020005B454E445D000B
:00000001FF
