:020000040000FA
:100000000C94B5030C94DD030C94DD030C94900B5D
:100010000C94900B0C94900B0C94DD030C94DD036A
:100020000C94DD030C94DD030C94DD030C94DD03D0
:100030000C94DD030C94DD030C94DD030C94DD03C0
:100040000C94EE0A0C94DD030C945E0B0C94380BAC
:100050000C94DD030C94DD030C94DD030C94DD03A0
:100060000C94DD030C94DD0348616E647368616B6E
:100070006520656E766961646F20616C20726563CE
:100080006570746F722E204573706572616E646F57
:100090002041434B20646520636F6E6669726D6119
:1000A00063696F6E2E2E2E004572726F7220616C26
:1000B00020636F6469666963617220656C206861A2
:1000C0006E647368616B652E204E6F2073652065CA
:1000D0006E76696F2E005B48414E445348414B4554
:1000E0005D205469656D706F20656E76696F3A208A
:1000F000005B4552524F525D204441544120636F92
:100100006E7469656E652068657820696E76616CCD
:1001100069646F2E002F005B4552524F525D205490
:10012000696D656F75742044415441206865782E6F
:1001300020526563696269646F733A20005B4552BF
:10014000524F525D2044415441206E6F20636F69CD
:100150006E6369646520636F6E205245512E005BAB
:100160004552524F525D20444154412073696E20E4
:100170006C6F6E67697475642E005B4552524F5206
:100180005D20444154412073696E206F666673653B
:10019000742E005B4552524F525D2052657370754C
:1001A00065737461204441544120657370657261C8
:1001B00064612E0020005B5245515D20005B494E7A
:1001C000464F5D205265696E696369616E646F2E8A
:1001D0002E2E005B4F4B5D20426175647261746529
:1001E0002063616D626961646F206120005B45522C
:1001F000524F525D20426175647261746520696E70
:1002000076C3A16C69646F005B4552524F525D200A
:10021000466F726D61746F20696E76C3A16C6964FC
:100220006F2E205573653A20534554424155443A48
:100230006261756472617465002052656369626908
:10024000646F3A20005B4552524F525D2054616DFD
:1002500061C3B16F20726563696269646F206E6FFC
:1002600020636F696E636964652E204573706572E3
:1002700061646F3A20005B4170705D2054616D6174
:10028000C3B16F20636F72726563746F2E204C6907
:1002900073746F2070617261207472616E736D6926
:1002A0007469722E005B4170705D20454E4420726F
:1002B0006563696269646F202D20417263686976A5
:1002C0006F20636F6D706C65746F2E00207C2056FC
:1002D000656E74616E613A200020627974657320E6
:1002E0007C204368756E6B3A20005B4170705D2026
:1002F0004172636869766F207265676973747261B1
:10030000646F3A2000207C204D6178696D6F3A203F
:10031000005B4552524F525D204361726761207508
:1003200074696C20706F72207472616D61206E6FE1
:1003300020736F706F72746164612E20536F6C69EB
:100340006369746164613A20005B4552524F525DAB
:1003500020535441525420696E76616C69646F2E4B
:100360002055736F3A205354415254203C617263BC
:100370006869766F3E203C74616D3E203C63687511
:100380006E6B3E203C76656E74616E613E005B4133
:1003900070705D20535441525420726563696269E4
:1003A000646F206465206170702E00206672616D3C
:1003B000657300206279746573207C20005B545261
:1003C000414E534D495349C3934E5D20417263687A
:1003D00069766F206C6973746F202D200048616E00
:1003E000647368616B6520636F6D706C65746164C4
:1003F0006F20636F6E20656C207265636570746F2B
:10040000722E20507265706172616E646F2074721A
:10041000616D61732070617261207472616E736DC1
:10042000697369C3B36E2E2E2E005B4E414E4F5D35
:100430002048616E647368616B6520636F6D706CDA
:10044000657461646F21005B4E414E4F5D205072B8
:100450006F636573616E646F2041434B2064652058
:100460006461746F73005B4E414E4F2041434B5D9E
:1004700020526563696269646F2061636B3D00208F
:1004800041636B3A2000204374726C3A203078004C
:100490005B4E414E4F205452414D415D20446972A4
:1004A0003A203078005B4E414E4F2052585D20423A
:1004B0007974653A203078005B4E414E4F204552AA
:1004C000524F525D204572726F722048616D6D69A6
:1004D0006E67206E6F20636F7272656769626C650C
:1004E000005B4E414E4F5D20486179206279746512
:1004F0007320646973706F6E69626C6573207061DC
:100500007261206C656572005B54494D454F5554CE
:100510005D204E6F207365207265636962696F208C
:1005200041434B0020617661696C61626C653D00FE
:100530002070756564654C656572427974653D002F
:100540005B4E414E4F20524543565D205469656DC8
:10055000706F3A20005472616D612046494E2065EB
:100560006E766961646120616C2072656365707488
:100570006F722E0045737461646F20646520636F31
:1005800064696669636163696F6E3A2000457272DF
:100590006F7220616C20636F6469666963617220A9
:1005A0006C61207472616D612046494E2E204E6F41
:1005B00020736520656E76696F2E005B4552524F41
:1005C000525D205472616E73666572656E63696117
:1005D0002061626F72746164612E2053656E646580
:1005E0007220656E20657370657261206465206E8F
:1005F0007565766F2053544152542E005B494E4628
:100600004F5D205472616E73666572656E636961D9
:100610002066696E616C697A6164612E2053656E33
:10062000646572206C6973746F2070617261206EF2
:100630007565766F206172636869766F2E005B491D
:100640004E464F5D204172636869766F206C697316
:10065000746F3A20496E696369616E646F207472C9
:10066000616E736D697369C3B36E2068616369619C
:1006700020526563656976657220284172647569E8
:100680006E6F20556E6F2900000000080002010007
:100690000003040700000000000000004572726FB4
:1006A000723A204C61206361726761207574696CD5
:1006B0002065732064656D61736961646F20677282
:1006C000616E64652070617261206C61207472617A
:1006D0006D612E0056656E74616E612064652074D4
:1006E00072616E736D6973696F6E206C6C656E619B
:1006F0002E204E6F20736520707565646520656ED1
:1007000076696172206C61207472616D6120656E22
:100710002065737465206D6F6D656E746F2E0000BB
:10072000000000230026002900000000002400270C
:10073000002A0000000000250028002B000404040B
:10074000040404040402020202020203030303037A
:100750000301020408102040800102040810200157
:10076000020408102000540CFC1411241FBECFEF0B
:10077000D8E0DEBFCDBF11E0A0E0B1E0ECE9FEE2E1
:1007800002C005900D92AE34B107D9F727E0AEE470
:10079000B1E001C01D92AD34B207E1F713E0C4EB44
:1007A000D3E004C02197FE010E941917C33BD10773
:1007B000C9F70E945E0D0C9441170C940000109232
:1007C000E8061092E9061092EA061092EB061092E3
:1007D000EC061092EE061092ED061092F0061092C2
:1007E000EF061092FD06E1EFF6E0119286E0ED3F94
:1007F000F807D9F78FEF9FEF9093FF068093FE06DF
:1008000010920107109200071092020708953FB757
:10081000F8948091290290912A02A0912B02B09124
:100820002C0226B5A89B05C02F3F19F00196A11DEB
:10083000B11D3FBFBA2FA92F982F8827BC01CD012A
:10084000620F711D811D911D42E0660F771F881F89
:10085000991F4A95D1F708958F929F92AF92BF92B8
:10086000CF92DF92EF92FF924B015C010E9407044E
:100870006B017C010E9407046C197D098E099F0998
:10088000683E734081059105A8F321E0821A910822
:10089000A108B10888EEC80E83E0D81EE11CF11C47
:1008A00081149104A104B10429F7FF90EF90DF9027
:1008B000CF90BF90AF909F908F9008952FB7F894EE
:1008C0006091250270912602809127029091280262
:1008D0002FBF0895AF92BF92CF92DF92EF92FF9217
:1008E0000F931F93CF93DF936C017B018B01040F58
:1008F000151FEB015E01AE18BF08C017D10759F0F4
:100900006991D601ED91FC910190F081E02DC60135
:100910000995892B79F7C501DF91CF911F910F912F
:10092000FF90EF90DF90CF90BF90AF900895FC01C3
:10093000538D448D252F30E0842F90E0821B930B44
:10094000541710F0CF96089501970895FC01918DEA
:10095000828D981761F0A28DAE0FBF2FB11D5D96ED
:100960008C91928D9F5F9F73928F90E008958FEF8F
:100970009FEF0895FC01918D828D981731F0828D43
:10098000E80FF11D858D90E008958FEF9FEF08959A
:10099000FC01918D228D892F90E0805C9F4F821BFE
:1009A00091098F7399270895BF92CF92DF92EF92AA
:1009B000FF920F931F93CF93DF93EC016A017B01AA
:1009C0008CE296E00E94C804892BF1F40E945E0438
:1009D0006C197D098E099F0961327E44810591055C
:1009E00060F0188280E0DF91CF911F910F91FF900E
:1009F000EF90DF90CF90BF90089561E070E080E0CD
:100A000090E00E942C04DCCF8CE296E00E94A604C9
:100A10008032B1F28D30A1F297EF980F923080F2D0
:100A20008E01BB24B394F80181938F018CE296E090
:100A30000E94C804892BB9F40E945E046C197D09D8
:100A40008E099F0961327E448105910528F0CB0D06
:100A5000D11D188281E0C7CF61E070E080E090E0B6
:100A60000E942C04E3CF8CE296E00E94A604803220
:100A700071F38D3061F397EF980F923040F39EE061
:100A80009B15A0F2B394CFCF8CE296E00E94C804ED
:100A900021E0892B09F420E0822F089580E090E086
:100AA000892B29F00E94440581110C9400000895BF
:100AB000FC01A48DA80FB92FB11DA35ABF4F2C91D3
:100AC000848D90E001968F739927848FA689B789CA
:100AD0002C93A089B1898C91837080648C93938DC1
:100AE000848D981306C00288F389E02D80818F7D64
:100AF00080830895EF92FF920F931F93CF93DF931C
:100B0000EC0181E0888F9B8D8C8D98131AC0E88949
:100B1000F989808185FF15C09FB7F894EE89FF8918
:100B20006083E889F98980818370806480839FBFB6
:100B300081E090E0DF91CF911F910F91FF90EF90B6
:100B40000895F62E0B8D10E00F5F1F4F0F731127C6
:100B5000E02E8C8D8E110CC00FB607FCFACFE88901
:100B6000F989808185FFF5CFCE010E945805F1CF2C
:100B7000EB8DEC0FFD2FF11DE35AFF4FF0829FB775
:100B8000F8940B8FEA89FB8980818062CFCF0F9325
:100B90001F93CF93DF938C01D0E0C0E0F801EC0FFE
:100BA000FD1F6491662341F08CE296E00E947A0575
:100BB000892B11F02196F2CFCE01DF91CF911F91B9
:100BC0000F910895CF93DF93EC01888D8823B9F0BE
:100BD000AA89BB89E889F9898C9185FD03C0808148
:100BE00086FD0DC00FB607FCF7CF8C9185FFF2CFC5
:100BF000808185FFEDCFCE010E945805E9CFDF91BE
:100C0000CF910895209190013091910128173907D3
:100C100071F490918E0180918F01981741F0E091CD
:100C20008E01F0E0E25BFE4F808190E008958FEF4F
:100C30009FEF08950895EF92FF920F931F93CF9324
:100C4000DF93DC015C96ED90FC905D97E114F1047C
:100C500079F481E090E013969C938E93129790E044
:100C600080E0DF91CF911F910F91FF90EF90089559
:100C70005196ED91FC91529750968C915097982FE8
:100C800090950FB75E962C915E97122F127021FDF2
:100C90006095F8942081112319F1282B2083E70116
:100CA0002197F1F728E0462F50E0308160FF1AC00D
:100CB000382B3083E7012197F1F7BA0175956795D5
:100CC000215089F7112381F08081892380830FBF10
:100CD0005C968D919C910197F1F781E090E0C1CFF6
:100CE0002923DCCF3923E5CF9081892BEFCF2091C9
:100CF0009001309191012817390761F480918F019B
:100D000020918E0190E0805C9F4F821B91098F7330
:100D10009927089590E080E0089520919001309106
:100D2000910128173907B9F490918E0180918F01B4
:100D3000981789F0E0918E01F0E0E25BFE4F808130
:100D400020918E0130E02F5F3F4F2F733327209388
:100D50008E0190E008958FEF9FEF089590E080E07E
:100D600008953F924F925F926F927F928F929F92DF
:100D7000AF92BF92CF92DF92EF92FF920F931F93A9
:100D8000CF93DF93782EE89477F802E010E0612C9F
:100D900081E090E0272D30E0E901D595C795D59504
:100DA000C795DC2FA901E4E055954795EA95E1F751
:100DB000342E5901F5E0B594A794FA95E1F75A2D30
:100DC000D901E6E0B595A795EA95E1F7F901F59522
:100DD000E795EC27EA25EA27E0FBEE24E0F8F12C82
:100DE000F701EE0FFF1FF3E035952795FA95E1F730
:100DF0002427A226AA26A0FACC24C0F8D12C96013A
:100E0000220F331F220F331F2E2B4C2747254A2733
:100E10004170422B61F5FB01608283E0AA0FBB1F8A
:100E20008A95E1F7D170AD2B50FB882480F8912C86
:100E3000880C991C880C991C8A2A30FA442440F8A2
:100E4000512CC201880F991F8829DF91CF911F91E2
:100E50000F91FF90EF90DF90CF90BF90AF909F9059
:100E60008F907F906F905F904F903F9008950130EA
:100E7000110521F482E0FB018083CFCF41509C011A
:100E800001C0220F4A95EAF772266624639401E0B6
:100E900010E080CF0F931F93CF93DF93682F70E004
:100EA000EB01D595C795AB01559547955595479558
:100EB00033E0759567953A95E1F7282F217030E07A
:100EC000220F331F220F331F8B0176E0000F111FFB
:100ED0007A95E1F7202B9C2F982791709627292B44
:100EE000AC2FA170B0E0E4E0AA0FBB1FEA95E1F7D8
:100EF000922F9A2BE42FE170F0E09F01F5E0220F92
:100F0000331FFA95E1F7292B982F94279170962794
:100F1000990F922B4C274170462788E0489FA001EB
:100F20001124892F842BDF91CF911F910F91089568
:100F300089EC96E00E94770621E002970CF420E00D
:100F4000822F0895CF93DF93C82F82958F700E94D0
:100F50004A07D82F8C2F8F700E944A07C82F6D2FF9
:100F600089EC96E00E941B06019741F46C2F89ECF6
:100F700096E00E941B0621E0019709F020E0822FF5
:100F8000DF91CF9108950C94A207962728E0AC0139
:100F9000880F991F57FF04C031E2832730E1932760
:100FA0002150A9F708957F928F929F92AF92BF929E
:100FB000CF92DF92EF92FF920F931F93CF93DF9325
:100FC00000D000D000D0CDB7DEB7D82EE62EF42E5C
:100FD000722EC32E58018EE70E94A207811115C000
:100FE00082E026960FB6F894DEBF0FBECDBFDF912C
:100FF000CF911F910F91FF90EF90DF90CF90BF9016
:10100000AF909F908F907F900895D982EA82FB8263
:101010001C82BD820E83CE0101967C014E0197E0B9
:10102000890E911C1FEFDD24DA94F70101917F01F5
:10103000602F812F9D2D0E94C507182FD92E802F3C
:101040000E94A207882361F28E149F0471F7E72C97
:10105000FC2CAE0CBF1CAE14BF0481F0F701019153
:101060007F01602F812F9D2D0E94C507182FD92E3B
:10107000802F0E94A2078111EECFB2CF8D2D0E944A
:10108000A207882309F4ACCF812F0E94A2078823EE
:1010900009F4A6CF8EE70E94A207882309F4A0CF07
:1010A00080E09FCFCF93DF93C8EED6E0682F8E8984
:1010B0009F890E94C5079F8B8E8BDF91CF910895EA
:1010C000FC0101900020E9F73197AF01481B590B53
:1010D000BC018CE296E00C946A04CF93DF930E94EB
:1010E000C705EC0188E291E00E9460088C0F9D1F0B
:1010F000DF91CF9108950F931F93CF93C42F442373
:1011000091F09091470720914607921B2091480744
:10111000921748F084ED96E00E946D0880E0CF9130
:101120001F910F910895693E93E0790740F08CE993
:1011300096E00E946D0885E080931906EFCF8B0141
:101140002DE232E0482F61E080912B060E94D30708
:10115000813069F38111EFCFCC2329F080914707CB
:101160008F5F809347070E945E046093150670931B
:101170001606809317069093180682E0809319064E
:1011800081E0CDCF8F929F92AF92BF920F931F932A
:10119000CF93DF93CDB7DEB7A1970FB6F894DEBF3C
:1011A0000FBECDBF19A2423008F44AE08E010F5D98
:1011B0001F4F842E912CB12CA12CA50194010E94CB
:1011C0008716E62FB901CA01EA30F4F4E05DD801D0
:1011D000EE938D01232B242B252B79F790E080E0D3
:1011E000109719F0CD010E946008A1960FB6F894EF
:1011F000DEBF0FBECDBFDF91CF911F910F91BF908A
:10120000AF909F908F900895E95CE1CFCF92DF92ED
:10121000EF92FF92CF93DF936B017C016DE28CE242
:1012200096E00E947A05EC0166277727CB016C19BE
:101230007D098E099F094AE00E94C2088C0F9D1FFC
:10124000DF91CF91FF90EF90DF90CF900895CF93F3
:10125000DF93BC0190E080E04AE00E94C208EC010C
:1012600088E291E00E9460088C0F9D1FDF91CF9172
:101270000895CF93DF93462F682F70E090E080E0D1
:101280000E94C208EC0188E291E00E9460088C0F85
:101290009D1FDF91CF9108950F931F93CF93DF93FD
:1012A000CDB7DEB72A970FB6F894DEBF0FBECDBF1D
:1012B00086ED90E00E94C7050E945E044AE00E940D
:1012C000C20888E291E00E94600880911A02909121
:1012D0001B0220911C0230911D0239832A839B83BB
:1012E0008C8380911C0690911D069D838E83809136
:1012F0000101909102019F83888780910001898775
:101300001A860AE010E09E012F5F3F4F40E064E044
:1013100080912B060E94D30781111CC082E080932C
:1013200019060E945E04609315067093160680935A
:1013300017069093180688E690E00E946D082A969A
:101340000FB6F894DEBF0FBECDBFDF91CF911F91D6
:101350000F91089588EA90E0F0CF3F924F925F920C
:101360006F927F928F929F92AF92BF92CF92DF92B5
:10137000EF92FF920F931F93CF93DF93CDB7DEB71A
:1013800060970FB6F894DEBF0FBECDBF4B015C0176
:101390008A0186EB91E00E94C7054AE0C501B401CD
:1013A0000E94C20884EB91E00E94C705C8010E9418
:1013B00027098CE296E00E94E2050E945E046B0120
:1013C0007C01BC01A601CE0101960E94D4048823B1
:1013D00071F16BE271E0CE0101960E942A17892B10
:1013E00031F5B701A601CE0101960E94D404382E32
:1013F000811122C08AE791E00E946D08832D6096DA
:101400000FB6F894DEBF0FBECDBFDF91CF911F9115
:101410000F91FF90EF90DF90CF90BF90AF909F9093
:101420008F907F906F905F904F903F90089583E9E9
:1014300091E00E946D086CC04AE050E070E060E00E
:10144000CE0101960E9418152B013C01B701A6019F
:10145000CE0101960E94D404382E811103C08FE57D
:1014600091E0CACFCE0101960E9403168414950420
:10147000A604B70419F40817190719F08DE391E0D1
:10148000D8CF99249A94B12CA12C1CC061E070E0B3
:1014900080E090E00E942C0419C08CE296E00E944B
:1014A000A604803279F08D3069F097EF980F923072
:1014B00048F090ED980F9A3068F5892F9FEF9912B8
:1014C00038C0982EA016B10608F098CF8CE296E0AE
:1014D0000E94C804892B09F70E945E046C197D09DB
:1014E0008E099F0961327E448105910578F287E17A
:1014F00091E00E94C705B50190E080E04AE00E94BB
:10150000C20885E191E00E94C705C8010E94270931
:10151000312C74CF9FEB980F963010F48753CECFB9
:101520009FE9980F963010F48755C8CF81EF90E06F
:1015300080CFF501E35DFD4F492D90E14902900117
:101540001124822B8083C50101965C0199249A9411
:10155000B9CF0F931F93CF93DF93C3E0D7E08C8570
:101560008823B1F10E945E04088519852A853B8590
:10157000601B710B820B930B613D774081059105D8
:1015800038F18F81853040F085E080931906DF9136
:10159000CF911F910F9108958F5F8F830E945E04FA
:1015A000688779878A879B874D815E81493E83E082
:1015B000580750F769817A818B819C810E94AD091F
:1015C000882311F36D817E8140E088810E947B0831
:1015D0002D9627E0C434D20711F6D9CF1F920F926F
:1015E0000FB60F9211242F933F938F939F93AF9336
:1015F000BF938091250290912602A0912702B0917D
:1016000028023091240223E0230F2D3758F501964C
:10161000A11DB11D209324028093250290932602E0
:10162000A0932702B09328028091290290912A0268
:10163000A0912B02B0912C020196A11DB11D8093A7
:10164000290290932A02A0932B02B0932C02BF91FF
:10165000AF919F918F913F912F910F900FBE0F905F
:101660001F90189526E8230F0296A11DB11DD2CF19
:101670001F920F920FB60F9211242F933F934F9307
:101680005F936F937F938F939F93AF93BF93EF93EA
:10169000FF938CE296E00E945805FF91EF91BF9175
:1016A000AF919F918F917F916F915F914F913F91FA
:1016B0002F910F900FBE0F901F9018951F920F92B1
:1016C0000FB60F9211242F938F939F93EF93FF9355
:1016D000E0913C06F0913D068081E0914206F09158
:1016E000430682FD1BC09081809145068F5F8F73FA
:1016F00020914606821741F0E0914506F0E0E45D56
:10170000F94F958F80934506FF91EF919F918F91AF
:101710002F910F900FBE0F901F9018958081F4CFDE
:101720001F920F920FB60F9211242F933F934F9356
:101730005F936F937F938F939F93AF93BF93EF9339
:10174000FF93E0919001F0919101309749F0A685C7
:10175000B7858585968D91FF14C09C918923A1F44E
:10176000FF91EF91BF91AF919F918F917F916F9179
:101770005F914F913F912F910F900FBE0F901F904F
:1017800018959C91892361F7A389B4899C918589D7
:10179000809589238C93868997890197F1F7608DCD
:1017A000718DA685B785558538E020E0CB0101977E
:1017B000F1F7822F90E095958795282F4C9145233E
:1017C00009F02068315091F7868D81FD2095809138
:1017D0008F0190E001968F73992730918E01381711
:1017E00099F0A0918F01B0E0A25BBE4F2C93809343
:1017F0008F01828D938D0197F1F7A389B4898C9124
:101800009589892B8C93ACCF868D8160868FF1CFA3
:1018100090E0FC01E857F94F2491FC01EF5AF84F92
:101820003491FC01E35CF84FE491EE23C9F02223EC
:1018300039F0233001F1A8F4213019F1223029F1D7
:10184000F0E0EE0FFF1FED5CF84FA591B4918FB75C
:10185000F894EC91611126C030953E233C938FBFE4
:1018600008952730A9F02830C9F0243049F7809135
:1018700080008F7D03C0809180008F7780938000EF
:10188000DFCF84B58F7784BDDBCF84B58F7DFBCF71
:101890008091B0008F778093B000D2CF8091B0005C
:1018A0008F7DF9CF3E2BDACF0F931F93CF93DF932A
:1018B00010922F0610922E0688EE93E0A0E0B0E082
:1018C0008093300690933106A0933206B09333068E
:1018D00028E031E030932D0620932C0625EC30E0F3
:1018E000309339062093380624EC30E030933B06E1
:1018F00020933A0620EC30E030933D0620933C06DE
:1019000021EC30E030933F0620933E0622EC30E09D
:10191000309341062093400626EC30E03093430696
:1019200020934206109245061092460610924706F2
:10193000109248061092CC061092CB068093CD06EA
:101940009093CE06A093CF06B093D0068AE191E0A3
:101950009093CA068093C9061092E0061092DF06A3
:101960001092E2061092E1061092E4061092E3064D
:101970001092E6061092E5066091E7066E7F6D7F95
:101980006093E7066695617081E068278AE00E94AF
:10199000080C4BE557E0FA01649187E497E0FC01FD
:1019A0002491222399F030E0220F331FF901E75DE3
:1019B000F84FA591B491F901ED5CF84F2591349160
:1019C0002FB7F8943C91632B6C932FBFFA0144918D
:1019D0004093D906FC018491E82FF0E0EE0FFF1F41
:1019E000ED5CF84F859194919093DB068093DA0635
:1019F0000CE517E0F8012491C8E4D7E0FE018491DA
:101A00008823C9F090E0880F991FFC01E75DF84F2B
:101A1000A591B491FC01ED5CF84F459154913FB70D
:101A2000F8949C91822F809598239C93FA01908141
:101A3000892380833FBF8091E70681FD04C061E078
:101A40008BE00E94080C8BE08093D506F80104918E
:101A50000093D606FE01C491EC2FF0E0EE0FFF1FBD
:101A6000E15EF84F859194919093D8068093D706C4
:101A7000109246071092470783E0809348078093AF
:101A8000440710924507E3E0F7E084E497E0108212
:101A90001182128213821482168215821782108696
:101AA00011861286138614863D968E179F0779F746
:101AB000DF91CF911F910F910C94DF03CF93DF93B0
:101AC00000D0CDB7DEB7789484B5826084BD84B58C
:101AD000816084BD85B5826085BD85B5816085BD29
:101AE00080916E00816080936E00109281008091E1
:101AF0008100826080938100809181008160809369
:101B00008100809180008160809380008091B1008D
:101B100084608093B1008091B00081608093B000B8
:101B200080917A00846080937A0080917A0082604C
:101B300080937A0080917A00816080937A0080910E
:101B40007A00806880937A001092C10090E080E073
:101B50000E946116082F81E090E00E946116102F0C
:101B6000082F0F3F100711F400EC12E1C801019794
:101B70008E3F9F4F10F000EC12E16801F12CE12C38
:101B800060E079E08DE390E0A70198010E9487165C
:101B900021503109410951095695479537952795A7
:101BA000E0913C06F0913D0682E080830115114EE4
:101BB00021F0211590E13907A8F0E0913C06F09161
:101BC0003D06108260E874E88EE190E0A70196017E
:101BD0000E948716215031094109510956954795B0
:101BE00037952795E0913806F09139063083E091DA
:101BF0003A06F0913B06208310924406E09140069D
:101C0000F091410686E08083E0913E06F0913F0628
:101C1000808180618083E0913E06F0913F06808163
:101C200088608083E0913E06F0913F068081806865
:101C30008083E0913E06F0913F0680818F7D808316
:101C40001092E4061092E3061092E2061092E1066A
:101C50001092E0061092DF0660E079E08DE390E0FC
:101C6000A70196010E94A916B901C9010397243062
:101C7000310510F481E090E09093E6068093E5064C
:101C80009091D506963108F05FC0F901F695E79579
:101C9000E431F10508F4DBC07397F093E006E093BC
:101CA000DF066630710508F4D5C0B90165507109C9
:101CB0007093E2066093E106B901660F771F260F65
:101CC000371F36952795369527952D30310508F421
:101CD000C4C02C5031093093E4062093E3062091D0
:101CE000680084E0983048F031E09E3008F430E03D
:101CF00081E001C0880F3A95EAF7822B8093680053
:101D00002DE630E0983050F02BE630E09E3030F099
:101D10002CE630E0963110F030E020E03093DD0624
:101D20002093DC06292F30E0983008F099C081E03C
:101D300001C0880F9A95EAF78093DE068091E50648
:101D40009091E6060197F1F78091E3069091E40601
:101D5000892B49F1E0919001F091910126E0E93C55
:101D6000F20709F1309739F0A389B4899C918589EC
:101D7000809589238C938091E7068E7F8093E70678
:101D800010928F0110928E0189EC96E09093910150
:101D900080939001E091DC06F091DD0680819091C6
:101DA000DE06892B808368EE73E080E090E00E947D
:101DB0002C0482E080932B06E4E4EE2EE7E0FE2E76
:101DC000CC24CA94DC2C65E0B62E72E0A72E80915C
:101DD00019068111EDC0809123028111EEC080911E
:101DE000220281118AC111E08CE296E00E94C804AF
:101DF000892B09F4DDC08CE296E00E94A604E091F4
:101E000016028A3019F08D3009F032C2EE2309F43F
:101E1000CFC0F0E0EA56FE4F108247E050E067E3A3
:101E200071E086E991E00E943317892B09F057C0D1
:101E30006AE370E086E991E00E941F170097E9F4D9
:101E400088E092E00E946D0810921602CDCFE1E08A
:101E5000F0E023CF61E070E02BCF21E030E03BCF1A
:101E60009E3040F42850310981E001C0880F2A9546
:101E7000EAF762CF2E503109F7CF01960E94031680
:101E8000082F682E792E6114710419F48DEE91E0FB
:101E9000D9CF692F90E080E00E946916602F81E021
:101EA00090E00E94691683ED91E00E94C705C3018E
:101EB0000E9427098DEB91E00E946D0864E670E0B6
:101EC00080E090E00E942C0488E198E00FB6F8943E
:101ED000A895809360000FBE90936000FFCF45E00F
:101EE00050E06FE371E086E991E00E9433173C0116
:101EF000892B09F075C18EE893E00E946D0865E4B6
:101F000071E086E991E00E942A16009791F125E0A0
:101F10006216710491F12FEF621A720A23E06216C1
:101F2000710499F44AE050E070E060E00E941815F6
:101F30006093920170939301809394019093950123
:101F400065E471E090E080E0DECF24E06216710489
:101F500039F40E9403169093020180930101F0CF9F
:101F600025E06216710461F70E9403168093000158
:101F7000E7CF85E068167104A9F4209092013090B3
:101F80009301409094015090950121143104410433
:101F9000510441F0609001017090020161147104DC
:101FA00009F0C9C089E493E00E946D0810921602FE
:101FB00080912302882309F4A0C080912202882303
:101FC00009F49BC080911906811197C0809100018E
:101FD000863008F459C185E01092460710924707F1
:101FE000809348078093440710921B0610921A06AC
:101FF00010921E0610921F061092200610922106C3
:1020000040901A0250901B0260901C0270901D02BA
:102010004092220650922306609224067092250672
:1020200020910101309102012115310571F050E03C
:1020300040E0C301B2016150710981099109620F49
:10204000731F841F951F0E94871630931D062093CF
:102050001C06109226060E945E0460932706709369
:1020600028068093290690932A0610921E02109249
:102070001F0210922002109221021092170281E09A
:1020800080931802109219028DEB93E00E94C7050D
:1020900010924507E3E0F7E010821182128213826A
:1020A0001482168215821782108611861286138674
:1020B00014863D9627E0E434F20771F74AE0C30145
:1020C000B2010E94C20883EB93E00E94C7056091B1
:1020D0001C0670911D0690E080E04AE00E94C20854
:1020E0008BEA93E00E946D0881E0809303011092D7
:1020F00023028EE396E00E946D08809119068230DB
:1021000009F4FDC108F0C4C0882309F4DCC05DE017
:10211000752E66246394813009F441C180E090E01B
:10212000892B09F454CE0E944405882309F44BCE30
:102130000E94000048CE80910001811102C01093DE
:10214000000180910001863010F0B092000199EEFC
:10215000691693E0790698F081E193E00E94C70543
:10216000B30190E080E04AE00E94C20885E093E07D
:102170000E94C70588EE93E00E94270917CF20929E
:102180001A0230921B0240921C0250921D021093C0
:1021900023021093220210930301109219028AEE77
:1021A00092E00E94C7054AE0C201B1010E94C20844
:1021B00089ED92E00E94C7056091010170910201D2
:1021C00090E080E04AE00E94C2088CEC92E00E941D
:1021D000C7056AE070E0809100010E94390934CEA1
:1021E00045E050E067E471E086E991E00E94331732
:1021F000892B09F029CE85EA92E00E946D08409073
:10220000920150909301609094017090950180919B
:102210001A0290911B02A0911C02B0911D0284151C
:102220009505A605B70539F486E792E00E946D088A
:102230001093230209CE85E492E00E94C7054AE08C
:10224000C301B2010E94C20889E392E00E94C7055F
:1022500060911A0270911B0280911C0290911D02E4
:102260004AE00E94C20888E291E00E946008ECCD3A
:10227000EF3708F0B9CD91E09E0F90931602F0E091
:10228000EA56FE4F8083B0CD8111A6CE81E0A4CE68
:10229000843009F470C308F464C3853009F03ECF7C
:1022A00080912202882361F0109222021092030191
:1022B00010921802109223028BEB95E00E946D0899
:1022C000109219062BCF80912202882309F426CF81
:1022D00080910301882369F00E944C090E945E04EA
:1022E0006093150670931606809317069093180650
:1022F00015CF80911802811150C010921B061092C8
:102300001A06209101013091020140901A0250906A
:102310001B0260901C0270901D022115310571F0A6
:1023200050E040E0C301B201615071098109910997
:10233000620F731F841F951F0E94871630931D061E
:1023400020931C0610921E0610921F061092200663
:102350001092210640922206509223066092240693
:1023600070922506109226060E945E04609327064E
:10237000709328068093290690932A0610921E02D5
:1023800010921F0210922002109221021092170246
:1023900081E0809318021092190281E0AAC0909106
:1023A000450780914407981708F086C020901E02C8
:1023B00030901F02409020025090210280911A021A
:1023C00090911B02A0911C02B0911D0228163906A3
:1023D0004A065B0608F070C00091010110910201ED
:1023E000093E23E0120710F008EE13E0821993096A
:1023F0008017910708F48C0190901702A801C20180
:10240000B1010E94AD09882309F456C00E945E0400
:1024100020901E0230901F02409020025090210216
:10242000A091450720914407A21708F045C0E3E0BA
:10243000F7E030E020E04485411137C0729EA001F2
:10244000739E500D1124FA01ED5FF84F90822182A6
:102450003282438254821683058317826087718794
:10246000828793876486AF5FA093450741E0B801F8
:10247000892D0E947B0880911E0290911F02A091DD
:102480002002B0912102800F911FA11DB11D8093E8
:102490001E0290931F02A0932002B093210280910C
:1024A00017028F5F809317027ACF2F5F3F4F3D96C1
:1024B0002530310509F0BFCF80914507882319F0F9
:1024C000A09219062BCE40911E0250911F026091DE
:1024D00020027091210280911A0290911B02A0911A
:1024E0001C02B0911D02481759076A077B0720F0AC
:1024F00084E08093190612CEB09219060FCE80E4C4
:1025000095E00E94C7050E945E044AE00E94C2084E
:1025100080E395E00E94C7050E949807682F70E04D
:1025200090E080E04AE00E94C20884E295E00E94C8
:10253000C7050E949807811157C280E391E00E946D
:10254000600888E291E00E9460080E949807882352
:1025500009F464C081EE94E00E946D0801E08AE015
:10256000782E99E0692E28E0522E36E0432E44E082
:10257000942E0E949807882309F46DC00E94980742
:10258000882309F468C01A82198289EC96E00E94B7
:102590008D06BE016E5F7F4F0E94B106382E89EC1A
:1025A00096E00E948D06BE016F5F7F4F0E94B106CC
:1025B0009A81923009F41BC29981923009F417C2B2
:1025C00090E1399E90011124182F122B85EA94E096
:1025D0000E94C70560E170E0812F0E9439090E94C6
:1025E0005E04609315067093160680931706909309
:1025F0001806E091E806EB3008F088C0F0E0ED5FE7
:10260000FC4E0C94191751137A13821392139A13D8
:10261000A213AC13C613E913EE13F9138091190634
:102620008230C9F40E945E040091150610911606CE
:102630002091170630911806601B710B820B930BCB
:10264000613D77408105910530F088E095E00E947A
:102650006D080E94A90A0E94A90A80911906823079
:1026600009F05CCD80914507811158CD809103011F
:10267000811154CD40911E0250911F0260912002A1
:102680007091210280911A0290911B02A0911C026C
:10269000B0911D02481759076A077B0708F47DCEE1
:1026A00027CF1E3709F065CF1092E9061092EA068F
:1026B0001092EB061092EC061092EE061092ED06C8
:1026C0001092F0061092EF061092FD06E1EFF6E090
:1026D000119226E0ED3FF207D9F7D092FF06C092A3
:1026E000FE06109201071092000710920207009355
:1026F000E8063FCF1093E906812F0E945208A0926E
:10270000E80637CF8FEF810F863018F00E94DF0385
:1027100030CF1093EA06812F0E94520883E0809305
:10272000E80627CF1093EB06812F0E945208909263
:10273000E8061FCF1093EC06812F0E945208B0923A
:10274000E80617CF1092ED061093EE06812F0E9437
:1027500052084092E8060DCF8091ED069091EE066A
:10276000812B9093EE068093ED06812F0E945208F4
:102770008091ED069091EE06893E23E0920730F6B7
:10278000892B11F488E0CBCF87E0C9CFE091FD061B
:10279000EC3040F481E08E0F8093FD06F0E0E851CC
:1027A000F94F1187812F0E94520880910007909164
:1027B0000107019690930107809300072091ED0691
:1027C0003091EE068217930708F4D3CE5092E806B4
:1027D000D0CE109302076092E806CBCE809102071C
:1027E000982F812F9093F0068093EF067092E80661
:1027F000C0CE1E3709F08ACF2091EF063091F00647
:102800008091FE069091FF062817390709F07ECFC8
:102810002090E9063090EA061091EC060E94DF0352
:1028200080E994E00E94C705622D70E090E080E0AE
:1028300040E10E94C20886E894E00E94C705632D2B
:1028400070E090E080E040E10E94C2088FE794E0F1
:102850000E94C7056AE070E0812F0E94390981E07B
:1028600028120BC022E0321661F083E0381281CECC
:102870000E94A90AA09219067CCE9FEF291279CE58
:10288000F1CF86E694E00E94C7056AE070E0812FF0
:102890000E94390980910301882379F011110DC03C
:1028A0008AE294E00E946D081092030110921906CA
:1028B0008DED93E00E946D085CCE80911906823008
:1028C00009F057CE87E494E00E946D089091450787
:1028D000E3E0F7E080E030E020E04485442359F075
:1028E00040814F5F141738F045815681240F351F02
:1028F0008F5F148691503D96EE16FF0671F7909308
:102900004507882309F435CE40911A0650911B06DD
:10291000840F952F911D90931B0680931A0680912A
:102920001E0690911F06A0912006B0912106820FED
:10293000931FA11DB11D80931E0690931F06A093A7
:102940002006B0932106809148078F5F909146073B
:10295000212F291B281710F41093460700931906FE
:1029600008CE80910301882319F00E944C09D6CB30
:102970000E94A90AD3CB809119028111CFCB10E01C
:1029800000E030E020E040E065E080912B060E940E
:10299000D307182F811114C085E595E00E946D08BA
:1029A00081E080931902109222021092030110928A
:1029B0001802109219068CEF95E00E946D08AECBBC
:1029C0008DE895E00E946D0884E795E00E94C705B8
:1029D000612F70E090E080E04AE00E94C20888E247
:1029E00091E00E946008DCCF84E391E0A8CD88EB01
:1029F00094E00E946D082FCE8AE191E09093CA0680
:102A00008093C9068091900190919101895C9640D4
:102A100071F4E091DC06F091DD0690818091DE0694
:102A200080958923808310929101109290010895DE
:102A3000B0E0A0E0EEE1F5E10C94D4165C016B018E
:102A40007A016115710519F0FB0191838083E1140E
:102A5000F10449F0C7010297839728F060E070E025
:102A6000CB019CC05E01E5012196F5011081812F0B
:102A700090E00E942116892BA9F71D3209F056C05B
:102A80002196F501118101E0E114F10409F4AEC0D1
:102A9000F0E1EF16F10409F08EC0103341F48881A3
:102AA0008F7D883509F083C0198122960260E0E1AC
:102AB000EE2EF12C88248A94982CA82CFFE0BF2EAF
:102AC00020E060E070E0CB0127010F2C000C6608CD
:102AD0007708FE0150ED352E310E39E0331538F40C
:102AE0003FEB310F3A31A0F549EC342E310E3E1454
:102AF0001F04BCF52F3FB9F086169706A806B90645
:102B000070F1A30192010E947716232D30E050E06E
:102B100040E0620F731F841F951F621773078407BD
:102B20009507E8F021E021961081D3CF1B3221F4E4
:102B3000E5012296F501118100E0A6CF78E0E72EAD
:102B4000F12C88248A94982CA82C6FE1B62EB8CF4B
:102B50003FE9310F3A3128F439EA332EC7CF2FEF4E
:102B6000E2CFC114D10431F02223E9F02197F6011C
:102B7000D183C08300FF07C09095809570956195C3
:102B80007F4F8F4F9F4F2F3F49F482E290E0909309
:102B90004C0780934B076FEF7FEFCB01CDB7DEB7CC
:102BA000E1E10C94F01601FFE5CF2297E0CF10E3AE
:102BB000E114F10419F23AE0E316F104E9F080E1DE
:102BC000E816F10409F473CFE8E0EE16F10409F415
:102BD000B8CF6FEF7FEFCB0197010F2C000C440BA8
:102BE000550B0E94871649015A016ACF103309F428
:102BF00056CF9AE0E92EF12C89E9882E982CA82C42
:102C000089E1B82E5DCFFC0188279927E8942191AE
:102C10002032E9F3293010F02E30C8F32B3241F086
:102C20002D3239F4689404C00E945616820F911D0B
:102C3000219120532A30C0F31EF4909581959F4F27
:102C4000089591110C945E16803219F089508550C8
:102C5000C8F7089549E457E00E942F160895FA0135
:102C6000A191B081009719F41097E1F0CD01DC013A
:102C7000CD010D90002011F4C00113C0FB01219182
:102C8000222319F02015D9F7F3CFFB01219120154C
:102C900019F41E92119606C02223C1F70D90002050
:102CA000A1F7D001FA01A193B08308957AE0979F2C
:102CB000902D879F802D910D1124089599278827A5
:102CC0000895F999FECF92BD81BDF89A992780B5F4
:102CD0000895262FF999FECF1FBA92BD81BD20BD60
:102CE0000FB6F894FA9AF99A0FBE01960895DB018F
:102CF0008F939F930E94C816BF91AF91A29F800DA2
:102D0000911DA39F900DB29F900D11240895A1E2F3
:102D10001A2EAA1BBB1BFD010DC0AA1FBB1FEE1F55
:102D2000FF1FA217B307E407F50720F0A21BB30BA0
:102D3000E40BF50B661F771F881F991F1A9469F71C
:102D400060957095809590959B01AC01BD01CF0178
:102D50000895052E97FB1EF400940E94C01657FD9F
:102D600007D00E94871607FC03D04EF40C94C016BF
:102D700050954095309521953F4F4F4F5F4F0895A7
:102D800090958095709561957F4F8F4F9F4F0895D7
:102D90000E940A17A59F900DB49F900DA49F800DCF
:102DA000911D112408952F923F924F925F926F923E
:102DB0007F928F929F92AF92BF92CF92DF92EF92CB
:102DC000FF920F931F93CF93DF93CDB7DEB7CA1B4C
:102DD000DB0B0FB6F894DEBF0FBECDBF09942A8877
:102DE000398848885F846E847D848C849B84AA841F
:102DF000B984C884DF80EE80FD800C811B81AA81AC
:102E0000B981CE0FD11D0FB6F894DEBF0FBECDBF76
:102E1000ED010895A29FB001B39FC001A39F700D63
:102E2000811D1124911DB29F700D811D1124911DD2
:102E30000895EE0FFF1F0590F491E02D0994FC0119
:102E40008191861721F08823D9F799270895319722
:102E5000CF010895FB01DC018D91019080190110D3
:102E6000D9F3990B0895FB01DC014150504030F03B
:102E70008D910190801919F40020B9F7881B990BE6
:102E8000089513E0C4EBD3E004C0FE010E941917BB
:102E90002196C53BD107C9F7F894FFCF03900101F4
:102EA000000000007A056A049704E205C804A6043D
:102EB000BA04000000001B066A04AE061A06770674
:102EC0008D0602060D0A004441544100302D3100A8
:102ED000322B0053455442415544005354415254FF
:0A2EE0000020005B454E445D000039
:107E0000112484B714BE81FFF0D085E080938100F7
:107E100082E08093C00088E18093C10086E0809377
:107E2000C20080E18093C4008EE0C9D0259A86E02C
:107E300020E33CEF91E0309385002093840096BBD3
:107E4000B09BFECF1D9AA8958150A9F7CC24DD24C4
:107E500088248394B5E0AB2EA1E19A2EF3E0BF2EE7
:107E6000A2D0813461F49FD0082FAFD0023811F036
:107E7000013811F484E001C083E08DD089C08234E0
:107E800011F484E103C0853419F485E0A6D080C0E4
:107E9000853579F488D0E82EFF2485D0082F10E0AE
:107EA000102F00270E291F29000F111F8ED06801E7
:107EB0006FC0863521F484E090D080E0DECF843638
:107EC00009F040C070D06FD0082F6DD080E0C81688
:107ED00080E7D80618F4F601B7BEE895C0E0D1E017
:107EE00062D089930C17E1F7F0E0CF16F0E7DF06D8
:107EF00018F0F601B7BEE89568D007B600FCFDCFD4
:107F0000A601A0E0B1E02C9130E011968C91119780
:107F100090E0982F8827822B932B1296FA010C0160
:107F200087BEE89511244E5F5F4FF1E0A038BF0790
:107F300051F7F601A7BEE89507B600FCFDCF97BE46
:107F4000E89526C08437B1F42ED02DD0F82E2BD052
:107F50003CD0F601EF2C8F010F5F1F4F84911BD097
:107F6000EA94F801C1F70894C11CD11CFA94CF0C13
:107F7000D11C0EC0853739F428D08EE10CD085E9AC
:107F80000AD08FE07ACF813511F488E018D01DD067
:107F900080E101D065CF982F8091C00085FFFCCF94
:107FA0009093C60008958091C00087FFFCCF809118
:107FB000C00084FD01C0A8958091C6000895E0E648
:107FC000F0E098E1908380830895EDDF803219F02E
:107FD00088E0F5DFFFCF84E1DECF1F93182FE3DFCA
:107FE0001150E9F7F2DF1F91089580E0E8DFEE27F6
:047FF000FF270994CA
:027FFE00040479
:00000001FF
