:020000040000FA
:100000000C9463000C948B000C948B000C9485036F
:100010000C9485030C9485030C948B000C948B003A
:100020000C948B000C948B000C948B000C948B0024
:100030000C948B000C948B000C948B000C948B0014
:100040000C94E3020C948B000C9453030C942D033A
:100050000C948B000C948B000C948B000C948B00F4
:100060000C948B000C948B0000000008000201002F
:100070000003040700000000000000000000000072
:1000800023002600290000000000240027002A0089
:1000900000000000250028002B00040404040404D0
:1000A0000404020202020202030303030303010227
:1000B00004081020408001020408102001020408F6
:1000C00010204904EF0611241FBECFEFD8E0DEBF99
:1000D000CDBF22E0A4E6B1E001C01D92A137B20776
:1000E000E1F711E0A0E0B1E0EEE8F2E102C0059036
:1000F0000D92A436B107D9F710E0C2E6D0E004C0F3
:100100002197FE010E944207C136D107C9F70E941C
:1001100032050C943A090C9400003FB7F894809192
:10012000A9019091AA01A091AB01B091AC0126B5B3
:10013000A89B05C02F3F19F00196A11DB11D3FBF1F
:10014000BA2FA92F982F8827BC01CD01620F711DEE
:10015000811D911D42E0660F771F881F991F4A95E8
:10016000D1F70895AF92BF92CF92DF92EF92FF92B4
:100170000F931F93CF93DF936C017B018B01040FCF
:10018000151FEB015E01AE18BF08C017D10759F06B
:100190006991D601ED91FC910190F081E02DC601AD
:1001A0000995892B79F7C501DF91CF911F910F91A7
:1001B000FF90EF90DF90CF90BF90AF900895FC013B
:1001C000538D448D252F30E0842F90E0821B930BBC
:1001D000541710F0CF96089501970895FC01918D62
:1001E000828D981761F0A28DAE0FBF2FB11D5D9665
:1001F0008C91928D9F5F9F73928F90E008958FEF07
:100200009FEF0895FC01918D828D981731F0828DBA
:10021000E80FF11D858D90E008958FEF9FEF089511
:10022000FC01918D228D892F90E0805C9F4F821B75
:1002300091098F739927089581EB91E00E94100135
:1002400021E0892B09F420E0822F089580E090E0DE
:10025000892B29F00E941C0181110C940000089543
:10026000FC01A48DA80FB92FB11DA35ABF4F2C912B
:10027000848D90E001968F739927848FA689B78922
:100280002C93A089B1898C91837080648C93938D19
:10029000848D981306C00288F389E02D80818F7DBC
:1002A00080830895EF92FF920F931F93CF93DF9374
:1002B000EC0181E0888F9B8D8C8D98131AC0E889A2
:1002C000F989808185FF15C09FB7F894EE89FF8971
:1002D0006083E889F98980818370806480839FBF0F
:1002E00081E090E0DF91CF911F910F91FF90EF900F
:1002F0000895F62E0B8D10E00F5F1F4F0F7311271F
:10030000E02E8C8D8E110CC00FB607FCFACFE88959
:10031000F989808185FFF5CFCE010E943001F1CFB0
:10032000EB8DEC0FFD2FF11DE35AFF4FF0829FB7CD
:10033000F8940B8FEA89FB8980818062CFCFCF93BD
:10034000DF93EC01888D8823B9F0AA89BB89E889FD
:10035000F9898C9185FD03C0808186FD0DC00FB6A3
:1003600007FCF7CF8C9185FFF2CF808185FFEDCF21
:10037000CE010E943001E9CFDF91CF910895209105
:10038000A6013091A7012817390771F49091A401B3
:100390008091A501981741F0E091A401F0E0EC599B
:1003A000FE4F808190E008958FEF9FEF08950895AC
:1003B000EF92FF920F931F93CF93DF93DC015C9634
:1003C000ED90FC905D97E114F10479F481E090E008
:1003D00013969C938E93129790E080E0DF91CF91DB
:1003E0001F910F91FF90EF9008955196ED91FC9120
:1003F000529750968C915097982F90950FB75E9684
:100400002C915E97122F127021FD6095F894208137
:10041000112319F1282B2083E7012197F1F728E018
:10042000462F50E0308160FF1AC0382B3083E7013F
:100430002197F1F7BA0175956795215089F7112336
:1004400081F08081892380830FBF5C968D919C9180
:100450000197F1F781E090E0C1CF2923DCCF392368
:10046000E5CF9081892BEFCF2091A6013091A70194
:100470002817390761F48091A5012091A40190E02B
:10048000805C9F4F821B91098F739927089590E09C
:1004900080E008952091A6013091A701281739071F
:1004A000B9F49091A4018091A501981789F0E09189
:1004B000A401F0E0EC59FE4F80812091A40130E0CE
:1004C0002F5F3F4F2F7333272093A40190E00895AF
:1004D0008FEF9FEF08952FB7F8948091AD01909121
:1004E000AE01A091AF01B091B0012FBF8093560231
:1004F00090935702A0935802B09359028EE492E071
:100500000E944A0297FF26C02FB7F8948091AD0150
:100510009091AE01A091AF01B091B0012FBF409179
:100520005602509157026091580270915902841BF3
:10053000950BA60BB70B409152025091530260915C
:1005400054027091550284179507A607B707B0F2B9
:100550008FEF9FEF089590E080E00895FC010190F7
:100560000020E9F73197AF01481B590BBC0181EB23
:1005700091E00C94B2000F931F93CF93DF93EC01A3
:1005800088819981009759F02A813B812617370786
:1005900030F081E0DF91CF911F910F9108958B0191
:1005A0006F5F7F4F0E946D08009759F09983888391
:1005B0001B830A832C813D81232B59F7FC01108278
:1005C000E8CF80E0E7CF1F920F920FB60F92112471
:1005D0002F933F938F939F93AF93BF938091AD01E0
:1005E0009091AE01A091AF01B091B0013091A801FE
:1005F00023E0230F2D3758F50196A11DB11D20933F
:10060000A8018093AD019093AE01A093AF01B09388
:10061000B0018091A9019091AA01A091AB01B09184
:10062000AC010196A11DB11D8093A9019093AA016F
:10063000A093AB01B093AC01BF91AF919F918F910B
:100640003F912F910F900FBE0F901F90189526E8A5
:10065000230F0296A11DB11DD2CF1F920F920FB68C
:100660000F9211242F933F934F935F936F937F9338
:100670008F939F93AF93BF93EF93FF9381EB91E0A1
:100680000E943001FF91EF91BF91AF919F918F91A7
:100690007F916F915F914F913F912F910F900FBE7E
:1006A0000F901F9018951F920F920FB60F92112462
:1006B0002F938F939F93EF93FF93E091C101F0915C
:1006C000C2018081E091C701F091C80182FD1BC089
:1006D00090818091CA018F5F8F732091CB01821727
:1006E00041F0E091CA01F0E0EF54FE4F958F809306
:1006F000CA01FF91EF919F918F912F910F900FBEA3
:100700000F901F9018958081F4CF1F920F920FB613
:100710000F9211242F933F934F935F936F937F9387
:100720008F939F93AF93BF93EF93FF93E091A601B5
:10073000F091A701309749F0A685B7858585968DFC
:1007400091FF14C09C918923A1F4FF91EF91BF9177
:10075000AF919F918F917F916F915F914F913F9159
:100760002F910F900FBE0F901F9018959C91892389
:1007700061F7A389B4899C918589809589238C939D
:10078000868997890197F1F7608D718DA685B78568
:10079000558538E020E0CB010197F1F7822F90E0FA
:1007A00095958795282F4C91452309F02068315065
:1007B00091F7868D81FD20958091A50190E00196AD
:1007C0008F7399273091A401381799F0A091A50152
:1007D000B0E0AC59BE4F2C938093A501828D938DD0
:1007E0000197F1F7A389B4898C919589892B8C9312
:1007F000ACCF868D8160868FF1CF90E0FC01E85907
:10080000FF4F2491FC01E255FF4F3491FC01E65665
:10081000FF4FE491EE23C9F0222339F0233001F198
:10082000A8F4213019F1223029F1F0E0EE0FFF1F7A
:10083000E057FF4FA591B4918FB7F894EC916111F7
:1008400026C030953E233C938FBF08952730A9F0F2
:100850002830C9F0243049F7809180008F7D03C093
:10086000809180008F7780938000DFCF84B58F7771
:1008700084BDDBCF84B58F7DFBCF8091B0008F77B7
:100880008093B000D2CF8091B0008F7DF9CF3E2B06
:10089000DACF0F931F93CF93DF931092B40110928E
:1008A000B30188EE93E0A0E0B0E08093B5019093AF
:1008B000B601A093B701B093B8012AE031E03093BC
:1008C000B2012093B10125EC30E03093BE012093BA
:1008D000BD0124EC30E03093C0012093BF0120EC37
:1008E00030E03093C2012093C10121EC30E030931D
:1008F000C4012093C30122EC30E03093C601209361
:10090000C50126EC30E03093C8012093C701109256
:10091000CA011092CB011092CC011092CD0110921D
:100920005102109250028093520290935302A0936E
:100930005402B09355028CE191E090934F02809362
:100940004E02109265021092640210926702109299
:100950006602109269021092680210926B02109265
:100960006A0260916C026E7F6D7F60936C02669587
:10097000617081E068278AE00E94FD0348EB50E047
:10098000FA01649184EA90E0FC012491222399F019
:1009900030E0220F331FF901EA57FF4FA591B491C0
:1009A000F901E057FF4F259134912FB7F8943C910E
:1009B000632B6C932FBFFA01449140935E02FC01BC
:1009C0008491E82FF0E0EE0FFF1FE057FF4F859175
:1009D00094919093600280935F0209EB10E0F8011C
:1009E0002491C5EAD0E0FE0184918823C9F090E00B
:1009F000880F991FFC01EA57FF4FA591B491FC01A4
:100A0000E057FF4F459154913FB7F8949C91822F46
:100A1000809598239C93FA019081892380833FBF1E
:100A200080916C0281FD04C061E08BE00E94FD03B7
:100A30008BE080935A02F801049100935B02FE015F
:100A4000C491EC2FF0E0EE0FFF1FE458FF4F8591AB
:100A5000949190935D0280935C02DF91CF911F91FE
:100A60000F910895CF93DF93CDB7DEB728970FB6D8
:100A7000F894DEBF0FBECDBF789484B5826084BD8C
:100A800084B5816084BD85B5826085BD85B5816092
:100A900085BD80916E00816080936E001092810010
:100AA00080918100826080938100809181008160CB
:100AB000809381008091800081608093800080918C
:100AC000B10084608093B1008091B0008160809318
:100AD000B00080917A00846080937A0080917A00DF
:100AE000826080937A0080917A00816080937A009E
:100AF00080917A00806880937A001092C100E09122
:100B0000C101F091C20182E08083E091BD01F091CA
:100B1000BE011082E091BF01F091C0018FEC808393
:100B20001092C901E091C501F091C60186E0808371
:100B3000E091C301F091C401808180618083E091E4
:100B4000C301F091C401808188608083E091C3017A
:100B5000F091C401808180688083E091C301F091AD
:100B6000C40180818F7D8083109269021092680297
:100B7000109267021092660210926502109264024F
:100B80008EE393E090936B0280936A0290915A02F5
:100B9000963108F047C02DE831E03093650220938C
:100BA00064022CE333E0309367022093660224E66C
:100BB00032E030936902209368022091680084E05B
:100BC000983048F031E09E3008F430E081E001C018
:100BD000880F3A95EAF7822B809368002DE630E083
:100BE000983050F02BE630E09E3030F02CE630E0CC
:100BF000963110F030E020E03093620220936102E1
:100C0000292F30E0983008F0B3C081E001C0880F90
:100C10009A95EAF78093630280916A0290916B0241
:100C20000197F1F78091680290916902892B49F14F
:100C3000E091A601F091A70122E0EE34F20709F15C
:100C4000309739F0A389B4899C918589809589234F
:100C50008C9380916C028E7F80936C021092A50120
:100C60001092A4018EE492E09093A7018093A601D4
:100C7000E0916102F0916202808190916302892B80
:100C800080830E948D004B015C0198EEC92E93E099
:100C9000D92EE12CF12C0E948D00681979098A095E
:100CA0009B09683E734081059105A8F381E0C81A4D
:100CB000D108E108F10828EE820E23E0921EA11C63
:100CC000B11CC114D104E104F10429F78AE291E0D6
:100CD0000E94AE0284E591E00E94AE0280E0E82E20
:100CE00080E0F82E8EE492E00E9434021816190675
:100CF0000CF069C01A8219821C821B821E821D821E
:100D000070E060E0CE0101960E94BB0229813A8129
:100D100081113BC02115310519F0C9010E94E4077A
:100D20001A8219821E821D821C821B820E946B0203
:100D300097FD33C08A30910581F18F8318860D812C
:100D40001E810F5F1F4FB801CE0101960E94BB02AA
:100D5000882361F329813A818D819E81BE01695F7B
:100D60007F4F820F931F0E9433091E830D83DECFB6
:100D70009E3040F42850310981E001C0880F2A9547
:100D8000EAF748CF2E503109F7CF1E821D8266E563
:100D900071E0C9010E943309C9CF87E591E00E9443
:100DA000AE024D815E8169817A8181EB91E00E9482
:100DB000B20084E591E00E94AE0289819A81009799
:100DC00011F00E94E407E114F10409F48BCF0E94B2
:100DD0001C01882309F486CF0E94000083CF8CE198
:100DE00091E090934F0280934E028091A6019091E2
:100DF000A7018E54924071F4E0916102F091620279
:100E00009081809163028095892380831092A7014D
:100E10001092A60108952F923F924F925F926F9287
:100E20007F928F929F92AF92BF92CF92DF92EF927A
:100E3000FF920F931F93CF93DF93CDB7DEB7CA1BFB
:100E4000DB0B0FB6F894DEBF0FBECDBF09942A8826
:100E5000398848885F846E847D848C849B84AA84CE
:100E6000B984C884DF80EE80FD800C811B81AA815B
:100E7000B981CE0FD11D0FB6F894DEBF0FBECDBF26
:100E8000ED010895EE0FFF1F0590F491E02D0994F8
:100E90000F931F93CF93DF938230910510F482E07C
:100EA00090E0E0916F02F091700230E020E0B0E05D
:100EB000A0E0309799F42115310509F44AC0281BA8
:100EC000390B24303105D8F58A819B816115710574
:100ED00089F1FB0193838283FE0111C0408151811E
:100EE0000281138148175907E0F04817590799F410
:100EF000109761F012960C93129713961C933296EA
:100F0000CF01DF91CF911F910F91089500936F0250
:100F100010937002F4CF2115310551F04217530799
:100F200038F0A901DB019A01BD01DF01F801C1CF51
:100F3000EF01F9CF9093700280936F02CDCFFE0145
:100F4000E20FF31F81939193225031093983288353
:100F5000D7CF20916D0230916E02232B41F4209166
:100F600002013091030130936E0220936D022091B3
:100F70000001309101012115310541F42DB73EB733
:100F80004091040150910501241B350BE0916D0245
:100F9000F0916E02E217F307A0F42E1B3F0B281707
:100FA000390778F0AC014E5F5F4F2417350748F0E2
:100FB0004E0F5F1F50936E0240936D028193919389
:100FC0009FCFF0E0E0E09CCFCF93DF930097E9F074
:100FD000FC01329713821282A0916F02B0917002CD
:100FE000ED0130E020E01097A1F420813181820FE3
:100FF000931F20916D0230916E022817390709F076
:1010000061C0F0936E02E0936D02DF91CF9108957D
:10101000EA01CE17DF07E8F54A815B819E014115A1
:101020005105B1F7E901FB83EA8349915991C40F56
:10103000D51FEC17FD0761F4808191810296840F22
:10104000951FE90199838883828193819B838A8399
:10105000F0E0E0E012968D919C9113970097B9F51E
:101060002D913C911197CD010296820F931F2091F3
:101070006D0230916E022817390739F6309751F515
:101080001092700210926F02B0936E02A0936D02E4
:10109000BCCFD383C28340815181840F951FC81771
:1010A000D90761F44E5F5F4F88819981480F591FBE
:1010B000518340838A819B819383828321153105EB
:1010C00009F0B0CFF0937002E0936F029ECFFD0164
:1010D000DC01C0CF13821282D7CFB0E0A0E0E3E7FB
:1010E000F8E00C940D078C01009751F4CB010E949D
:1010F00048078C01C801CDB7DEB7E0E10C942907A1
:10110000FC01E60FF71F9C0122503109E217F3079B
:1011100008F49DC0D901CD91DC911197C617D7076E
:1011200098F0C530D10530F3CE01049786179707A4
:1011300008F3C61BD70B2297C193D1936D937C9371
:10114000CF010E94E407D6CF5B01AC1ABD0A4C0167
:101150008C0E9D1EA0916F02B0917002512C412CFB
:10116000F12CE12C109731F580916D0290916E0277
:101170008815990509F05CC04616570608F058C056
:101180008091000190910101009741F48DB79EB7C5
:101190004091040150910501841B950BE817F90754
:1011A00008F055C0F0936E02E0936D02F90171836F
:1011B0006083A0CF8D919C91119712966C9012979D
:1011C00013967C901397A815B90559F56C0142E068
:1011D000C40ED11CCA14DB0420F1AC014A195B090E
:1011E000DA011296159780F06282738251834083F0
:1011F000D9016D937C93E114F10471F0D70113963A
:10120000FC93EE93129776CF22968C0F9D1FF901D7
:1012100091838083F301EFCFF0937002E0936F022C
:1012200069CF4816590608F42C017D01D3019ACFE5
:10123000CB010E9448077C01009749F0AE01B8013C
:101240000E942A09C8010E94E407870153CF10E0D9
:1012500000E050CFFB01DC0102C001900D92415033
:101260005040D8F70895FB01DC0101900D92002059
:10127000E1F7089510E0C2E6D0E004C0FE010E944C
:1012800042072196C336D107C9F7F894FFCF000073
:1012900071028000000000005201B200DF009F01D7
:1012A0001001EE00020100000000D801B200AB0204
:1012B000D70134024A02BF015B52454345495645B6
:1012C000525D20496E69636961646F2E20457370B9
:1012D0006572616E646F206D656E73616A652E2E36
:1012E0002E000D0A005B52454345495645445D209A
:0212F0000000FC
:107E0000112484B714BE81FFF0D085E080938100F7
:107E100082E08093C00088E18093C10086E0809377
:107E2000C20080E18093C4008EE0C9D0259A86E02C
:107E300020E33CEF91E0309385002093840096BBD3
:107E4000B09BFECF1D9AA8958150A9F7CC24DD24C4
:107E500088248394B5E0AB2EA1E19A2EF3E0BF2EE7
:107E6000A2D0813461F49FD0082FAFD0023811F036
:107E7000013811F484E001C083E08DD089C08234E0
:107E800011F484E103C0853419F485E0A6D080C0E4
:107E9000853579F488D0E82EFF2485D0082F10E0AE
:107EA000102F00270E291F29000F111F8ED06801E7
:107EB0006FC0863521F484E090D080E0DECF843638
:107EC00009F040C070D06FD0082F6DD080E0C81688
:107ED00080E7D80618F4F601B7BEE895C0E0D1E017
:107EE00062D089930C17E1F7F0E0CF16F0E7DF06D8
:107EF00018F0F601B7BEE89568D007B600FCFDCFD4
:107F0000A601A0E0B1E02C9130E011968C91119780
:107F100090E0982F8827822B932B1296FA010C0160
:107F200087BEE89511244E5F5F4FF1E0A038BF0790
:107F300051F7F601A7BEE89507B600FCFDCF97BE46
:107F4000E89526C08437B1F42ED02DD0F82E2BD052
:107F50003CD0F601EF2C8F010F5F1F4F84911BD097
:107F6000EA94F801C1F70894C11CD11CFA94CF0C13
:107F7000D11C0EC0853739F428D08EE10CD085E9AC
:107F80000AD08FE07ACF813511F488E018D01DD067
:107F900080E101D065CF982F8091C00085FFFCCF94
:107FA0009093C60008958091C00087FFFCCF809118
:107FB000C00084FD01C0A8958091C6000895E0E648
:107FC000F0E098E1908380830895EDDF803219F02E
:107FD00088E0F5DFFFCF84E1DECF1F93182FE3DFCA
:107FE0001150E9F7F2DF1F91089580E0E8DFEE27F6
:047FF000FF270994CA
:027FFE00040479
:00000001FF
